:100000000040002029510000695100006B510000A0
:1000100000000000000000000000000000000000E0
:100020000000000000000000000000006D51000012
:1000300000000000000000006F510000715100003E
:1000400073510000735100006557000073510000A8
:100050007351000000000000735100007351000054
:100060007351000073510000735100007351000080
:100070007351000073510000735100007351000070
:1000800073510000A1520000735100007351000031
:100090007351000073510000735100007351000050
:1000A00073510000735100000000000000000000C8
:1000B0000000000000000000000000000000000040
:1000C000054B0648033310B51B1A062B03D9044B06
:1000D000002B00D0984710BDD4000020D400002091
:1000E000000000000648074910B5091A8910CB0F17
:1000F0005918491003D0044B002B00D0984710BD6D
:10010000D4000020D40000200000000010B5074CEF
:100110002378002B09D1FFF7D3FF054B002B02D02A
:10012000044800E000BF0123237010BDD40000206C
:100130000000000060E80000094B10B5002B03D060
:100140000849094800E000BF08480368002B02D1B5
:10015000FFF7C8FF10BD064B002BF9D09847F7E713
:1001600000000000D800002060E80000D00000205F
:1001700000000000164B002B00D1144B9D4640227E
:1001800092029A1A924600218B460F461348144A4F
:10019000121A08F040FE0F4B002B00D098470E4B70
:1001A000002B00D098470020002104000D000D48CE
:1001B000002802D00C4800E000BF08F0A9FD200094
:1001C000290005F025FC08F07DFDC0460000080070
:1001D000004000200000000000000000D4000020CB
:1001E000E4070020000000000000000010B504003B
:1001F000FC3005F0D0FA2000F03005F0CCFA2000F9
:10020000E43005F0C8FA2000D83005F0C4FA200028
:10021000CC3005F0C0FA2000C03005F0BCFA200058
:10022000B43005F0B8FA2000A83005F0B4FA200088
:100230009C3005F0B0FA2000903005F0ACFA2000B8
:10024000843005F0A8FA2000783005F0A4FA2000E8
:100250006C3005F0A0FA2000603005F09CFA200018
:10026000543005F098FA2000483005F094FA200048
:100270003C3005F090FA2000303005F08CFA200078
:10028000243005F088FA2000183005F084FA2000A8
:100290000C3005F080FA200005F07DFA200010BD3A
:1002A00070B50400374905F0BDFA2000364D0C301A
:1002B000290005F0B7FA20002900183005F0B2FA3D
:1002C00020002900243005F0ADFA2000290030304C
:1002D00005F0A8FA200029003C3005F0A3FA200020
:1002E0002900483005F09EFA20002900543005F01E
:1002F00099FA20002900603005F094FA20002900C6
:100300006C3005F08FFA20002900783005F08AFA69
:1003100020002900843005F085FA20002900903063
:1003200005F080FA200029009C3005F07BFA2000BF
:100330002900A83005F076FA20002900B43005F035
:1003400071FA20002900C03005F06CFA2000290065
:10035000CC3005F067FA20002900D83005F062FAA9
:1003600020002900E43005F05DFA20002900F0307B
:1003700005F058FA20002900FC3005F053FA20005F
:1003800070BDC04694D0000066E3000030B5104C4C
:100390008BB010210500200002F066FB210017231E
:1003A0000C4A01A802F0FAFB01A802F046FB041E69
:1003B0000AD0290001A805F001F801A802F030FBDD
:1003C0002900054804F0FAFF20000BB030BDC046FC
:1003D000E40400206DD100006C0700207FB54F4C75
:1003E0000600210001A80C3105F05DFA4C4D01A872
:1003F000290005F0E9FA2100183105F0D8FA2900A2
:1004000005F0E2FA2100243105F0D1FA290005F0C7
:10041000DBFA2100303105F0CAFA290005F0D4FAE0
:1004200021003C3105F0C3FA290005F0CDFA210086
:10043000483105F0BCFA290005F0C6FA2100543114
:1004400005F0B5FA290005F0BFFA2100603105F08A
:10045000AEFA290005F0B8FA21006C3105F0A7FAD0
:10046000290005F0B1FA2100783105F0A0FA290041
:1004700005F0AAFA2100843105F099FA290005F067
:10048000A3FA2100903105F092FA290005F09CFAB8
:1004900021009C3105F08BFA290005F095FA210026
:1004A000A83105F084FA290005F08EFA2100B43154
:1004B00005F07DFA290005F087FA2100C03105F02A
:1004C00076FA290005F080FA2100CC3105F06FFAA8
:1004D000290005F079FA2100D83105F068FA2900E1
:1004E00005F072FA2100E43105F061FA290005F007
:1004F0006BFA2100F03105F05AFA290005F064FA90
:100500002100FC3105F053FA0100300005F0CBF971
:1005100001A805F040F9300004B070BD7002002061
:1005200079D1000030B5124C8BB0102105002000AD
:1005300002F09AFA210017230E4A01A802F02EFBBE
:1005400001A802F07AFA0C4C00280BD0290001A86F
:1005500004F034FF01A802F063FA2900200004F03F
:100560002DFF03E00549200004F01BFF0BB030BD58
:10057000E40400206DD100006C0700207BD1000056
:1005800070B5040090B0081C08F072F902AA04F0DB
:100590005DFD254B002207F0EDFA08F0B9F80600E2
:1005A0000298039908F0B4F80A22010004A805F0A3
:1005B000CFF904A907A805F076F91C4907A805F0AA
:1005C00003FA05000A2231000AA805F0C1F90AA9B8
:1005D000280005F0ECF9164905F0F6F905003C2075
:1005E000704308F0CBF80B000221020000910DA827
:1005F00005F07CF90DA9280005F0D9F90D4905F0A1
:10060000E3F90100200005F04EF90DA805F0C3F84C
:100610000AA805F0C0F807A805F0BDF804A805F081
:10062000BAF8200010B070BD00004E4095D1000017
:1006300098D100009AD1000070B53A4CA379002BF4
:1006400012D1394D3949280004F0ABFE1021384849
:1006500002F00AFA002806D03649280004F0A1FE6C
:100660000123A37100E0A071334800F0EFFC237870
:10067000002B0ED14221314800F0D0FB002808D0D9
:100680002F4801F007FA002802D00123237000E070
:1006900020706378002B0ED17621284800F0BEFB35
:1006A000002808D0274801F09FF9002802D0012334
:1006B000637000E06070A378002B0ED15A211F48B0
:1006C00000F0ACFB002808D01F4801F081FF002893
:1006D00002D00123A37000E0A070E378002B0ED1BC
:1006E0004D21164800F09AFB002808D0174800F06A
:1006F000F6FE002802D00123E37000E0E070637989
:10070000002B0ED13C210D4800F088FB002808D0BA
:100710000F4800F0F3FA002802D00123637100E0D3
:10072000607170BD380100206C0700209CD1000072
:10073000E4040020B5D100000C040020FC030020DC
:100740008001002040010020FC0000201401002056
:100750007803002070B51F4D4D21280000F05EFB8E
:100760001D4C002802D00123E37000E0E0707621E8
:10077000280000F053FB002802D00123637000E042
:1007800060704221280000F049FB002802D00123BC
:10079000237000E020705A21280000F03FFB002861
:1007A00002D00123A37000E0A0703C21280000F0DB
:1007B00035FB002802D00123637100E06071E3780B
:1007C000A078184363781843237818436379184353
:1007D00070BDC046FC03002038010020F0B587B092
:1007E000FFF7B8FF002801D1FFF726FFCD4800F042
:1007F0002DFCCD4E3378002B00D1D1E0CB4D28001D
:1008000001F07CFE280001F089FD071C280001F0A2
:10081000A6FD02220190391C03A805F07FF8C44C04
:1008200003A920000C3005F048F803A804F0B3FF3A
:100830000222019903A805F071F8200003A91830DD
:1008400005F03BF803A804F0A6FF391C03A8FFF746
:1008500097FE200003A9243005F02FF803A804F028
:100860009AFF019903A8FFF78BFE200003A93030FF
:1008700005F023F803A804F08EFF280001F022FD04
:100880000222011C03A805F049F8200003A93C300E
:1008900005F013F803A804F07EFF280001F080FDA6
:1008A00006F0AEF90A22010003A805F051F8200075
:1008B00003A9543005F001F803A804F06CFF2800E8
:1008C00001F09AFD0222011C03A805F027F8200080
:1008D00003A9483004F0F1FF03A804F05CFF2800EE
:1008E00001F010FC0A22010003A805F031F82000F5
:1008F00003A9603004F0E1FF03A804F04CFF2800D6
:1009000001F0E0FB0A22010003A805F021F8200015
:1009100003A96C3004F0D1FF03A804F03CFF2800C9
:1009200001F0B0FB0A22010003A805F011F8200035
:1009300003A9783004F0C1FF03A804F02CFF2800BD
:1009400001F03CFC0A22010003A805F001F8200098
:1009500003A9843004F0B1FF03A804F01CFF2800B1
:1009600001F04CFC0A22010003A804F0F1FF200072
:1009700003A9903004F0A1FF03A804F00CFF2800A5
:1009800001F05EFC0A22010003A804F0E1FF200050
:1009900003A99C3004F091FF03A804F0FCFE42E0A0
:1009A000634C644D200029000C3004F0E3FF20006C
:1009B0002900183004F0DEFF20002900243004F064
:1009C000D9FF20002900303004F0D4FF2000290096
:1009D0003C3004F0CFFF20002900543004F0CAFF5F
:1009E00020002900483004F0C5FF200029006030B5
:1009F00004F0C0FF200029006C3004F0BBFF200091
:100A00002900783004F0B6FF20002900843004F07B
:100A1000B1FF20002900903004F0ACFF2000290035
:100A20009C3004F0A7FF7378414C002B37D0424D27
:100A3000280000F0F3FD280000F02CFE0222011C2B
:100A400003A804F06BFF200003A9A83004F035FFD1
:100A500003A804F0A0FE280000F034FF0222011CCD
:100A600003A804F05BFF200003A9C03004F025FFB9
:100A700003A804F090FE280000F0D0FE2F4905F0F6
:100A80005BFC0222011C03A804F048FF200003A91C
:100A9000B43004F012FF03A804F07DFE0FE0200044
:100AA000244DA830290004F065FF20002900C03043
:100AB00004F060FF20002900B43004F05BFFF378FD
:100AC000002B41D01E4D1F48290000F095FD002845
:100AD0004AD00A22E98803A804F03AFF200003A9BB
:100AE000E43004F0EAFE03A804F055FE0A22298946
:100AF00003A804F02DFF200003A9F03004F0DDFE70
:100B000003A804F048FE69890A2203A804F020FF24
:100B1000200003A9FC3004F0D0FE03A804F03BFE43
:100B200022E0C0460C040020380100208001002093
:100B30007002002066E30000400100200000C8426F
:100B4000F0000020140100202000324DE430290084
:100B500004F010FF20002900F03004F00BFF20000B
:100B60002900FC3004F006FFB378002B44D02A4D56
:100B7000280001F0CBFC002849D0280001F08CFDB2
:100B80007378002B17D02300C033186808F080F862
:100B90002300A833060018680F0008F079F807F062
:100BA000BBFE39000190300007F0B6FE019A011C2F
:100BB000280001F0A3FD280001F0C8FC0A22010072
:100BC00003A804F0C5FE200003A9CC3004F075FE94
:100BD00003A804F0E0FD280001F0B6FC0A220100A1
:100BE00003A804F0B5FE200003A9D83004F065FE88
:100BF00003A804F0D0FD0AE02000064DCC30290007
:100C000004F0B8FE20002900D83004F0B3FE07B08D
:100C1000F0BDC04666E30000FC0000201FB5FFF7F2
:100C2000DDFD01A8FFF7DAFB01A8FFF77BFC01A8B7
:100C300004F0B1FDFA20800004F024FB05B000BDF3
:100C400010B50B4800F03CFC0A4800F0E0FC0A48F4
:100C500000F0E0FE094801F055FC094C2000FFF7C8
:100C60001FFB084A0849200007F0EAFF10BDC046F4
:100C7000140100204001002080010020FC00002021
:100C80007002002000000020ED0100001FB5E121EE
:100C90000A48490204F0EDFBFFF7CEFC084800F0DB
:100CA00049F8084901A804F0FEFD01A8FFF76EFB12
:100CB00001A804F070FD05B000BDC0466C0700201F
:100CC000780300207002002010B50400103004F0FA
:100CD00062FD201D04F05FFD200010BD70B5040012
:100CE000054D0430290004F09DFD2000290010303E
:100CF00004F098FD200070BD66E3000013B53C21B0
:100D00000A4800F08BF800280DD00123084C00930E
:100D10003C220221200003F023FE200003F00FFEFE
:100D2000200004F0F3F8002016BDC046FC030020AC
:100D30009403002030B53C2185B005001F4800F029
:100D40006DF8002837D01E4C1035200003F0F7FD59
:100D50000121200003F069FC0121200003F06BFC5D
:100D600000221D21200003F05DFC1649200004F044
:100D700039FB09221021200003F054FC1249200005
:100D800004F004FB0021280004F032FE29002000BA
:100D900004F000FB012302930C4B20001B780E2271
:100DA00001930B4B00211B7800930A4B03F028FAA8
:100DB000200004F0ABF805B030BDC046FC030020B5
:100DC00094030020DAD40000E7D4000005000020DE
:100DD00004000020C8D10000012170B50A4C49422E
:100DE000200003F0A5FC094D09492A00200007F066
:100DF00027FF084C2000FFF771FF2A00064920005A
:100E000007F01EFF70BDC0469403002000000020C4
:100E10008147000078030020C90C000070B50E0067
:100E20000A240B4D3100280000F0D4F9280000F00E
:100E30003BFA002807D0013CE4B2002C05D0012089
:100E400004F020FAEDE7012000E0200070BDC0466C
:100E50000C04002070B516001D00084C200000F0A6
:100E6000B9F93100200000F0B8F82900200000F0A6
:100E7000B4F8200000F018FA70BDC0460C04002041
:100E800070B51500054C200000F0A4F929002000E1
:100E900000F0A3F8200000F007FA70BD0C04002059
:100EA00070B516000D000E4C200000F093F93100D3
:100EB000200000F092F8200000F0F6F9012229004D
:100EC000200000F082F9200000F07DF803000020EF
:100ED000834203D0200000F07BF8C0B270BDC04652
:100EE0000C04002070B516000D00114C200000F01D
:100EF00071F93100200000F070F8200000F0D4F902
:100F000002222900200000F060F9200000F05BF8C8
:100F100003000020834209D0200000F059F885B278
:100F2000200000F055F82D02284380B270BDC04665
:100F30000C04002010B5FFF7D5FF40BA80B210BDF9
:100F400010B5FFF7F7FF00B210BD000070B5160036
:100F50000C00124D280000F03DF93100280000F08F
:100F60003CF8280000F0A0F903222100280000F03E
:100F70002CF9280000F027F80300002083420CD051
:100F8000280000F025F80402280000F021F8204392
:100F90000402280000F01CF8204370BD0C0400205F
:100FA000F8B505000E0017000024BC4208D02B68DD
:100FB000315D1B6828009847002801D00134F4E710
:100FC0002000F8BD704710B51C3004F037FA10BD92
:100FD00010B51C3004F024FA10BD70B5437E0D002E
:100FE000002B05D06430040004F037FA002801D04B
:100FF000002004E02000290004F003FA012070BD65
:1010000010B51C3004F020FA10BD0000F7B50193B4
:10101000FA23002504009B0083600B4B45600833D6
:1010200003601C300F00160004F0E0F9200064306B
:1010300004F0DCF96B461B79276166756576A57649
:101040002000A375FEBDC04604D70000012370B583
:10105000827DC375164B9200D258910602D4A0240B
:10106000E40500E0134C417D890059588B0602D4F9
:10107000A025ED0500E00F4D1F231A400B40110085
:10108000C1310D4EFF3189000E511900CC24C13100
:10109000FF3189004E510169084864040C50052451
:1010A00024380C5008300A50054A8B5070BDC04699
:1010B000E0E20000000300500C06000024050000E0
:1010C0000C050000A02302690020DB00D050094875
:1010D000814204D90848814204D9CD2103E0CC21C2
:1010E000490401E08021C904044811500521D15070
:1010F0007047C046A086010090D003002405000080
:10110000F7B5050000200C00019382425CD0161E4A
:10111000402E00D940262F001C37380004F07CF9FF
:10112000B1222B69D20080219C50012289005A50A3
:10113000A97E002901D11A621A600024731E2A694F
:10114000A34206D1019B002B03D0802302219B00E8
:10115000D150012313621300FC33D968002902D156
:10116000996A0029F9D0996A00290AD1D960A32384
:10117000DB00D1583800C9B2013404F042F9A6426C
:10118000DCD8019A2B69002A04D11A00FC32916A3A
:1011900000290AD001210022AA7659611900FC31E8
:1011A00088680028FCD08A6007E00121A976D9610F
:1011B000D16C0029FCD00021D164FC339A6A002A4A
:1011C00001D000229A62E0B2FEBD10B50123FFF704
:1011D00097FF10BD0300AC3310B5040019706430E4
:1011E00004F01AF90123637610BD0000F8B500225F
:1011F0000D0001004276AC31036904000878B1218A
:10120000C9005850802189005A5001321A629A60F0
:1012100026006436300004F011F900280ED03000AA
:10122000276904F0FDF81E4BF8502369FC331A6A55
:10123000002A0CD19A6A002AF9D008E02369002D0F
:101240000AD11A00FC32916A002905D10EE09A6A8F
:10125000002AF3D11A62DBE701225A611A00FC323C
:1012600091680029FCD00021916006E00121D9613C
:10127000D16C0029FCD00021D1641A000020FC327E
:10128000916A81420BD0074990625A5802305A50F5
:10129000824204D0043A534253410230C01AF8BD8E
:1012A0001C050000C404000010B50121FFF79EFFDB
:1012B00010BD000010B51323142202490248FFF7A5
:1012C000A5FE10BD004000400C0400204D2303701B
:1012D0007047000070B50C001600094D0178E4005D
:1012E0002800FFF777FFE1B22800FFF776FE310014
:1012F0002800FFF772FE2800FFF7D6FF70BDC0463A
:101300000C040020032210B51100FFF7E3FF10BD0D
:1013100070B50D0006000B4C0178ED002000FFF7C2
:1013200059FFE9B22000FFF758FE2000FFF7BCFF8D
:10133000317801222000FFF748FF2000FFF748FE28
:10134000C0B270BD0C04002070B50500080107F0A4
:1013500015FA0B0002001049002005F0E7FF04F029
:1013600009FE032184B22800FFF7D2FF2800802263
:101370000321FFF7AFFF2800E2B20021FFF7AAFF29
:101380002800220A0121FFF7A5FF28007F22032160
:10139000FFF7A0FF70BDC04600203C4110B50E21F4
:1013A0000400FFF7B5FF08221043C2B20E2120004F
:1013B000FFF790FF10BD10B5040099220721FFF739
:1013C00089FF07212000FFF7A3FF993843425841C6
:1013D000C0B210BD70B50D0002210400FFF798FFE8
:1013E00002210B000343DAB2002D01D18843C2B2BF
:1013F00002212000FFF76EFF70BD000070B5114D97
:1014000004000E0001782800FFF7E4FE2800FFF733
:101410004BFF002801D0002512E02000FFF7CBFF92
:10142000051EF8D02000FFF7B9FF01212000FFF7CB
:10143000D1FF20003100FFF787FF2000FFF762FF98
:10144000280070BD0C04002010B50921FFF760FFD3
:1014500010BD10B50400FFF7F7FF002803D00021EE
:101460002000FFF755FF10BD70B50E000A211500D2
:101470000400FFF74DFF012D03D12A00B2401043B5
:1014800002E00123B3409843C2B20A212000FFF7D3
:1014900021FF70BD70B50E000B2115000400FFF791
:1014A00037FF012D03D12A00B240104302E001238F
:1014B000B3409843C2B20B212000FFF70BFF70BD71
:1014C00070B505000C3504002800FFF7FFFE00236F
:1014D000E21C25616376A3762000D37770BD962148
:1014E00070B5890105000069FFF788FF002421001D
:1014F00001222869FFF7B8FF210001340122286981
:10150000E4B2FFF7C7FF042CF1D1012070BD002326
:1015100070B5040003760069FFF796FF00286AD0D3
:101520002069FFF796FFA27E0300032A22D810004D
:1015300004F0C0FA02050E15422B5CD106E04D2BDB
:1015400002D00023A37656E0238C4D33238450E051
:10155000218C9BB259181B022184A38349E00820E7
:10156000A18B9BB21943A18381431429E9D1218C1A
:101570005B18EBE7A18B881C824202D11B02E3833C
:1015800037E0C81C218C82422CD1E28B13439BB2E2
:10159000E3839942D5D10123617823762078656968
:1015A00004F0F6F82880E178A078656904F0F0F896
:1015B000688061792079656904F0EAF8A880E179AA
:1015C000A079656904F0E4F8E880617A207A6569B9
:1015D00004F0DEF82881E17AA07A656904F0D8F891
:1015E0006881AEE7C9182184111FC9B20B2900D840
:1015F00063540132A27670BD10B504004161FFF75B
:1016000086FF207E013843425841C0B210BD0023FE
:101610004363030076223C331A7070477047000022
:10162000F8B50700194E3C37050039783000FA222A
:10163000FFF736FC39780400FB223000FFF730FC5E
:101640002403000139780443FC223000FFF728FC12
:10165000288A23111B1AE4104000201A1222AC5EC3
:101660005B434443052014216A5E1B135343E41279
:101670009B13E418AC63444320008030001205F053
:10168000E1FA034904F058FEF8BDC046FC0300200F
:101690000000C84210B50400FFF7C2FF616B04F000
:1016A000D5FC10BD0300F0B53C33070085B01978B8
:1016B000F7225748FFF74AFC0123BC6B554A5B42AF
:1016C000E517A4185D4106002B0022002000290028
:1016D00004F00CFC009001912023F85E009A019B1D
:1016E000C11704F003FC029003911E23F85E220050
:1016F0002B00C11704F0FAFBC30B9C464B04614658
:1017000042040B43029803998018594102900391B7
:101710001823F85E22002B00C11704F0E7FB030D2D
:101720000D031D4304031A23F85E009A019BC117A1
:1017300004F0DCFB0B069C46020A60460B120243D7
:1017400012196B41190080230025100000221B0292
:1017500080185941FA8A2B0004F0C8FB8023361107
:101760005B039E1BF2170C00D1072A007308194374
:10177000F0071C23FE5EF300029D039E5219734185
:10178000801A9941244A002304F0B0FB6210E31749
:1017900004F088FB00900191009A019B540BDB043C
:1017A0001C43019B22005D132623F85E2B00C1170A
:1017B00004F09CFB22002B0004F098FBCB01440EAC
:1017C0001C434D16009A019BA4185D412423F85E2A
:1017D000009A019BC11704F089FB4E03C20C3243EF
:1017E000CB14A4185D412906220A0A4322217C5EFB
:1017F0002B12E617250F310129432001801859418A
:1018000004F0D6FBEE21890504F060FF05B0F0BDC1
:10181000FC030020000CFEFF350C000010B5FFF7A4
:1018200041FF10BD030010B504003C331978FD22C0
:101830002248FFF757FBA36B214A80039B182E21F8
:10184000625E1205801A3021625E80215A43C9010E
:10185000821A5218210080202C3109780002594345
:10186000C9120918200032300078D21340B2434325
:101870009B124B4380219B1289035B182A20215E17
:1018800028344B43802189015B189B135A43D3139F
:101890005B432078DB1143431B11D31AD843C82282
:1018A000C01703405205934200DD1300181305F0E2
:1018B000C9F9EA21890504F009FF10BDFC030020E5
:1018C00000D4FEFF10B5FFF7ADFF10BDF8B5060060
:1018D000444D3C360400317828008822FFF72AFB6B
:1018E0002082317828008A22FFF72AFB6082317833
:1018F00028008C22FFF724FBA082317828008E225A
:10190000FFF718FBE082317828009022FFF718FBE0
:101910002083317828009222FFF712FB6083317810
:1019200028009422FFF70CFBA08331782800962230
:10193000FFF706FBE083317828009822FFF700FBD1
:101940002084317828009A22FFF7FAFA60843178EF
:1019500028009C22FFF7F4FAA084317828009E2208
:10196000FFF7EEFAE08431782800A122FFF798FA19
:1019700023002833187031782800E122FFF7E0FABD
:10198000608531782800E322FFF78AFA23002C33A0
:10199000187031782800E422FFF782FA31780700C6
:1019A000E5222800FFF77CFA0F2210403B010700D8
:1019B0001F43E78531782800D732FFF771FA317875
:1019C0000700E5222800FFF76BFA3F0100113843BA
:1019D000208631782800E722FFF762FA323420703F
:1019E000F8BDC046FC03002070B50400FFF76EFF91
:1019F000074D3C34280021780123F222FFF72AFA10
:101A0000280021783F23F422FFF724FA012070BD3B
:101A1000FC030020020000230221093203744374F6
:101A200083828361037703844362D3772332838580
:101A3000036313720387C3631377537713751C32E1
:101A4000C364103213705370C36510321370537037
:101A5000036713745374021DD36784321374537471
:101A600093611370537093601032137453749361C5
:101A70001032137653761832137551749374D374ED
:101A8000143253609360D360136153619361123ACF
:101A90001370704710B542210148FFF7BFF910BD20
:101AA000FC0300200B00413B052B01D8373906E031
:101AB0000B000800613B3038052B01D8573908006E
:101AC000704770B505782B002D3B5A425341C4181E
:101AD000200007F0E2F86423584323781A00303AD4
:101AE000092A01D80134F8E72E2B0BD16378303B5B
:101AF000092B07D80A225343C018A378303B092B7F
:101B000000D8C0182D2D00D1404270BDF8B50E0090
:101B1000040007F0C2F86421050004F05BF81348E4
:101B2000484364210700280003F0CEFF308023786B
:101B30001A00303A092A01D80134F8E72E2B0BD1CC
:101B40000A4801342578303D092D05D80A2103F0D3
:101B5000BBFF45437F19F4E705207843032101309B
:101B600003F0B2FF002370603372F8BD80969800D6
:101B700070B50400092521002A001C31043007F04B
:101B80002CF9200021002A002831103007F025F917
:101B900003F060FB012360636370237070BD00007D
:101BA0000023D0B504004370806806F029FE0022AF
:101BB0000C4B05F0BBFB0600A0880F0006F0DEFD15
:101BC00002000B003000390005F084F80200207B91
:101BD0000B00002802D080231B06CB181000190030
:101BE000D0BDC04665CDCD410023D0B504004370C3
:101BF000406906F005FE00220C4B05F097FB06003D
:101C0000208A0F0006F0BAFD02000B0030003900F8
:101C100005F060F80200207E0B00002802D080232F
:101C20001B06CB1810001900D0BDC04665CDCD41B4
:101C3000836810B54360040003F00CFB0123E060EF
:101C40006370237010BD836810B54360040003F017
:101C500001FB0123E0606370237010BD10B5040028
:101C60000800FFF72EFFA06010BD10B504000800AB
:101C700007F013F8A06010BDC36810B583600400BE
:101C800003F0E8FA012360606370237010BD10B5A3
:101C900004000800FFF715FFE06010BDC36810B531
:101CA0008360040003F0D6FA012360606370237040
:101CB00010BD10B50400080006F0EFFFE06010BD95
:101CC00010B504001030210007F050FF03F0C2FAF5
:101CD00001232062A21D0534D377E37710BD10B530
:101CE000102207F064FF10BD0300F7B5C1331B7865
:101CF00004000093002B6ED00300C2331978FFF765
:101D0000D1FE2300C333050019782000FFF7CAFE77
:101D100023002D01C03328181B78C0B2834253D151
:101D200022002500EC321368D435013313602B7880
:101D3000002B03D0083A1368013313602300D1331A
:101D40001B78002B17D0012B2CD120004830FFF737
:101D50006FFF20005830FFF776FF2B78002B21D043
:101D600020001030FFF704FF20006830FFF784FFE9
:101D70002000783014E020005830FFF764FF2B7803
:101D8000002B07D020001030FFF7F2FE2000883033
:101D9000FFF772FF20009830FFF780FF2000A83087
:101DA000FFF76AFFDC342568002D00D1D2E02368FC
:101DB000A86A996A07F0D0FE002800D0CAE028007F
:101DC000FFF77EFF2D6BEFE7E834236801332360D4
:101DD00000230093BEE0030007000500D233019307
:101DE0001978D137DC3500292ED10600C2365A4980
:101DF000300007F0B1FE002805D05849300007F048
:101E0000ABFE002801D101230DE05549300007F059
:101E1000A3FE002806D05349300007F09DFE0223A0
:101E2000002800D100233B70D83423682B602C6835
:101E3000002C00D18EE03100A06A07F08DFE002852
:101E400000DB83E0236BF1E73878022867D02200BB
:101E5000C2321378002B62D0400108430138282891
:101E60005DD803F027FE1521242A30454D53575CD9
:101E70005C5C5C5C5C5C5C5C5C5C5C5C5C5C5C5CA2
:101E80005C5C5C5C5C5C151B21242A30373B3F00AA
:101E9000200011005830FFF7E1FE40E0413B59427D
:101EA00059412200D43213E021002C3107E0533B8A
:101EB00059425941220034320AE0210038311000E1
:101EC000FFF724FE2BE0573B594259412200403294
:101ED000117024E02000110068301EE02000110085
:101EE00078301AE0200011004830FFF7BEFE16E0FF
:101EF00030229A429B4122005B42D43213700EE0A2
:101F0000200011009830FFF7D4FE08E020001100F7
:101F1000A83002E0200011008830FFF7B8FE2E68DC
:101F2000002E17D02B68B06A996A07F015FE0028BA
:101F300010D1019BF26A1B789A420BDC04D121007C
:101F40003000C231FFF7CBFE366BE9E7002801D045
:101F500000232B600098FEBD24D700002AD7000084
:101F600030D7000036D700000200F8B505000600A3
:101F7000E0321368040001330F001360D335C1361B
:101F8000242923D004D80A290BD00D292BD108E00D
:101F90002A2906D02C2926D10200C03213784B40C2
:101FA00013702B7800200E2B05D8E318C23318705D
:101FB0002000FFF799FED23423782A3F01332370A3
:101FC00000232B707B427B4133701DE023000020F7
:101FD0000222D2332870123B9874D43418705A7489
:101FE0003070207010E02B780D2B04D85A1CE318A9
:101FF000C2332A701F703078002804D1C03423788F
:102000005F40277000E00020F8BD0000F0B514002C
:1020100093B0194B002105001C2203A8029306F07F
:10202000FAFE237802A9002B1FD000236768637093
:102030006421380003F048FD642103F0CBFD380033
:102040000E00642103F0C6FDFA23DB00C9188CB230
:1020500038000A4903F038FDC0B200900849330047
:1020600022000AA807F048FD0AA9280003F0DAFBBD
:10207000280013B0F0BDC0464552520010270000A2
:102080003CD7000030B5050085B04835010004009C
:102090002A0001A8FFF7BAFF2B78002B0AD00023F3
:1020A000E06C6B70642103F095FDFA23DB00C91826
:1020B0008CB201E00124644201A803F06CFB200013
:1020C00005B030BD30B5050085B0483501000400CD
:1020D0002A0001A8FFF79AFF2B78002B0AD00023D3
:1020E000E06C6B70642103F0EFFC642103F072FD7F
:1020F0000C0001E00124644201A803F04CFB200025
:1021000005B030BD30B5050085B04835010004008C
:102110002A0001A8FFF77AFF2B78002B07D00023B5
:10212000E06C6B70064903F0CFFCC4B201E00124FF
:10213000644201A803F02FFB200005B030BDC0466B
:1021400010270000F0B5150093B0184B00210400D3
:102150001C2203A8029306F05EFE2B7802A9002B36
:102160001ED000236E686B701149300003F0ACFC88
:10217000642103F02FFD30000F000E4903F0A4FC92
:102180006421C5B2300003F09FFC642103F022FDFE
:102190003B0000912A0008490AA807F0ADFC0AA9F3
:1021A000200003F03FFB200013B0F0BD4552520069
:1021B0001027000040420F004BD7000030B505004B
:1021C00085B05835010004002A0001A8FFF7BAFFC6
:1021D0002B78002B07D00023E06D6B70064903F0CD
:1021E00073FCC4B201E00124644201A803F0D3FAF5
:1021F000200005B030BDC04640420F0030B505009C
:1022000085B05835010004002A0001A8FFF79AFFA5
:102210002B78002B0AD00023E06D6B70074903F088
:1022200053FC642103F0D6FC0C0001E0012464425D
:1022300001A803F0B0FA200005B030BD102700005F
:1022400030B5050085B05835010004002A0001A80A
:10225000FFF778FF2B78002B0AD00023E06D6B701E
:10226000642103F031FC642103F0B4FC0C0001E0B4
:102270000124644201A803F08EFA200005B030BDAD
:1022800070B51E0088B00D4B0400151C00211C22E7
:1022900001A8009306F0BFFD002E08D0281C06F010
:1022A000E7FA02000B006846054907F025FC69467D
:1022B000200003F0B7FA200008B070BD455252006C
:1022C0005AD700000300002230B5883387B00400DD
:1022D0005A7098681D7806F051FA00220E4B05F0EE
:1022E00025F806F019FB022301930533021C009325
:1022F00021002B0003A8FFF7C3FF039806F0C8FCDA
:1023000004000D0003A803F046FA2000290006F09F
:1023100003FB07B030BDC0460000594030B5040093
:1023200087B01030FFF73CFC06F0F6FA0623257C58
:1023300001930533021C009321002B0003A8FFF733
:102340009FFF039806F0A4FC04000D0003A803F00F
:1023500022FA2000290006F0DFFA07B030BD30B5C0
:10236000040087B01030FFF73FFC06F0D5FA0623D3
:10237000257C0193DB18021C009321002B0003A88D
:10238000FFF77EFF039806F083FC04000D0003A80E
:1023900003F001FA2000290006F0BEFA07B030BDB4
:1023A0000300002230B5A83387B004005A70986843
:1023B0001D7806F0E3F900220E4B04F0B7FF06F09B
:1023C000ABFA012301930533021C009321002B007B
:1023D00003A8FFF755FF039806F05AFC04000D0010
:1023E00003A803F0D8F92000290006F095FA07B0F9
:1023F00030BDC046000059400300002230B578339C
:102400001D785A70031D87B00400D86F06F0B6F926
:1024100000220E4B04F08AFF06F07EFA022301939D
:102420000133021C009321002B0003A8FFF728FFB3
:10243000039806F02DFC04000D0003A803F0ABF98F
:102440002000290006F068FA07B030BD00005940AE
:10245000F8B5124A4B1E9BB207000E0093421CD8DF
:102460000F4C42212000FEF7B5FEFF212000FEF7B1
:10247000B4FD2000FEF718FF0025AE420DDD01225D
:1024800042212000FEF7A1FE2000FEF7A1FDC1B20F
:102490003800FFF769FD0135EFE7F8BD0E270000B2
:1024A0000C04002070B5134D422104002800FEF7F3
:1024B00091FEFD212800FEF790FD2800FEF7F4FEB6
:1024C000022242212800FEF780FE2800FEF780FD50
:1024D00086B22800FEF77CFD3102084381B24B1E14
:1024E000054A9BB20020934203D82000FFF7B0FFBB
:1024F000012070BD0C0400200E27000010B5FFF76E
:10250000D1FF10BD5A2303747047000010B500229C
:10251000017C0348FEF7C4FC0007C00F10BDC04695
:10252000FC03002070B5074C0500017C012220004F
:10253000FEF7B6FCF723297C034001222000FEF7BA
:1025400089FC70BDFC030020808A7047408A704778
:1025500070B5084C05000E000122017C2000FEF73A
:102560009FFC0C2303403343297C01222000FEF70B
:1025700071FC70BDFC03002010B50022017C0348F3
:10258000FEF78EFC0123184010BDC046FC0300205E
:1025900010B50E4C017C2000FEF71CFEFF21200030
:1025A000FEF71BFD11212000FEF717FDE52120009D
:1025B000FEF713FD72212000FEF70FFD8A21200097
:1025C000FEF70BFD2000FEF76FFE10BD0C0400208F
:1025D00070B5134D0400017C20222800FEF760FC3A
:1025E000812801D000201AE02000FFF7D1FF0A2047
:1025F00002F048FE217CF4222800FEF741FC0A206C
:1026000002F040FE2000FFF7B7FF0028EAD12000CB
:10261000FFF788FF20001021FFF79AFF012070BD0F
:10262000FC030020F0B5002485B0009002910392D5
:102630000193019B9C422BD21B1B1A1CDBB2202B4B
:1026400000D92022134D009B2800197CD7B2FEF739
:10265000C1FD029B2800E118C9B2FEF7BEFC2800AC
:10266000FEF722FE009B3A00197C2800FEF7ADFD24
:102670000026A519EDB2BE4202DBE419E4B2D8E7A8
:10268000039B04485D19FEF7A3FC01362870F0E7B0
:1026900005B0F0BD0C04002013B508236A460221E2
:1026A0000400FFF7BFFF6B466A461B7852781B0297
:1026B000134363826B466A469B78D2781B021343AE
:1026C000A3826B4601205B79984316BDF8B50F00D5
:1026D0001E001500084C017C2000FEF77BFD390030
:1026E0002000FEF77AFC320029002000FEF758FC9B
:1026F0002000FEF7D9FDF8BD0C040020F0B585B030
:1027000001900F1C101C1E49161C03F0A3FB00288F
:1027100033D11C49301C03F0B1FB00282DD11A49DC
:10272000381C03F0ABFB002827D10021381C03F034
:10273000A5FB051E21D11549381C03F0C7FF03F086
:1027400001FCFA21FA30490003F0BEF903AC0F494D
:102750002070301C657003F0B9FF03F0F3FBFA2121
:102760000B4B4900C01803F0AFF90423A0702200FE
:1027700005210198E570FFF7A9FF05B0F0BDC0463F
:102780000000C8C1000048420000C84200007A446E
:10279000A262000070B5002504AC24780573A9423C
:1027A00005D10A4B0A4A23210A4806F051FA016072
:1027B0000949920052589B0002715B588371A30033
:1027C0005B58856043710223C37170BDBED70000A2
:1027D00081D70000CCD70000E0E20000037B002B93
:1027E00004D14373837303610133037370470000A3
:1027F0001FB50191A02100240068C900D2B2445045
:10280000012A07D0A24203D0032A05D1042202E004
:10281000022200E006221343034A8350034B019A2D
:10282000C250012343501FBD540500002405000081
:1028300010B50400FFF7D2FFA1222368A179D200CE
:1028400099506179064A20009950217904329950B3
:10285000044B19685A689B68FFF7CAFF10BDC04651
:102860000C050000C40400201FB5FFF7C1FF05B030
:1028700000BD70470368074A99501A00FC32D168BE
:102880000029FCD0A321C90058580023C0B2D3604E
:102890007047C0461C05000007B58022074BD205D3
:1028A0001A6000229A6002321A710F230C320093D0
:1028B0000349023B0348FFF76DFF07BDC404002036
:1028C00000300040D004002013B56B460268D97177
:1028D0000733546819000122A04716BD10B5040043
:1028E000006A002803D101230020636008E0002370
:1028F00092B2436000F02CFF236A5B68002BF2D198
:1029000010BD036A10B5181E01D001F009F810BD02
:10291000006A10B5002802D0012100F099FD10BD19
:1029200013B56B46DC1D0122210000F0B7FC012825
:1029300001D1207800E0014800B216BDFFFF000081
:10294000006A10B5002802D0FFF7EAFF01E001207D
:10295000404210BD70B50500006A031E0BD0FFF7A2
:10296000DFFF04000300421C05D0286A0369591EDA
:1029700000F03CFD2300180070BD0000F8B5FA23FC
:1029800000259B0083600D4B040008334560036005
:1029900028200F00160006F0FDF92062A8420AD098
:1029A0002822390006F019FA20000C2231001030DC
:1029B00007F0FDF825772000F8BDC04624D80000B8
:1029C000FA22002392008260034A436008320260C8
:1029D000036203747047C04624D80000036A002BCA
:1029E00001D0186901E0012040427047036A181EB7
:1029F00000D0D8697047000070B50500006A002853
:102A00000BD02800FFF7F2FF04002800FFF7E6FFD5
:102A1000024B201A984200D9180070BDFF7F0000B9
:102A200010B50400006A002806D000F055FD206AA9
:102A300006F0BAF90023236210BD036A181E03D002
:102A4000587A431E9841C0B2704770B50122040005
:102A50000D0001F049F902000120002A03D12900EC
:102A6000200001F041F970BD030070B541331B78BF
:102A700004000D00002B02D0383000F02DFD2A009C
:102A80000121200000F0A8F9002801D100200FE06A
:102A90002500103521002800FFF7D7FF0028F5D0CA
:102AA00020002900383000F0CFFB431E9841C0B20F
:102AB00070BD00004B6843600A4B03600B7A0372E1
:102AC0004B7A4372CB68C3600B6903614B69436106
:102AD0000B7E0376CB69C3610B6A03624B6A436268
:102AE0007047C04664D80000F0B59DB00393002342
:102AF00008AC029212AE284A07006360736010317E
:102B00002000089263721292737200F09DFB029D86
:102B10002F21280007F012F8002831D02B782F2B16
:102B200007D1330026001C000135230034001E00AD
:102B3000EEE7401BC0B2031C0C2800D90C23DBB20B
:102B40001A00290004A8019307F031F80023019925
:102B500004AA3000535400F0BFFC012304AA210052
:102B6000300000F059FD002804D10B4B78603B6029
:102B700078720DE0019B2000ED1800F0ADFCD4E769
:102B8000029B2100ED1A039B38001D60FFF792FFA6
:102B900038001DB0F0BDC04664D80000F0B5140088
:102BA000A3B004AE0193070003AB3000FFF79CFF16
:102BB000039BE4182378002B05D1310018A8FFF7F8
:102BC00079FF174A25E000230EAD6B60154A6B7242
:102BD000737A0E92002B03D13800FFF7F1FE1CE050
:102BE000019B22003100280000F016FD0028F3D0E0
:102BF000300000F071FC0623019A1A40062A03D126
:102C00001599280000F0F2FB290018A8FFF752FFE1
:102C1000220018A93800FFF7B1FE380023B0F0BD3C
:102C200048D8000064D800000221084B0022196136
:102C3000190030310A7006495A719A719A721A73E2
:102C4000DA63996341331A707047C046E404002088
:102C500064D8000010B501000148FFF70BFE10BD5D
:102C6000D004002010B5FF210148FFF703FE10BD7E
:102C7000D004002010B50121007902F047FB054B7C
:102C80001A78002A04D0002203481A70FFF7F1FDD9
:102C900010BDC04654050020D004002010B5094BDB
:102CA00004001A78002A08D101321A70064B07482E
:102CB00019685A689B68FFF7D7FD2079002102F058
:102CC00025FB10BD5405002048050020D00400203D
:102CD00010B583790400002B0DD023895A1C228162
:102CE000054A934202D8FFF7BDFFF6E72000FFF741
:102CF000C1FF0023A37110BD0102000000B5062929
:102D000003D91623437100201FE0104B052914D866
:102D100008000222802102F0CDFE030507090B0DF9
:102D2000090608E0C90506E0890504E0490502E056
:102D3000090500E0C904196003E0802292041A60CA
:102D400002221A71002201209A6000BD480500206D
:102D500070B50C0002F07EFA0500FFF783FFFF2834
:102D600006D002F077FA401BA042F6D3002000E024
:102D7000012070BDF8B505000E001700FFF7A8FF91
:102D80002800FFF78BFF962128004900FFF7E0FF9E
:102D900040203043FFF75EFF18243800E040083C35
:102DA000C0B2FFF757FF23000833F6D19520002E5D
:102DB00003D06A30082E00D17838FFF74BFF00248B
:102DC000FFF750FF43B2E872002B04DAFF2C02D069
:102DD0000134E4B2F4E7F8BDF7B5002502710573DC
:102DE0008572857145710400019102F033FA012169
:102DF0000090207902F064FA0121207902F086FA2D
:102E0000454E3000FFF714FD02228021434BC904D8
:102E10001A719D6019605A6830002B00FFF724FD7D
:102E20000A35013DFF20EDB2FFF714FF002DF8D168
:102E30003000FFF71EFDFA272000FFF72FFFFF00ED
:102E4000002220001100FFF795FF061EE072012E00
:102E500007D002F0FFF9009BC01AB842F0D9012355
:102E60003CE0D522082152002000FFF783FF042315
:102E7000184201D026730BE01E00FFF7F3FE013E5F
:102E8000F6B2E072002EF8D10223AA2826D12373CD
:102E9000267BFA27023E73425E41FF00B6070022FE
:102EA00037212000FFF766FF320029212000FFF7BD
:102EB00061FF021EE07207D002F0CCF9009BC01A3D
:102EC000B842ECD9082309E0237B022B19D13A211F
:102ED0002000FFF74FFF002805D006236371200074
:102EE000FFF7C8FE15E0FFF7BDFEC023184098426B
:102EF00001D1BD3B2373FFF7B5FEFFF7B3FEFFF72C
:102F0000B1FE2000FFF7B6FE01992000FFF7F6FEA4
:102F100005002800FEBDC046D00400204805002062
:102F200070B5040002F096F9962506006D00FFF7D3
:102F300099FE031EE072FF2B06D102F08BF9801B75
:102F4000A842F4D90F2303E00120FE2B05D00D2366
:102F500020006371FFF78EFE002070BDF8B51500EC
:102F60001E009A18802304009B009A4241DC83795A
:102F7000002B05D003688B4202D10389AB4216D9DE
:102F8000237B2160032B00D049020A00200011217D
:102F9000FFF7F0FE071E02D00323637129E0200033
:102FA000FFF7BEFF002824D001232781A3712389C6
:102FB000AB4205D2FFF756FE238901332381F6E7A2
:102FC000069DAF19BD4204D0FFF74CFE28700135B5
:102FD000F8E72389A27AF3189BB22381002A03D051
:102FE000064A0120934208D92000FFF771FE012014
:102FF00003E02000FFF73EFE0020F8BDFF010000C7
:1030000013B504000120002B04D004980090200088
:10301000FFF7A4FF16BD802307B59B000092002296
:10302000FFF79CFF0EBD70B5050008001400FFF708
:1030300011FE80239B00E61820780134FFF70AFE7A
:10304000B442F9D1FF20FFF705FEFF20FFF702FE93
:10305000FFF708FE1F23E87203400120052B05D06F
:10306000112328006B71FFF705FE002070BDF8B535
:103070001D0004001600122300292DD0037B032B12
:1030800000D049020A0020001821FFF773FE042334
:10309000071E21D13200FE212000FFF7C4FF0028C7
:1030A0001BD0002D04D12000FFF7E4FD012018E023
:1030B000962120008900FFF74BFE152300280BD036
:1030C0003A000D212000FFF755FE002803D1FFF73D
:1030D000C9FD0028E7D0142363712000FFF7CAFD63
:1030E0000020F8BD70B50500FFF7D8FDFFF7BAFD69
:1030F00004002800FF3CFFF7BDFD601E8441E0B2E4
:1031000070BD00008022044BD2051A6000229A6034
:1031100002321A717047C04648050020020010B5FF
:103120000C3204000121406A00F056FD00280ED048
:10313000236A002B06D18022E36852422362237A5D
:103140001343237220220120237A1343237210BDDC
:1031500070B50400FFF7E2FF002801D100201BE05A
:10316000626AE368117C023B8B40516915795E18F5
:10317000002D08D0701E401900F078FC0028EDD01A
:10318000013DEDB2F4E7636A01201A7C80239B00C5
:103190009340E269D318E36170BD000010B50400EC
:1031A000406900F03DFC002803D0207E014B400127
:1031B000C01810BD640500200A00F0B50B000E0019
:1031C0000700202187B00B32197001339A42FBD1DE
:1031D0000723002501933C78002C2AD02E2C07D100
:1031E000019B0A2B2BD00A23082501930137F2E714
:1031F0001022144902A805F0F0FD002302AAD25CB7
:10320000002A03D001339442F8D118E0019BAB426D
:1032100015D32300213B5D2B11D822006B1C613A92
:10322000DBB27519192A01D8203CE4B22C701D00BC
:10323000DCE730782038431E9841C0B200E000201F
:1032400007B0F0BD4AD8000070B5427A04000D0006
:10325000002A01D000201FE04B1CDB7F102B06D181
:103260000E3B43724B8C02625B01C3610CE0202B6E
:10327000F0D102001D3B4372496A1C3201622800F2
:1032800000F042FC0028E5D0002301206562207296
:10329000E36023616361237670BD0000F0B5437A7B
:1032A00085B004000F000392002B01D139486EE075
:1032B000037ADB07FAD50269C3699B1A039A9A421B
:1032C00001D99BB20393039B0293029B002B39D03D
:1032D0002269637AD605F60D606A550A022B01D180
:1032E000406A1AE00379013B1D40EDB2002E0DD17A
:1032F000002D0BD1002A02D1236AE36006E02200F0
:10330000E1680C3200F0D0FB0028CFD0636AE2689D
:10331000901E1A7C5B699040C01880234019029D62
:103320009B009B1B9D4200DD9DB24022237A1342ED
:1033300003D180239B009D4219D1174B1B689842F3
:1033400003D114E06B46988921E0010013480097EF
:103350002B0032000068FFF753FE0028A6D0236937
:103360007F195B192361029B5D1BABB2ACE70021A7
:1033700000F056FB002899D03A00094B9E197119AC
:10338000B142ECD03378013613700132F8E700B265
:1033900005B0F0BDFFFF0000080000206005002020
:1033A0006405002073B5437A0500012B01D8002085
:1033B00016E003690122DC056B46DE1D3100240F97
:1033C000FFF76CFF012801D1337800E0054B1BB2F9
:1033D0000133ECD02B6960011F332B61024BC01805
:1033E00076BDC046FFFF00006405002070B5437A3B
:1033F00004000E00002B01D1002028E0C2698A429F
:10340000FAD3022B02D0002E03D1E6602661012000
:103410001DE0636A2069197C421E0931731ECA408F
:10342000CB409A4201D8002803D1226AE2601D00F5
:103430000AE09B1AFBE72200E1680C32606A00F0A8
:1034400033FB013D0028D7D0002DF4D1DEE770BD5D
:1034500070B5437A05000E00002B01D1002038E042
:10346000037A7F2B2CD90121FFF798FE041EF5D09B
:103470006B7A012B07D82B7F03776B7F4377AB7F6A
:103480008377EB7FC3772B6A9AB21B0C23751B0AD9
:103490006375104BA2761B68120AE276002B0BD0E4
:1034A00021002000163118309847637E227E1B02CF
:1034B0001343A3741B0AE3747F232A7A13402B72ED
:1034C000002E03D110222B7A93432B72300000F090
:1034D00081FA70BD5805002010B501210400FFF7E6
:1034E000B7FF002802D000230120637210BD000046
:1034F00073B50400407A0D0001280ED1237A9B0792
:103500000BD5E3698B4208D3002B42D02900200061
:103510002669FFF76BFF002801D1002039E0002D5C
:1035200007D1216A606A00F0B9FB0028F5D0256256
:103530001CE001AAE168606A00F0B6FA0028ECD04D
:10354000606A0199431CDB7F102B01D0114B00E016
:10355000114B99420AD200F0A1FB0028DDD00F4A9E
:10356000E168606A00F0F4FA0028D6D08022237A5D
:1035700052421343E561237201212000FFF768FFE7
:103580000028CAD0291EB14200D931002000FFF71F
:103590002DFF76BDF8FFFF0FF8FF0000FFFFFF0FC4
:1035A0001B4B70B515004A01D31811220400D87ABC
:1035B000104204D03132154201D0002027E0154AD4
:1035C000217612686261998A5A8B09041143182284
:1035D0002162D87A024003D1DB69E361012309E06B
:1035E000102AEAD12200606A1C3200F08DFA00280D
:1035F000E3D0042363720F2300212B402372E16088
:10360000216101206B0602D52000FFF771FF70BD1C
:103610006405002008000020F0B50500447A002071
:1036200087B00E001F00844200D089E003A910007B
:10363000FFF7C2FD002801D1002081E0736A6B62B0
:10364000F46034613369F269934226D20F225B0938
:103650001A4030000192FFF7A5FE011EECD003785E
:10366000002B0ED0E52B67D00B2203A805F0A6FB9C
:103670000028E7D130233B40302BDDD03A000199C0
:1036800056E0002C08D16B461B792B762D4B1B681E
:103690006B610B78002B51D1012412233B40122B7C
:1036A000CAD1002C06D001212800FFF777FD041EA7
:1036B0000AD1C1E7737A022BBED03000FFF748FD74
:1036C0000028B9D02C76204C20220021200005F0C3
:1036D000A2FB0B2203A9200005F07FFB1B4B1B68FC
:1036E000002B05D0210020000E311030984706E055
:1036F0002122A3730823227407326274E373637C6C
:10370000227C1B021343FF221A401B0AE3746376D8
:10371000E37BA2742276A27B1B021343A3751B0AD0
:10372000E375012000F056F9002885D03A00297E83
:103730002800FFF735FF03E0002CA4D0012481E727
:1037400007B0F0BD080000206405002058050020E7
:10375000F0B5437A87B004000F000392012B0FD11C
:10376000037A02939B070BD5029B5B070CD5E1699B
:1037700023698B4208D02000FFF738FE002803D1D0
:10378000012300206360B0E0039B00933FE0606A88
:10379000530A0679D205013E1E40F6B2D30D0193BD
:1037A000002E39D08023019A9B009B1A6A46158807
:1037B000009A9BB29A4200D91D1C626AE368117C90
:1037C000023B8B405269ADB29B189E1980239B002F
:1037D0009D4243D1464B1A68964202D10122524281
:1037E0001A60029B43481A09012331009343006881
:1037F0003A00FFF73CFC0028C2D080239B00FF1852
:10380000009B5B1B9BB2009323695D192561009BA4
:103810002269002BBBD14AE0002BC3D1E16800290B
:1038200004D1236A002B11D0E360BBE705AA00F0A6
:103830003BF9002859D0636A059A0133DB7F102BCE
:1038400001D02D4B00E02D4B9A4205D32000FFF70D
:1038500065FC0028A6D193E7E260A3E7019B002B5B
:1038600010D12369E26993420CD3012000F0B2F831
:10387000002885D001211E4B214A1E6013780B437E
:10388000137006E00121300000F0CAF8002800D1D2
:1038900076E73A001B4B01995B185819984204D0FF
:1038A0001178013219700133F8E77F19A8E7E1694F
:1038B000237A8A4201D9E26106E0134A1268002A9B
:1038C00006D0039A002A03D0802252421343237267
:1038D000237A1B0701D4039807E001212000FFF79A
:1038E000B7FD002800D14BE7F5E707B0F0BDC046B3
:1038F0000800002060050020F8FFFF0FF8FF00001F
:1039000064070020640500205805002007B56B46B9
:10391000D971073301221900FFF71AFF0EBD00000D
:10392000F8B5437A0500012B01D0002034E0037A7A
:103930009A07FAD55B0703D5E9692B698B4206D153
:10394000164B1868FFF7CEFB002806D0EDE72800DD
:10395000FFF74CFD0028F3D1E7E72B7A20271C0066
:103960003C4007D001002800FFF772FD2B7ABB43D3
:103970002B72DAE70A4A1268002A03D0200000F00E
:1039800011F8D2E7102213432B72802328699B0081
:10399000C005C00D181A80B2F8BDC04660050020F1
:1039A0005C05002010B5084C0300216801200029A7
:1039B00009D00648064A0068FFF759FB002802D0E4
:1039C00000230120236010BD5C050020600500205D
:1039D0006405002070B50E4D04002B78002B14D028
:1039E00003000C490C480D4A09680068FFF73FFBCB
:1039F000002801D1002009E0002C06D02000FFF7AC
:103A0000D1FF0028F6D000232B70012070BDC046E6
:103A100064070020080000206005002064050020E5
:103A200070B50E4E040033680D0083420FD00120A4
:103A3000FFF7D0FF002801D100200DE0084B094A14
:103A400021001868FFF7E7FA0028F5D0346001205C
:103A5000054B19782943197070BDC0460800002035
:103A600060050020640500206407002010B50400F4
:103A70000120FFF7AFFF00280FD00023802218009D
:103A800006499200585401339342FBD10120044B64
:103A9000044A1C6013780343137010BD64050020B2
:103AA0000800002064070020C36870B501330C00D3
:103AB00016008B4201D2002021E0451CEA7FC36939
:103AC000C809102A00D1080AC0180D4B1B6898427B
:103AD00007D1EB7F0B4A102B09D1E4B26400135BD2
:103AE0000BE00021FFF79CFF0028F2D1E3E77F23E2
:103AF0001C40A40013591B011B090120336070BD39
:103B00000800002064050020F7B580270500160096
:103B100000240191BF0001AA01992800FFF7C4FF0A
:103B200000280FD03A002B7C9A406B1CDB7FA41836
:103B3000019A102B01D0044B00E0044B9A42EAD3C7
:103B400001203460FEBDC046F8FFFF0FF8FF000003
:103B5000F7B506000C1E0192012C01D8002032E0BE
:103B6000C36801339942F9D8471CFA7FC569CB096C
:103B7000102A00D10B0AED18134B1B689D4209D186
:103B8000FB7F124A102B0CD16B46E4B29B88640079
:103B900013530BE000212800FFF742FF0028EFD16C
:103BA000DCE77F231C40019BA4001351012308493B
:103BB00018000A781A430A70327E9A4203D9B26812
:103BC0005519044A1560FEBD080000206405002058
:103BD000640700205C050020F0B5146887B006007B
:103BE00002911700002C02D00134002305E0029B53
:103BF0000468013B59425941CBB20193F368250057
:103C00000133039300230093009BF268934221D277
:103C1000039B9D4201D902252C0005AA29003000F2
:103C2000FFF742FF002815D0059A6B1C002A01D02F
:103C30001C0003E002991A1B914204D0009A1D0057
:103C400001320092E0E7144A29003000FFF780FFBC
:103C500000280BD100201DE06B1E2A001900300047
:103C60000093FFF775FF0028F4D0009DAC42F3D31A
:103C70003968002906D1019B3C60002B09D0013432
:103C8000346006E022003000FFF762FF0028F2D126
:103C9000E0E7012007B0F0BDFFFFFF0F022337B5BB
:103CA00005000C00036001AA21002800FFF7FCFEBC
:103CB000002812D0002221002800FFF749FF002829
:103CC0000BD06B1CDB7F019C102B01D0044B00E060
:103CD000044B9C42E7D3012000E000203EBDC046DB
:103CE000F8FFFF0FF8FF0000F8B53F4B0500141E6A
:103CF000196020D0042A01D9002074E000210800B6
:103D0000FFF78EFE0028F7D0631E384A1B01D31838
:103D1000BF33FF331B785B06EED11B34240113192C
:103D20009A89598912040A43632AE5D91C89DA88D9
:103D300024041443E0D000212000FFF771FE002886
:103D4000DAD02A4B1A7BD97A12020A4380218900E1
:103D50008A42D1D1197C0029CED0DA89002ACBD071
:103D60005A7B002AC8D02976002101202A712974A3
:103D700001002E7CB1408A4204D0711C2974072EA8
:103D8000F6D9B9E7D98A002900D1596AA960D8893A
:103D90000019E8611A691202120C6A8497B21A7C3F
:103DA0007F015143124A0818BF187F126862381801
:103DB00068611A7DD97C12020A4300D11A6A241A5A
:103DC000A418F4400B49EC606A1C8C4201D80C2307
:103DD00007E009498C4201D8102302E0DB6A6B62DC
:103DE00020230120D377F8BD600500206405002062
:103DF000FF010000F40F0000F4FF0000F0B5150013
:103E00000C001E0089B00EAB00229B5E0FAA128828
:103E1000019006925A1BD11752184A400292321B47
:103E2000D11752184A4003920399029A8A4205DD3B
:103E300032001E00130022002C001500B44205DDE4
:103E40002A001D001300220034001600321B92B21B
:103E500005925A1BD11752184A4007926A461421FC
:103E6000525ED10F8A18521092B20092012204922F
:103E70009D4201DB154B0493B44224DC019B029A62
:103E80001B6803991B691F00069B8A4202DD220002
:103E9000290001E02A0021000198B847009A079BF9
:103EA000D31A9BB29AB200926A46128812B2002AC2
:103EB00006DA049AAD18059A2DB2D3189BB2009376
:103EC000013424B2D8E709B0F0BDC046FFFF0000BE
:103ED00010B50468A468A04710BD37B506AC2588A6
:103EE00004680095246BA04737BD37B506AC25881C
:103EF00004680095646BA04737BD73B506AC002518
:103F0000655F07AC2688046801960095A46BA047FE
:103F100073BD7047F0B5160004000D0085B0039323
:103F20000AAB1F880368DB689847039B2268013B44
:103F30009B191BB200930197176A2B0032002900CE
:103F40002000B847236820005B6A984705B0F0BDA1
:103F5000F0B505001C000E00170085B00AAB1B88E9
:103F6000013C03930368A419DB68984703992A6806
:103F70000191009723B23100146A28003A00A0474B
:103F80002B6828005B6A984705B0F0BDF0B50E00BD
:103F900087B003930CAB029200229B5E0500049352
:103FA0000DAB1B88340005930368DB689847039BBF
:103FB0002A68F3189C420ADA059B2100009397694E
:103FC000049B029A28000134B84724B2EFE7536AF1
:103FD0002800984707B0F0BD13B501910E24015F8A
:103FE0000C22835E02680091946B00221100A047AE
:103FF00013BDF0B585B002930AAB00241C5F0BAB78
:104000001B8817000393029B05000E1E02689E4248
:104010000BD1A74202DD3B0027001C0003990134AD
:10402000E31B00911BB2146B0DE0A74210D1029B61
:10403000994201DD029E0291029B03990133009196
:104040009B1B546B1BB23A0031002800A0470FE0C5
:10405000D3689847039A2B68019200941C6A280041
:10406000029B3A003100A0472B6828005B6A984702
:1040700005B0F0BDF0B5040016000D0087B0049344
:104080000CAB00229B5E05930DAB1B88039303686A
:10409000DB689847039A23680092DF693200049B2B
:1040A00029002000B847059B03995A1E23680091F8
:1040B0009219DF692900049B200012B2B847039AC5
:1040C000236800929F693200059B29002000B847B1
:1040D0000499039A2368013900924D1929B29F6906
:1040E0003200059B2000B847236820005B6A984790
:1040F00007B0F0BD70470323194041760389428918
:10410000012904D0032902D08381C28101E0828188
:10411000C381704701818181012100234281C281D5
:10412000012210B5074C49420834436004604376CD
:10413000038243820276C18281828276C376C36122
:1041400010BDC0466CD80000F0B500278DB00993B3
:1041500012AB049200229B5E0891059313AB0022E0
:104160009B5E04000A9314AB1B883D000B9303680D
:10417000DB6898470721059B06910733DA170A4049
:10418000D318DB100793049B01936B46049A9B881A
:1041900003939B1A0A9A1BB29A422BDD00230293C7
:1041A0006B461989059A0BB293421CDA069A6D0088
:1041B000EDB2114207D10698DA170240D318099AD6
:1041C000DB10D219D55C6BB2002B09DA089B019A7F
:1041D000C918236809B21B6920001E000B9BB04759
:1041E000029B0133DBE7039B01331BB20193079B67
:1041F000FF18CAE7236820005B6A98470DB0F0BD3E
:104200007FB508AC0025645F09AD0026AD5F0AAE3E
:104210003688019502960094FFF796FF7FBD000057
:10422000F0B597B01D001CAB1B88040004931DABB8
:104230001B88089105931EAB1E78C3690392002B5F
:1042400000D0C3E00C22835E8B4200DC6EE10E22C4
:10425000835E039A934200DC68E1062373435B1894
:10426000002B00DC62E1039AF3009B18002B00DCBA
:104270005CE1C37E002B03D1AF2D01D90135EDB236
:1042800023682000DB68984705235D430F930023D4
:104290000C936B469B891195099308339BB212933B
:1042A00030226B469B181B78A14A11995BB25218B9
:1042B000D25C9BB20A93B3B207936B461B8C0B92F2
:1042C00006930A9BB2B25343069A099DD3189BB238
:1042D00010930D950E9501220B9B134216D096421A
:1042E00008D10A9B06992AB25918236809B21F6996
:1042F000049B19E06A4640203821525E694609183D
:104300000020095E33002068049F1BE0049B059A8F
:1043100093421CD0012E0AD10A9B06992AB2591841
:10432000236809B21F69059B2000B8470FE06A4661
:1043300040203421525E6946330009180020095E8E
:10434000059F20680197009347692000B847079AA6
:104350000B9B94465B080B930E9B013563449BB209
:104360000E930D9BADB263449BB20D93129BAB4277
:10437000B1D10C9B0133DBB20C930F9B013BDBB241
:104380000F93002B8CD1049B059A934200D1C9E076
:104390002068012E09D1069900920531856909B27C
:1043A0000823039A2000A847BCE00521079A33B2EE
:1043B0005143069A5118059A09B20192079AD20000
:1043C00000924569039A2000A847ABE01A7AAD1A1B
:1043D000EDB25A68ED001B68AD1812932B88079355
:1043E000AB780993EB7813936B790D93AB790E93BC
:1043F000012E0DD934226B4600259B185D576B4664
:1044000004329B181B78ADB25BB29BB20B9302E0F7
:1044100000231D000B9323682000DB689847B3B28C
:104420000F936B461B8C0C93B3B25D430C9B5D19D1
:10443000ABB200251193099B06950593059A099B3C
:104440001399D31AEAB2DBB28A426BD26A469289D6
:104450000F9910920B9AAA184A4310998A1892B28F
:10446000342115926A46521812780C9952B28A1861
:1044700092B20892119A0A92059A9A424AD05A1C0C
:10448000D2B214920722134207D1079B0799129ABE
:104490000133525C9BB2069207936B461B7E5BB264
:1044A000002B27DA012E14D16B4638229B180022EC
:1044B0009A56109B20009A18FF232B409A186B469F
:1044C0002021595E236812B21B691F00049BB84764
:1044D00010E054216A4652180021525E6946049F3A
:1044E0002820095E20680197009640693300070084
:1044F0002000B8470F9A069B94465B00DBB20693F8
:104500000A9B63449BB20A93089B01339BB20893B6
:10451000149BB1E7059A099B0135D318DBB20593CB
:10452000ADB28BE7236820005B6A984717B0F0BDF7
:10453000BCD80000F0B5C26985B004000B00002AA9
:1045400028D10A2903D1037E0282DB0029E00D294C
:1045500065D0817E007E00290DD01021655E062188
:10456000414369180C26A55FA94204DD618A2282B5
:10457000C2008A1862820290E08A1221625E019073
:10458000A08A1025615F00902000FFF749FE237E7E
:10459000062240E00A2908D100230382927A037E92
:1045A0005343628A9B18638239E00D2937D0157A0C
:1045B000A94234D3517A994231D351685D1BED0041
:1045C0006D18A978002924D0E878002821D0A67E8B
:1045D000207E002E11D00526AE57711841431027BA
:1045E000E65F89190C27E65FB14206DD00212182D2
:1045F000927A618A4243521862820290E08A1221C2
:10460000625E0190A08A1026A15F00902000FFF753
:1046100007FE2B79227E5343228A9B182382012096
:1046200005B0F0BD0182428270470123002900D00D
:104630000B0003767047C18281827047407E7047CD
:104640000C23C05E70470E23C05E7047F8B50600AD
:104650000D0014001F00002969DBFFF7F1FF854200
:1046600065DA002C63DB3000FFF7EDFF84425EDA91
:104670003000FFF7E3FF022807D13389013B5D1BC0
:1046800073892DB2013B1C1B0AE0032843D165400E
:10469000ADB26C40A3B274895D40013C2DB2E41A06
:1046A00024B2012F14D0002F23D0022F3FD1072195
:1046B000E3170B401B190820325EDB1053435D19D2
:1046C000B36A0C405D190123A3402A78534020E0CF
:1046D0000721E3170B401B190C40A7400820325E4E
:1046E000DB1053435D19B36A5D192B781F432F709C
:1046F0001DE00721E3170B401B190820325EDB1079
:10470000534301220C40A2405D19B36A5D192B7816
:1047100093432B700BE00128C3D16540ADB26C40D0
:10472000338924B2013B65405D1B2DB2B9E7F8BD6A
:1047300070B504000D0040228021FFF7EBFC0E4B0A
:104740002100083323600D4B00226362FF232F31C9
:104750002262A2620B704B708B70CB7023003333DC
:104760001D708023DB0563652300E265543302324C
:1047700020001A7170BDC046D4DD00000C0400207A
:10478000054B10B5083304000360806A002801D08F
:1047900004F00AFB200010BDD4DD0000F8B50400D1
:1047A000406A0D00002812D023002C331978FCF742
:1047B00011FD606A002103681B689847606A290040
:1047C00003681B689847606AFCF76EFD24E0E26BA3
:1047D000E16C1368206A8B431360002803D0290022
:1047E000FEF748F818E008208026A36B626B616C26
:1047F00017682E4201D0394301E08F433900116020
:104800001A68A16C01380A431A601A68A16C76080C
:104810008A431A600028E9D1F8BD70B50400406AE7
:104820000D00002803D0216EFCF74CFC0CE0206A40
:10483000002804D0616DA26DE36DFEF715F8226CBF
:10484000216D13688B43136029004D1EA941200080
:10485000A631FFF7A3FF606A002803D0616EFCF762
:1048600031FC09E0226C216D1368206A0B43136050
:10487000002801D0FDF7FDFF70BDF7B50400406AC8
:104880008B180D000193002829D027002C37397888
:10489000FCF7A0FC606A0021036801261B689847AA
:1048A000019BAB4217D03E2E0CD9606AFCF7FCFC92
:1048B0003978606AFCF78EFC606A00210368012683
:1048C0001B689847606A2978036801361B68984717
:1048D000F6B20135E4E7606AFCF7E6FC2EE0E26B35
:1048E000E16C13688B431360019B9D4226D02B78AB
:1048F000206A0093002804D01900FDF7BBFF0135A2
:10490000F2E708208026A36B676C626B0099BC46B7
:1049100017680E4202D061460F4301E061468F43A3
:1049200017601A68A16C01380A431A601A68A16CF2
:1049300076088A431A600028E6D1E0E7F7BD10B593
:104940000A22835E07220733D9170A40D3180821A9
:10495000425EDB105A43806A002104F05CFA10BD0D
:10496000F0B589B005930EAB1B7804000693836AFB
:104970000F001600002B10D10A22835E0722073396
:10498000D8171040C3180822A05EDB10584304F06B
:1049900001FAA062031E00D170E12000FFF7CFFFF3
:1049A0000A23E25E0823E15E202A11DD403AD30F9C
:1049B00052399A18CB0F5918012302933F335210E2
:1049C000491001931233009312B209B2AD4B10E0BB
:1049D000203AD30F73399A18CB0F59180123029339
:1049E0001F3301935333521049100093A64B12B258
:1049F00009B2250020002D35FFF702FC2F70606AF8
:104A0000002812D0F3B2002E05D10A22A35E203B6B
:104A10005A1E93413C3322002C321370069B002B0C
:104A200000D126E1FCF712FB80E02700002031379F
:104A300038560121260000F043FC002032360121C7
:104A4000305600F03DFC0023FB5690499B005A581D
:104A50000F00930601D58E4B01E0A023DB05A121B9
:104A6000C9005B18E3631F2301211A409140002213
:104A7000E164B2569200B9588A0601D5844A01E031
:104A8000A022D205A1200126C00010182064300009
:104A90000B409840A1212065C90053580343206A68
:104AA0005350002805D0069B002B3FD0FDF7C0FED9
:104AB0003CE0230000202F3306931856310000F00D
:104AC000FFFB23000020303307931856310000F01D
:104AD000F7FB069B1B785BB29B00FA58930601D547
:104AE0006B4B01E0A023DB05A121C9005B186363C8
:104AF0001F2301211A409140079A6164127852B233
:104B00009200B9588A0601D5614A01E0A022D20577
:104B10000B400121A1209940C0001018A063A120E2
:104B20000B00A164C000115899431150059B002B44
:104B30001DD02600002033363056002817DB012117
:104B400000F0BEFB00200121305600F0DFFB012009
:104B500000F098FB00200021305600F0D7FB0A201F
:104B600000F090FB00200121305600F0CFFB606A7E
:104B7000002803D0216EFCF7A5FA0CE0206A00287B
:104B800004D0616DA26DE36DFDF76EFE226C216DA8
:104B900013688B43136004223E492000FFF76DFE2B
:104BA000618920000139C9B2FFF7F8FD3A490422B2
:104BB0002000FFF762FE0023EB561421012B00D1E9
:104BC00004392000FFF7EAFD042234492000FFF7F2
:104BD00054FEA368324A934205D104223149200091
:104BE000FFF74BFE1FE0304A93420BD12F490322BF
:104BF0002000FFF742FE0023EB56CF21012B0FD1FF
:104C000030390DE02A4A93420DD12A49032220006F
:104C1000FFF733FE0023EB56AF21012B00D19F3964
:104C20002000FFF7BBFDD9212000FFF7B7FD0023CF
:104C3000EB56F121012B00D1CF392000FFF7AEFD5B
:104C4000200006221C49FFF718FE606A002803D0E6
:104C5000616EFCF737FA0AE0226C216D1368206A56
:104C60000B4313600123002808D0FDF702FE012347
:104C700004E0059B002B00D17CE75AE7180009B03F
:104C8000F0BDC0461DE000002BDE0000E0E20000A9
:104C9000000300500BE000000FE0000013E00000F4
:104CA0008000200024DE00008000400028DE00009C
:104CB00060001000DDE2000017E00000F0B5150014
:104CC00005AA1788002D42DB0A24025FAA423EDDB6
:104CD000002902DA59180BB2002104895E1822B2A9
:104CE000964201DD631A1BB2002B30DD0726EC175C
:104CF00034406419E41062435118826A012035403F
:104D0000A8405218C0B2012F04D0002F0BD0022FA0
:104D100014D01CE0013B1BB2591C18D01178014380
:104D200011700132F6E7C043C0B2013B1BB2591CFF
:104D30000DD01178014011700132F6E7013B1BB232
:104D4000591C04D01178414011700132F6E7F0BDD2
:104D5000F0B505AC2588002900DA83E00824065F59
:104D6000B14200DB7EE0002A02DA9B1800221BB26F
:104D7000448927B2BC46D718674501DDA31A1BB288
:104D8000002B6FDDD2B2DCB2D30873435918836AAB
:104D9000591807231A4024D001339A1A324BD2B241
:104DA0009B5C94420AD2FF26171B3E413340012DE3
:104DB00006D0002D09D0022D54D10AE0012D02D1D8
:104DC0000E78334307E0002D48D10E789E43330020
:104DD00001E00E7873400B70944243D30826835F42
:104DE000C918A31ADBB2072B1DD9022D0BD11A004B
:104DF0000C78083AE4430C700825445FD2B20919D4
:104E0000072AF5D821E02C00621E94411A00644262
:104E1000E4B20C700827C65F083AD2B28919072A93
:104E2000F7D807221340002B1CD0104AD35C012D69
:104E300004D0002D05D0022D14D10BE00A781343C5
:104E40000AE00A789A43130006E00722134009D0CB
:104E5000064AD35C0A7853400B7003E0022DB8D0A9
:104E60008919BEE7F0BDC046C9DD0000BCDD000009
:104E700037B506AC2588447E022C08D0032C0FD011
:104E8000012C18D10489013CA41A24B20DE04489F4
:104E9000013CA41A22B20489E41A611A09B20AE098
:104EA00014004289D21A511A09B20A000095210051
:104EB000FFF74EFF02E00095FFF700FF37BD37B563
:104EC00006AC2588447E022C08D0032C0FD0012C80
:104ED00018D10489E41AA41A24B20DE00489013C13
:104EE000611A448909B2E41AA41A22B20AE0140031
:104EF0004289013A511A09B20A0000952100FFF7D0
:104F0000DDFE02E00095FFF723FF37BDF7B5040093
:104F1000406A002803D0216EFCF7D4F80CE0206A28
:104F2000002804D0616DA26DE36DFDF79DFC226C3D
:104F3000216D13688B431360052243492000FFF75E
:104F40009CFC218920000139C9B2FFF727FC0A2205
:104F5000A35E07220733D9170A40D3182289DB1032
:104F60005343A56A9BB2606AEB180193002829D0CD
:104F700027002C373978FCF72DF9606A4021036847
:104F800001261B689847019BAB4217D03E2E0CD9D7
:104F9000606AFCF789F93978606AFCF71BF9606A86
:104FA0004021036801261B689847606A29780368D6
:104FB00001361B689847F6B20135E4E7606AFCF7F2
:104FC00073F92EE0E26BE16C13680B431360019BF5
:104FD0009D4226D02B78206A0093002804D0190027
:104FE000FDF748FC0135F2E708208026A36B676CCB
:104FF000626B0099BC4617680E4202D061460F43AF
:1050000001E061468F4317601A68A16C01380A43BA
:105010001A601A68A16C76088A431A600028E6D1E3
:10502000E0E7606A002803D0616EFCF74BF809E006
:10503000226C216D1368206A0B431360002801D095
:10504000FDF717FCF7BDC046C4DD000070B54B008E
:105050001B4C5B0D1C19132C12DC002C29DB194B8B
:1050600023411C000C40044319D00E009E43002431
:105070003500146055602B00220002F0F5FF17E0A8
:10508000332C0CDC104CA446012463446442DC4005
:10509000044204D00600A6430D003400E9E70400F2
:1050A0000D00146055600022C90FCB0710001900D5
:1050B00070BD0024CB0FDD0714605560F8E7C046D3
:1050C00001FCFFFFFFFF0F00EDFBFFFF0A000300E5
:1050D000024330B50220002A00D130BD80221206E2
:1050E000914216D00C4A0D4C8A180420A242F4D9E1
:1050F0000B4A8A18A242F0D90A4A490049080320FB
:105100009142EAD9064A00209142E6D158425841DC
:10511000E3E7002BE1D0EFE70000F0FFFFFFDF7FC8
:105120000000F07FFFFF0F0003210A4802680A43D6
:105130000260094802680A4302600849084A094BAC
:105140009B1A03DD043BC858D050FBDC00F012F87A
:10515000FBF710F824050040540500406CE80000FF
:1051600000000020D4000020FEE7FEE7FEE7FEE797
:10517000FEE7FEE72D4B10B51A78012A19D12C4A0B
:105180001268120715D12B4AE0241168F02208009A
:10519000104021420BD128490968114209D1274901
:1051A000274A11608021274A0902116001E0302856
:1051B000F1D01A78012A0DD11D490968090709D1D2
:1051C000F0201C4909680140402903D11A490968A7
:1051D000014223D01B68DBB2012B25D1144B1B6885
:1051E0001B0721D1134B1A68F0231A40A02A04D1BF
:1051F000114A12681A4203D016E0D02A14D1F7E7F8
:10520000114B1A68012A03D1C022104B1A600BE01F
:105210000F4A1A601A68012AFCD1F5E7C1218020E3
:10522000C900C0054250D5E710BDC046E00F00F0F0
:10523000E40F00F0E80F00F0EC0F00F0DFFF07C014
:1052400004050040186C004000EC064014EC0640D9
:1052500075930000084A0949094B10B51B68885826
:10526000FA22190A1B0618439200002300F03EFEA2
:105270004904C00B084310BD0405000000100140A4
:105280006807002070B5041E09D0FFF7E3FF050092
:1052900000F014F8FFF7DEFF401B8442F8D870BD21
:1052A0000022044B9A60044A13680133DBB2136096
:1052B0007047C046FC10014068070020704700009E
:1052C00000B520281CD80F4A83009858830602D4C2
:1052D000A022D20500E00C4A1F23034003290FD867
:1052E0000800C133FF339B0000F0E4FB0208040612
:1052F000002104E00C2102E0042100E00321995088
:1053000000BDC046E0E2000000030050202813D892
:105310000A4B8000C058830602D4A022D20500E0C8
:10532000074A1F2318401E3B8340002901D105492D
:1053300001E0A121C90053507047C046E0E20000DF
:10534000000300500C050000F7B506000D000C002E
:105350008B180193019B671B9C4207D0336821780F
:105360001B683000984701340028F3D13800FEBD97
:1053700070B505000C00081E07D004F0FFFB2B6879
:1053800002005B6821002800984770BD10B5FFF748
:10539000EFFF10BD10B503688A685B68096898471D
:1053A00010BD10B5FFF7E4FF10BD000010B50249B5
:1053B000FFF7DEFF10BDC04664E3000070B50400D7
:1053C000FFF7E8FF05002000FFF7F0FF281870BD89
:1053D00070B50500FFF7CCFF04002800FFF7E6FFDB
:1053E000001970BD10B5FFF7F3FF10BD10B54022D6
:1053F0000021040003F00FFD0023200023646364F8
:1054000010BD3F23026C10B5541C2340446C9C42D9
:1054100001D08154036410BD0023036443647047CA
:10542000436C026C934206D03F21C25C01330B40B7
:105430004364100001E0012040427047036C406C5F
:10544000181A00D540307047436C026C934201D06B
:10545000C05C01E0012040427047036C406C5A1C64
:105460003F231340181A42424241D0B270470120F4
:10547000704710B503681322DB69984710BD704769
:105480000369054A9950FC331A6A002AFCD00022AD
:1054900001201A627047C0461C050000030010B5C9
:1054A0005C331A781F2313400122110099400D4BE1
:1054B0000424D967C221036989005C505A60DA600C
:1054C000A0220021D20099500122074952425A508D
:1054D000064914305A500C395A5008315A50FFF7C7
:1054E0009BFF10BD04E100E00C0500001405000066
:1054F00010B51430FFF7A2FF10BD10B51430FFF740
:10550000A3FF10BD10B51430FFF78AFF10BD0000D7
:10551000030070B55E331C780269604BD450030001
:105520005D331C785E4BD450030061331C785D4BB7
:10553000012C0CD105005F352E78A225ED005651C7
:10554000050060352E78A125ED00565100E00024BD
:10555000D4509623DB00994238D996231B019942F7
:1055600037D996235B01994236D996239B019942FC
:1055700034D9E1239B01994232D99623DB01994228
:1055800031D9E123DB0199422FD996231B0299429D
:105590002DD9E1231B0299422BD996235B02994214
:1055A00029D9E1235B02994227D9E1239B02994241
:1055B00025D93D4B994224D9E123DB02994223D9D5
:1055C000E1231B03994221D8384B21E09E23DB02C3
:1055D0001EE09D231B031BE0354B19E0354B17E004
:1055E000EC239B0314E0344B12E0344B10E0344BBB
:1055F0000EE0344B0CE0344B0AE0344B08E0344B03
:1056000006E08023DB0403E0324B01E080235B05EE
:105610003149002453500423243953501100FC31E4
:10562000CC600C62C1210134890014605C3094604C
:10563000535003781F202200D9B2084082408034A2
:105640002648FF345BB20251002B13DA0F230B40C4
:10565000083B234C9B089B001B1903242140A140BD
:10566000FC348C40DD69A543C0248C4021002943D3
:10567000D96111E0194C9B089B001B1903242140A0
:10568000A140C025FC348C40AD005E59A643C02427
:105690008C40210031435951026070BD0C0500005F
:1056A000140500006C05000090D0030000D0BE0E71
:1056B00000B013000050270000A04E0000F075005D
:1056C00000509D0000F0EB0000903A0100E0D7018F
:1056D00000B0AF0300705F072405000000E100E0A8
:1056E00000ED00E0F7B5009308AB1B7800250193AF
:1056F000FA2304009B0083600E4B4560083303606F
:1057000014300F001600FFF771FE23005C33276191
:105710001E70009B084A9B00995823005D33197046
:10572000019B20009B009A5823005E33DD701A70A5
:10573000FEBDC04678E30000E0E20000036910B55A
:105740001A00FC32D2680400002A0AD0A322D20038
:1057500099581430C9B2FFF754FE00222369FC3374
:10576000DA6010BD10B50248FFF7E8FF10BDC04673
:105770006C070020162307B5022200930249013B63
:105780000248FFF7AFFF07BD002000406C07002074
:1057900000020843704710B50400006803F004FBE2
:1057A000200010BD10B504000068002801D003F0EF
:1057B000FBFA00232360A360636010BD70B5040092
:1057C0000D000068013104F07BF9031E01D00120B7
:1057D00028C470BD036810B50400002B02D04368D4
:1057E0008B4209D22000FFF7E9FF002805D0A3680B
:1057F000002B01D122681370012010BD70B50E007E
:10580000110004001500FFF7E5FF002803D1200078
:10581000FFF7C8FF04E0A5603100206804F0A6F996
:10582000200070BD002370B504000D1E03604360AE
:1058300083609D4207D0080004F0A0F9290002000F
:105840002000FFF7DBFF200070BD70B50500006889
:105850000C0000280CD06B688A68934206D3096854
:1058600004F084F9A368AB6000230AE003F09CFA1B
:1058700023682B6063686B60A368AB6000232360C0
:105880006360A36070BD10B50B00041E8C4208D08D
:105890000968002903D09A68FFF7B0FF01E0FFF71D
:1058A00081FF200010BD002310B504000360436099
:1058B0008360FFF7E8FF200010BD10B5041E8C4286
:1058C00001D0FFF7C2FF200010BD70B504000D1E0F
:1058D00008D0080004F052F9290002002000FFF768
:1058E0008DFF01E0FFF75EFF200070BD30B50400C2
:1058F000100000228DB0190010AB1B78226062608E
:10590000A26003AD9A1C52B2009500F095F8010018
:105910002000FFF7DAFF20000DB030BD002370B586
:1059200016008CB00400036043608360951C081C63
:1059300002F09EFF6DB203AB00932A00330000F02B
:105940007BF801002000FFF7C0FF20000CB070BD05
:1059500010B5002304008AB023606360A3600800D0
:1059600001A903F012FA01A92000FFF7AEFF200001
:105970000AB010BD10B5FFF7A8FF10BDF8B50400C0
:105980000F1E01D1002610E00126002A0DD08368E9
:10599000D5182900FFF71EFF0028F3D02368A2685E
:1059A0003900981804F0E2F8A5603000F8BD10B591
:1059B0008A6809680400FFF7E1FF002802D120008F
:1059C000FFF7F0FE200010BD70B504000D1E09D0D9
:1059D000080004F0D3F8290002002000FFF7CEFFF2
:1059E000002802D12000FFF7DDFE200070BD00007E
:1059F00083688B4203D903685818002B02D1002317
:105A0000014803707047C046D0070020FEE770478A
:105A100010B500F025F8FFF7FAFF0120FFF732FC80
:105A2000FBF734F9FBF7FAF8024B002BFAD000E051
:105A300000BFF7E70000000030B5040087B00D009C
:105A4000064901A804F058F822002B0001A90A9881
:105A500004F052F80A9807B030BDC046A8E3000031
:105A6000C421114A89005058104B0340C020000245
:105A700003435350802391399B02FF3953501360E5
:105A80008023A3220021DB05D20099500122A1200E
:105A90009A60074BC0001950C12002318000195094
:105AA000403019501A60704700E100E0FF00FFFF2E
:105AB0000010014002B4714649084900095C4900E0
:105AC0008E4402BC7047C046002243088B4274D308
:105AD00003098B425FD3030A8B4244D3030B8B42EF
