:1000000000400020AD7E0000ED7E0000EF7E00008D
:1000100000000000000000000000000000000000E0
:10002000000000000000000000000000F17E000061
:100030000000000000000000F37E0000F57E0000DC
:10004000F77E0000F77E0000A1860000F77E00002A
:10005000F77E000000000000C5800000F77E000071
:10006000F77E0000F77E0000F77E0000F77E0000BC
:10007000F77E0000F77E0000F77E0000F77E0000AC
:10008000F77E00005D810000F77E0000F77E000033
:10009000F77E0000F77E0000F77E0000F77E00008C
:1000A000F77E0000F77E0000000000000000000066
:1000B0000000000000000000000000000000000040
:1000C000054B0648033310B51B1A062B03D9044B06
:1000D000002B00D0984710BDD8000020D800002089
:1000E000000000000648074910B5091A8910CB0F17
:1000F0005918491003D0044B002B00D0984710BD6D
:10010000D8000020D80000200000000010B5074CE7
:100110002378002B09D1FFF7D3FF054B002B02D02A
:10012000044800E000BF0123237010BDD800002068
:100130000000000038280100094B10B5002B03D047
:100140000849094800E000BF08480368002B02D1B5
:10015000FFF7C8FF10BD064B002BF9D09847F7E713
:1001600000000000DC00002038280100D40000203E
:1001700000000000164B002B00D1144B9D4640227E
:1001800092029A1A924600218B460F461348144A4F
:10019000121A0BF06EFE0F4B002B00D098470E4B3F
:1001A000002B00D098470020002104000D000D48CE
:1001B000002802D00C4800E000BF0BF0D7FD200063
:1001C000290008F00BFC0BF0ABFDC0460000080056
:1001D000004000200000000000000000D8000020C7
:1001E0009C080020000000000000000010B507F08F
:1001F0008FFF0E490B68C31AC82B15D90C4B1A7800
:10020000013AD2B21A700B4A1278022A06D01A7832
:10021000022A03D11A78013AD2B21A701A7852B26D
:10022000013201D103221A70086010BD880100203C
:10023000020400200104002010B507F069FF0E49F8
:100240000B68C31AC82B14D90C4B1A780132D2B2DE
:100250001A700B4A1278022A06D01A78022A03D1A1
:100260001A780132D2B21A701A78042A01D1002207
:100270001A70086010BDC0468C01002002040020E6
:100280000104002010B504003C3008F022FA2000E0
:10029000303008F01EFA2000243008F01AFA20004E
:1002A000183008F016FA20000C3008F012FA20007E
:1002B00008F00FFA200010BD10B504002130FF3007
:1002C00008F007FA20001530FF3008F002FA20008D
:1002D0000930FF3008F0FDF92000FC3008F0F9F992
:1002E0002000F03008F0F5F92000E43008F0F1F9D2
:1002F0002000D83008F0EDF92000CC3008F0E9F902
:100300002000C03008F0E5F92000B43008F0E1F931
:100310002000A83008F0DDF920009C3008F0D9F961
:100320002000903008F0D5F92000843008F0D1F991
:100330002000783008F0CDF920006C3008F0C9F9C1
:100340002000603008F0C5F92000543008F0C1F9F1
:100350002000483008F0BDF920003C3008F0B9F921
:100360002000303008F0B5F92000243008F0B1F951
:100370002000183008F0ADF920000C3008F0A9F981
:10038000200008F0A6F9200010BD0000F0B5040020
:1003900089B05C4908F0E4F920005B4D0C3029007D
:1003A00008F0DEF920002900183008F0D9F9200003
:1003B0002900243008F0D4F920002900303008F05A
:1003C000CFF9200029003C3008F0CAF920002900AC
:1003D000483008F0C5F920002900543008F0C0F971
:1003E00020002900603008F0BBF923006C3329009D
:1003F0001800009308F0B4F923007833290018009E
:10040000019308F0ADF92300270084332900180078
:100410009037029308F0A4F92900380008F0A0F9F9
:10042000230026009C3318002900A836039308F007
:1004300097F92900300008F093F920002900B43022
:1004400008F08EF920002900C03008F089F920005A
:100450002900CC3008F084F920002900D83008F0B9
:100460007FF920002900E43008F07AF92000290003
:10047000F03008F075F920002900FC3008F070F920
:10048000200009302900FF3008F06AF9390005A87A
:1004900008F0A7F91D4D05A8290008F067FA03998F
:1004A00008F057FA290008F061FA310008F051FA13
:1004B000174908F05BFA010020001530FF3008F002
:1004C00090F905A808F005F9029905A808F089F93E
:1004D000104D05A8290008F049FA019908F039FAE9
:1004E000290008F043FA009908F033FA01002000CF
:1004F0002130FF3008F075F905A808F0EAF820006F
:1005000009B0F0BD30010100FA030100BD03010094
:100510001302010062140100F0B506000C008DB05A
:10052000454903A808F01CF9444D0399280007F039
:10053000C3FE642007F004FE290009A807F020FF8D
:1005400009A808F0C6F83E4909A808F009F93100E1
:1005500009A808F0FEF93B4908F008FA210008F064
:10056000F8F9394908F002FA384E0024310008F051
:10057000FDF9010003A808F024F909A808F0A9F87A
:100580000399280007F098FEC82007F0D9FD310034
:1005900006A808F0E5F800950196009909A807F06B
:1005A000EFFE09A906A808F026F909A808F091F8B5
:1005B000274E0134300002F02DFF264D2649280039
:1005C00002F04AF9FA20A4B2800007F0B9FD234FE7
:1005D000142C05D0390006980CF02AFB0028DCD03A
:1005E000390006980CF024FB00280FD0300002F0F0
:1005F00011FF1B49280002F07BF9FA20C00007F028
:100600009FFD019906A808F077F90CE0142C0AD197
:10061000300002F0FFFE2800124902F097F9FA209C
:10062000C00007F08DFD06A808F053F803A808F0F5
:1006300050F80DB0F0BDC04616020100240800209D
:10064000220201002D020100CD030100FA03010086
:10065000AC04002018040020310201004602010011
:10066000550201006002010070B50B4C0D00230023
:1006700024330100180008F0A4F8200029001830E5
:1006800008F09FF80549064807F016FEFA204000DA
:1006900007F056FD70BDC046F40000206B0201005B
:1006A00024080020F0B560498BB0050008F058F828
:1006B00007F02EFD0A22010001A808F0E7F801A9C1
:1006C00004A808F08EF8594F04A8390008F04EF934
:1006D000290008F03EF9564C0600210007A80C310D
:1006E00008F07FF8390007A808F040F92100183118
:1006F00008F02FF9390008F039F92100243108F009
:1007000028F9390008F032F92100303108F021F9D8
:10071000390008F02BF921003C3108F01AF93900B2
:1007200008F024F92100483108F013F9390008F0E5
:100730001DF92100543108F00CF9390008F016F9C0
:1007400021006C3108F005F9390008F00FF921009B
:10075000783108F0FEF8390008F008F921008431FA
:1007600008F0F7F8390008F001F92100903108F09D
:10077000F0F8390008F0FAF821009C3108F0E9F8A7
:10078000390008F0F3F82100A83108F0E2F8390048
:1007900008F0ECF82100B43108F0DBF8390008F07B
:1007A000E5F82100C03108F0D4F8390008F0DEF88F
:1007B0002100CC3108F0CDF8390008F0D7F821003D
:1007C000D83108F0C6F8390008F0D0F82100E4313B
:1007D00008F0BFF8390008F0C9F82100F03108F03E
:1007E000B8F8390008F0C2F82100FC3108F0B1F87F
:1007F000390008F0BBF821000931FF3108F0A9F8F1
:100800000100300008F095F83100280008F091F858
:1008100007A807F05EFF04A807F05BFF01A807F038
:1008200058FF28000BB0F0BDFA0301009702010049
:10083000CC02002030B50E4C8BB0102105002000FA
:1008400005F000FD0B4A01A817231268210005F0EE
:1008500093FD01A805F04DFC002806D0290001A851
:1008600007F020FD01A805F037FC0BB030BDC046F5
:1008700084050020C002002010B596B00268012354
:10088000114904A805F078FD00240DA8012204A94F
:1008900005F0C4FD0DA805F02CFC002811D00DA812
:1008A00005F0F6FB010001A807F05AFF7E2101A820
:1008B00008F08DF8431E9841241801A807F009FF9D
:1008C000E3E7200016B010BD8405002070B5254D6B
:1008D00090B010210600280005F0B4FC224907A8BA
:1008E00007F03EFF07A8FFF7C7FF040007A807F0BF
:1008F000F0FE1E4907A807F033FFA1B20A2201311A
:1009000004A807F0E7FF04A907A808F022F818498F
:1009100008F02CF8010001A807F063FF04A807F015
:10092000D8FE07A807F0D5FE124C01A9200007F059
:1009300048FF22681723290007A805F01DFD07A816
:1009400005F0D7FB041E06D0310007A807F0AAFC6B
:1009500007A805F0C1FB01A807F0BBFE200010B0FE
:1009600070BDC04684050020990201009E0201006E
:10097000A9020100C00200204B6830B543608B68BB
:1009800002008360CB680D00C36000231032103575
:10099000EC5CD45401330D2BFAD10B6A036230BDE9
:1009A00070B5040090B0081C0AF084FF02AA07F09A
:1009B0000FF8254B00220AF0FFF80AF0CBFE0600E4
:1009C000029803990AF0C6FE0A22010004A807F063
:1009D00081FF04A907A807F004FF1C4907A807F036
:1009E000C5FF05000A2231000AA807F073FF0AA913
:1009F000280007F0AEFF164907F0B8FF05003C20BD
:100A000070430AF0DDFE0B000221020000910DA8E8
:100A100007F00AFF0DA9280007F09BFF0D4907F01A
:100A2000A5FF0100200007F0DCFE0DA807F051FE35
:100A30000AA807F04EFE07A807F04BFE04A807F02F
:100A400048FE200010B070BD00004E40AE02010014
:100A5000B1020100CD030100F8B50D1C1D49041CB5
:100A600008F056FE1C49061C201C08F011FB011C56
:100A7000301C08F083FC0AF01DFF06F0E9FF0600B9
:100A80000F00281C154908F079FC154908F040FEB4
:100A90000AF010FF32003B000AF08EF806000F004B
:100AA000201C104908F0F4FA0AF004FF02000B00C1
:100AB0003000390009F05CFCC0220B4BD2050AF073
:100AC0007BF80AF04BFF094908F022FE08F05CFAB7
:100AD000F8BDC046C3F58C41B81E73430000C84240
:100AE0008195C3403393884366166B4000007A4477
:100AF00070B53A4CA379002B09D11021384805F084
:100B0000A1FB002802D00123A37100E0A071354DA4
:100B1000280002F07FFCE678002E04D14D213248F7
:100B200002F060FBE670314B1B78022B11D1237869
:100B3000002B0ED142212C4802F054FB002808D093
:100B40002B4804F065FB002802D00123237000E04D
:100B500020706378002B0ED17621234802F042FBEF
:100B6000002808D0234804F0FDFA002802D0012311
:100B7000637000E06070A378002B1BD11A4E5A21DD
:100B8000300002F02FFB002808D01B4805F014F9B4
:100B90000123002800D10023A3700BE0582130006E
:100BA00002F020FB002805D001222900134806F09E
:100BB00007FEEDE76379002B0ED13C210A4802F0D5
:100BC00011FB002808D00E4801F050FD002802D08B
:100BD0000123637100E0607170BDC046F80300201E
:100BE00084050020AC0400209C04002001040020A7
:100BF000D0010020900100204C01002004040020BE
:100C00001804002070B5264802F004FC254D76211A
:100C1000280002F0E7FA244C002802D00123637078
:100C200000E06070214B1B78022B09D14221280083
:100C300002F0D8FA002802D00123237000E02070CF
:100C40005A21280002F0CEFA00281BD15821280092
:100C500002F0C8FA002815D1A0703C21280002F04B
:100C6000C1FA002802D00123637100E060714D21B8
:100C7000280002F0B7FA002802D00123E37004E054
:100C8000E07002E00123A370E7E7A378E078184062
:100C900063781840237818406379184070BDC046C7
:100CA000AC0400209C040020F80300200104002074
:100CB000F0B587B0FFF7A6FF002801D1FFF718FFB6
:100CC000E04802F0A7FBE04EF378002B24D0F47943
:100CD000DE4F002C03D1DE4B1B78012B18D1337A69
:100CE000002B07D1380003F0A0FF380003F0B3FF5A
:100CF000012333721424D74D3800290004F03AF848
:100D0000002800D05CE2013CE4B2002CF3D115E0F5
:100D1000380003F0ADFF3472CF4CD04D20002900D5
:100D2000F03007F0E9FD20002900FC3007F0E4FD79
:100D300020000930FF30290007F0DEFDC44B1F788A
:100D4000022F00D042E13378002B00D1FBE0C44DEC
:100D5000280004F0C7FF280004F092FD0A220100D9
:100D600003A807F0B7FDBC4C03A920006C3007F0C6
:100D700042FD03A807F0ADFC280004F061FD0A2243
:100D8000010003A807F0A6FD200003A9783007F0B2
:100D900032FD03A807F09DFC280004F031FD0A2273
:100DA000010003A807F096FD200003A9843007F096
:100DB00022FD03A807F08DFC280004F0BDFD0A22E7
:100DC000010003A807F086FD200003A9903007F07A
:100DD00012FD03A807F07DFC280004F0CDFD0A22D7
:100DE000010003A807F076FD200003A99C3007F05E
:100DF00002FD03A807F06DFC280004F0DFFD0A22C5
:100E0000010003A807F066FD200003A9A83007F041
:100E1000F2FC03A807F05DFC280004F0F5FE0A22AE
:100E2000010003A807F056FD200003A9603007F079
:100E3000E2FC03A807F04DFC280004F02DFE009012
:100E4000280004F04AFE06220190009903A807F04A
:100E500003FD200003A90C3007F0CDFC03A807F028
:100E600038FC0622019903A807F0F6FC200003A92C
:100E7000183007F0C0FC03A807F02BFC009903A86A
:100E8000FFF78EFD200003A9243007F0B4FC03A86F
:100E900007F01FFC019903A8FFF782FD200003A9BA
:100EA000303007F0A8FC03A807F013FC280004F07A
:100EB000C7FD3A00011C03A807F0CEFC200003A9DF
:100EC0003C3007F098FC03A807F003FC280004F06E
:100ED00025FE08F0B7FE0A22010003A807F0FAFC7D
:100EE000200003A9543007F086FC03A807F0F1FBAB
:100EF000280004F03FFE3A00011C03A807F0ACFCF8
:100F0000200003A9483007F076FC03A807F0E1FBB6
:100F1000606D0AF0DFFE0022524B07F083FF0028CD
:100F200006D107F0F5F8504B984200D972E174E110
:100F3000606D0AF0CFFE0022002307F087FF002833
:100F400000D067E1EDE7444C444D200029000C300F
:100F500007F0D2FC20002900183007F0CDFC20005B
:100F60002900243007F0C8FC20002900303007F0A9
:100F7000C3FC200029003C3007F0BEFC2000290003
:100F8000543007F0B9FC20002900483007F0B4FCC9
:100F9000200029006C3007F0AFFC200029007830D9
:100FA00007F0AAFC20002900843007F0A5FC2000EF
:100FB0002900903007F0A0FC200029009C3007F0A9
:100FC0009BFC2000A830290007F096FC7378224C87
:100FD000002B4FD0254D280003F0DEFE280003F043
:100FE00017FF0222011C03A807F036FC200003A90A
:100FF000B43007F000FC03A807F06BFB280004F0F6
:101000001FF80222011C03A807F026FC200003A9F8
:10101000CC3007F0F0FB03A807F05BFB280003F0DF
:10102000BBFF134908F0AAF90222011C03A807F02C
:1010300013FC200003A9C03007F0DDFB03A807F074
:1010400048FB27E0AC040020F803002064010020E6
:10105000010400203C010020CC020020FA03010022
:10106000D001002000003440C0270900900100207A
:101070000000C8422000784DB430290007F03CFC45
:1010800020002900CC3007F037FC20002900C030B8
:1010900007F032FCB378002B00D185E06F4D5A2168
:1010A000280002F09FF8002839D06D4D280004F088
:1010B00021FE002800D1CDE0280004F0E1FE737885
:1010C000002B17D02300CC3318680AF003FE23004E
:1010D000B433060018680F000AF0FCFD0AF03EFC6D
:1010E0003900009030000AF039FC009A011C2800F9
:1010F00004F0F8FE280004F01DFE0A22010003A8F7
:1011000007F0E8FB200003A9D83007F074FB03A820
:1011100007F0DFFA280004F00BFE010037E0582149
:10112000280002F05FF8002800D193E073784D4D5D
:10113000002B19D02300B43318680AF0CBFD23002C
:10114000CC33060018680F000AF0C4FD0AF006FC54
:101150003900009030000AF001FC0099FFF77CFC98
:101160000100280006F08EFB280006F073FB002823
:1011700070D00A22698803A807F0ACFB200003A9FD
:10118000D83007F038FB03A807F0A3FA29880A2211
:1011900003A807F09FFB200003A9E43007F02BFB16
:1011A00003A807F096FA55E020002B4DD83029000F
:1011B00007F0A2FB20002900E43007F09DFB49E086
:1011C0000A22E98803A807F085FB274C03A9200021
:1011D000F03007F010FB03A807F07BFA0A222989F8
:1011E00003A807F077FB200003A9FC3007F003FBFE
:1011F00003A807F06EFA69890A2203A807F06AFBC0
:101200002000093003A9FF3007F0F5FA03A807F022
:1012100060FA93E50123F371D8E620000E4D0C30FF
:10122000290007F069FB20002900183007F064FB53
:1012300020002900243007F05FFB20002900303017
:1012400007F05AFB200029003C3007F055FB200036
:101250004830B8E607B0F0BDFA0301009C04002056
:101260004C01002004040020CC02002070B594B092
:10127000FFF71EFD724D734C2B78022B00D081E0DE
:101280002600903630680AF025FD00226E4B07F0EC
:10129000C9FD00280ED06D4911A807F061FA310090
:1012A00011A807F056FB0100300007F08AFA11A8D8
:1012B00007F00FFA26009C3630680AF00BFD00227A
:1012C000614B07F0AFFD00280ED0604911A807F070
:1012D00047FA310011A807F03CFB0100300007F08D
:1012E00070FA11A807F0F5F92600A83630680AF060
:1012F000F1FC0022544B07F095FD00280ED0534915
:1013000011A807F02DFA310011A807F022FB010007
:10131000300007F056FA11A807F0DBF9E06E0AF08A
:10132000D9FC0022484B07F07DFD002810D0260094
:1013300046496C3611A807F013FA310011A807F0DE
:1013400008FB0100300007F03CFA11A807F0C1F9D2
:10135000A06F0AF0BFFC00223B4B07F063FD0028A2
:1013600010D026003949783611A807F0F9F9310074
:1013700011A807F0EEFA0100300007F022FA11A8D8
:1013800007F0A7F9210002A890312E7807F029FA7A
:101390002F4D02A8290007F0E9FA21009C3107F03F
:1013A000D8FA290007F0E2FA2100A83107F0D1FAB3
:1013B000284907F0DBFA010008A807F012FA21001B
:1013C00005A8843107F00DFA234D05A8290007F080
:1013D000CDFA2100783107F0BCFA290007F0C6FAEF
:1013E00021006C3107F0B5FA01000BA807F0F9F9FC
:1013F00021000EAD5431280007F0F3F9210011ACA3
:101400006031200007F0EDF90BAB08AA3100019420
:101410000095124801F0C8FA200007F05AF9280098
:1014200007F057F90BA807F054F905A807F051F990
:1014300008A807F04EF902A807F04BF914B070BDE8
:1014400001040020CC0200200000244041140100CF
:10145000BD03010013020100621401001804002002
:10146000F0B5D04D8FB0032800D9E0E0CE4C07F0A6
:1014700043FB02317EADFFF7F9FE21006E78B431F7
:1014800005A8002E11D007F0ACF9210008A8CC3136
:1014900007F0A7F921000BADC031280007F0A1F932
:1014A000009508AB05AA012110E007F09AF9210088
:1014B00008A8CC3107F095F921000BADC031280008
:1014C00007F08FF93100009508AB05AAB74801F085
:1014D000B7FC01E2FFF7CAFE2100AD78D83102A8BF
:1014E000002D1AD007F07DF9B14902A807F03EFAA5
:1014F000010008A807F075F9210005A8E43107F0FC
:1015000070F9AC4905A807F031FA01000BA807F003
:1015100068F90BAB08AA012119E007F062F9A449A8
:1015200002A807F023FA010008A807F05AF92100E1
:1015300005A8E43107F055F99E4905A807F016FA09
:1015400001000BA807F04DF929000BAB08AA97483A
:1015500001F0F2FC0BA807F0BCF805A807F0B9F8F9
:1015600008A807F0B6F802A807F0B3F8D6E1FFF72D
:101570007DFE2B78002B00D18BE1606D0AF0AAFB79
:1015800000228D4B07F04EFC002800D181E1606DF8
:101590000AF0A0FB0022002307F058FC002800D12D
:1015A00077E1210005A80C3107F01BF9210008A8FC
:1015B000183107F016F921000BAD3C31280007F077
:1015C00010F9009508AB05AA002182E1FFF74EFE55
:1015D0002100EE78F03105A8002E12D007F001F9B5
:1015E000210008A8FC3107F0FCF821000BAD0931FF
:1015F000FF31280007F0F5F8009508AB05AA012196
:1016000011E007F0EEF8210008A8FC3107F0E9F836
:1016100021000BAD0931FF31280007F0E2F831005D
:10162000009508AB05AA614801F046FD54E1142677
:10163000FFF71CFE5C4C6F78210005A8B431002F29
:1016400015D007F0CEF8210008A8CC3107F0C9F872
:1016500021000BAFC031380007F0C3F853480097A2
:1016600008AB05AA012101F0EBFB380014E007F0FC
:10167000B8F8210008A8CC3107F0B3F821000BAC72
:10168000C031200007F0ADF84848009408AB05AA27
:10169000390001F0D5FB200007F01BF808A807F07F
:1016A00018F8013E05A807F014F8F6B2322006F04B
:1016B00047FD002EBCD11425FFF7D8FD3A4C394B1D
:1016C00021009E78D83102A8002E1AD007F089F8A0
:1016D000374902A807F04AF9010008A807F081F885
:1016E000210005A8E43107F07CF8324905A807F08D
:1016F0003DF901000BA807F074F80BAB08AA012113
:1017000019E007F06EF82A4902A807F02FF9010046
:1017100008A807F066F8210005A8E43107F061F891
:10172000244905A807F022F901000BA807F059F891
:1017300031000BAB08AA1D4801F0FEFB0BA806F018
:10174000C8FF05A806F0C5FF08A806F0C2FF013DC6
:1017500002A806F0BEFFEDB2322006F0F1FC002D2B
:10176000AAD11435FFF782FD0F4C0E4E21003378BD
:101770000C3105A8002B21D007F033F8210008A870
:10178000183107F02EF821000BAF3C31380007F07C
:1017900028F80648009708AB05AA002101F094F943
:1017A000380020E0F8030020CC02002018040020BC
:1017B000B3020100B70201000000344007F011F845
:1017C000210008A8183107F00CF821000BAC3C31BF
:1017D000200007F006F85248009408AB05AA022141
:1017E00001F072F9200006F074FF08A806F071FFFE
:1017F000013D05A806F06DFFEDB2322006F0A0FC19
:10180000002DAFD11435FFF731FD464CF77821009C
:1018100005A8F031002F16D006F0E3FF210008A83C
:10182000FC3106F0DEFF21000BAF0931FF3138003B
:1018300006F0D7FF3A48009708AB05AA012101F04E
:101840003BFC380015E006F0CCFF210008A8FC3175
:1018500006F0C7FF21000BAC0931FF31200006F074
:10186000C0FF2F48009408AB05AA390001F024FC02
:10187000200006F02EFF08A806F02BFF013D05A86A
:1018800006F027FFEDB2322006F05AFC002DBAD147
:1018900044E02B78002B08D0606D0AF01BFA002280
:1018A000214B07F0D3FA002818D1210005A80C31EC
:1018B00006F097FF210008A8183106F092FF2100DA
:1018C0000BAD3C31280006F08CFF0221009508ABDF
:1018D00005AA134801F0F8F8280017E0210005A830
:1018E0000C3106F07EFF210008A8183106F079FFC0
:1018F00021000BAC3C31200006F073FF0848009437
:1019000008AB05AA012101F0DFF8200006F0E1FE96
:1019100008A806F0DEFE05A806F0DBFE0FB0F0BD5D
:1019200018040020CC02002000003440F0B595B02F
:101930000290039105A8724906F012FF714B1878C6
:10194000C0B2C0B2FFF78CFD6F4D03992C0030344C
:10195000200006F036FF6D4E6D49300006F0ACFCFD
:101960006C4911A806F0FCFE0A2202990EA806F0A6
:10197000B1FF0EA911A806F0ECFF674906F0F6FFCB
:101980002F00010008A806F02CFF0EA806F0A1FE0B
:1019900011A806F09EFE243760490EA806F0E0FE6E
:1019A00039000EA806F0D5FF5D4906F0DFFF2100E3
:1019B0002C0006F0CEFF5B493C3406F0D7FF5A49B5
:1019C00006F0D4FF210006F0C4FF584906F0CEFF10
:1019D000210006F0BEFF564906F0C8FF210006F0C0
:1019E000B8FF544906F0C2FF210006F0B2FF1835D7
:1019F000514906F0BBFF290006F0ABFF210006F0BD
:101A0000A8FF4E4906F0B2FF210006F0A2FF4C49A4
:101A100006F0ACFF0A2201900A9911A806F048FFCF
:101A200011A9019806F095FF210006F092FF210010
:101A300006F08FFF08A906F08CFF01000BA806F046
:101A4000D0FE11A806F045FE0EA806F042FE3D4964
:101A500011A806F085FE0D9B0A22991C0EA806F01F
:101A600027FF0EA911A806F074FF0100300006F050
:101A700019FC0EA806F02DFE11A806F02AFE322051
:101A800006F05EFB0BA9300006F00CFC310011A83B
:101A900006F076FC11A905A806F0ADFE11A806F027
:101AA00018FE294905980BF0C3F8002812D0290028
:101AB0000EA806F096FE390011A806F092FE11A9B4
:101AC0000EA8FEF7D1FD11A806F003FE0EA806F041
:101AD00000FE03E00A4905A806F00EFF0BA806F079
:101AE000F8FD08A806F0F5FD174905980BF0A0F8D9
:101AF000002800D022E705A806F0EBFD15B0F0BDE8
:101B0000FA03010002040020F40000202408002051
:101B1000BB020100C8020100C1030100D3020100A1
:101B2000E0020100E8020100EF020100F9020100F9
:101B30001403010029030100350301004C030100D7
:101B40006A0301007B03010087030100F0B593B035
:101B50000190754903A806F003FE744B1878C0B2D3
:101B6000C0B2FFF77DFC724D01992C00303420008B
:101B700006F027FE6F4E7049300006F09DFB642092
:101B800006F0DEFA6D490FA806F0EAFD6C4F0FA8CB
:101B900039000C3106F0DDFE6A4906F0E7FE390037
:101BA000183106F0D6FE684906F0E0FE2F0001006D
:101BB00006A806F016FE0FA806F08BFD2437634931
:101BC0000CA806F0CDFD39000CA806F0C2FE604955
:101BD00006F0CCFE21002C0006F0BBFE5D493C3433
:101BE00006F0C4FE5C4906F0C1FE210006F0B1FE1D
:101BF0005A4906F0BBFE210006F0ABFE584906F03C
:101C0000B5FE210006F0A5FE564906F0AFFE210004
:101C100006F09FFE1835544906F0A8FE290006F08C
:101C200098FE210006F095FE504906F09FFE210027
:101C300006F08FFE4E4906F099FE0A2200900899A0
:101C40000FA806F035FE0FA9009806F082FE2100CD
:101C500006F07FFE210006F07CFE06A906F079FE64
:101C6000010009A806F0BDFD0FA806F032FD0CA882
:101C700006F02FFD3F490FA806F072FD0B9B0A22CC
:101C8000991C0CA806F014FE0CA90FA806F061FE22
:101C90000100300006F006FB0CA806F01AFD0FA8A4
:101CA00006F017FD322006F04BFA09A9300006F0C5
:101CB000F9FA31000FA806F063FB0FA903A806F09C
:101CC0009AFD0FA806F005FD2B4903980AF0B0FF16
:101CD000002812D029000CA806F083FD39000FA8B7
:101CE00006F07FFD0FA90CA8FEF7BEFC0FA806F0BA
:101CF000F0FC0CA806F0EDFC03E00B4903A806F08D
:101D0000FBFD09A806F0E5FC06A806F0E2FC1A496E
:101D100003980AF08DFF002800D01EE703A806F004
:101D2000D8FC13B0F0BDC046FA0301000204002045
:101D3000F400002024080020BB02010099030100E8
:101D4000CC020020B0030100BF030100D302010058
:101D5000E0020100E8020100EF020100F9020100C7
:101D60001403010029030100350301004C030100A5
:101D70006A0301007B03010087030100F0B595B001
:101D80000290039105A8704906F0EAFC6F4B1878A1
:101D9000C0B2C0B2FFF764FB6D4D03992C00303424
:101DA000200006F00EFD6B4E6B49300006F084FA01
:101DB000642006F0C5F9694911A806F0D1FC029922
:101DC00011A806F0C6FD664906F0D0FD2F000100FF
:101DD00008A806F006FD11A806F07BFC243761492F
:101DE0000EA806F0BDFC39000EA806F0B2FD5E4953
:101DF00006F0BCFD21002C0006F0ABFD5B493C3435
:101E000006F0B4FD5A4906F0B1FD210006F0A1FD2F
:101E1000584906F0ABFD210006F09BFD564906F03F
:101E2000A5FD210006F095FD544906F09FFD210017
:101E300006F08FFD1835524906F098FD290006F08E
:101E400088FD210006F085FD4E4906F08FFD21003A
:101E500006F07FFD4C4906F089FD0A2201900A999F
:101E600011A806F025FD11A9019806F072FD2100C8
:101E700006F06FFD210006F06CFD08A906F069FD73
:101E800001000BA806F0ADFC11A806F022FC0EA87C
:101E900006F01FFC3D4911A806F062FC0D9B0A22CA
:101EA000991C0EA806F004FD0EA911A806F051FD1C
:101EB0000100300006F0F6F90EA806F00AFC11A8A1
:101EC00006F007FC322006F03BF90BA9300006F0C3
:101ED000E9F9310011A806F053FA11A905A806F096
:101EE0008AFC11A806F0F5FB294905980AF0A0FE26
:101EF000002812D029000EA806F073FC390011A8A2
:101F000006F06FFC11A90EA8FEF7AEFB11A806F0B3
:101F1000E0FB0EA806F0DDFB03E00B4905A806F088
:101F2000EBFC0BA806F0D5FB08A806F0D2FB18497D
:101F300005980AF07DFE002800D027E705A806F0E6
:101F4000C8FB15B0F0BDC046FA0301000204002032
:101F5000F400002024080020BB020100C30301009C
:101F6000CF030100D3020100E0020100E8020100FA
:101F7000EF020100F902010014030100290301002E
:101F8000350301004C0301006A0301007B030100DB
:101F900087030100F0B59B4C8BB06378002B3ED0DB
:101FA000994D2B00C033186809F094FE06000F000D
:101FB00007A8964906F0D4FB3900300009F0CAFBA7
:101FC00007A9FFF7B3FC07A806F083FB2B00B43387
:101FD000186809F07FFE06000F0007A88C4906F07C
:101FE000BFFB3900300009F0B5FB07A9FFF79EFCE5
:101FF000CC3507A806F06DFB286809F06BFE0600DB
:102000000F0007A8834906F0ABFB3900300009F048
:10201000A1FB07A9FFF78AFC07A806F05AFBE378A3
:10202000002B43D0E379002B03D17B4B1B78012B92
:102030003CD1754DFC35286809F04CFE06000F00B8
:1020400007A8764906F08CFB3900300009F082FBC6
:1020500007A9FFF76BFC07A806F03BFBE86809F04F
:1020600039FE06000F0007A86D4906F079FB39001C
:10207000300009F06FFB07A9FFF758FC07A806F02E
:1020800028FB614BF033186809F024FE06000F00AE
:1020900007A8644906F064FB3900300009F05AFBD8
:1020A00007A9FFF743FC07A806F013FBA378002B52
:1020B00029D0554D2B00E433186809F00BFE0600BB
:1020C0000F0007A8584906F04BFB3900300009F013
:1020D00041FB07A9FFF72AFCD83507A806F0F9FA53
:1020E000286809F0F7FD06000F0007A84F4906F021
:1020F00037FB3900300009F02DFB07A9FFF716FC6C
:1021000007A806F0E6FA2378002B79D0424B1B781B
:10211000022B75D13C4C606D09F0DCFD0022444B74
:1021200006F080FE002808D0606D09F0D3FD002283
:10213000002306F08BFE002857D1210001A8903122
:1021400006F04FFB3B4D01A8290006F00FFC2100D3
:102150009C3106F0FEFB290006F008FC2100A831A6
:1021600006F0F7FB344906F001FC010004A806F074
:1021700038FB324907A806F0F3FA07A904A8FFF7CD
:10218000FDFD07A806F0A5FA04A806F0A2FA01A82A
:1021900006F09FFA210001A8843106F022FB284DA9
:1021A00001A8290006F0E2FB2100783106F0D1FBFE
:1021B000290006F0DBFB21006C3106F0CAFB0100B0
:1021C00004A806F00EFB1F4907A806F0C9FA07A9E4
:1021D00004A8FFF7D3FD07A806F07BFA04A806F0D1
:1021E00078FA01A806F075FA0AE0174907A806F080
:1021F000B7FA07A8FFF7AAFC07A806F06AFA9CE757
:102200000BB0F0BDF8030020CC020020D203010087
:10221000D4030100D6030100010400208E16010042
:10222000DA030100F7020100D9030100DC03010019
:1022300000003E40BD03010013020100DF03010066
:1022400062140100E1030100E30301001FB505F082
:102250005FFFFEF72DFDFFF79DFE0D4B1878C0B216
:10226000C0B2FFF7FDF805F053FF0A4A0A491368A8
:10227000C31A8B4209D9106001A8FEF713FA01A80E
:10228000FEF7D8FA01A806F024FA05B000BDC04652
:102290000204002048010020B80B000070B524485B
:1022A00005F01CFA234802F0B1FC234802F06DFD52
:1022B000224802F06DFF224803F018FD214C200057
:1022C000FEF764F8204E21493200200009F0DAFCC4
:1022D0001F4C204D2000290006F042FA2000290062
:1022E0000C3006F03DFA20002900183006F038FACC
:1022F00020002900243006F033FA2000164930303F
:1023000006F02EFA200015493C3006F029FA32007A
:102310001349200009F0B6FC124C2900200006F0F9
:102320001FFA32001049200009F0ACFC70BDC04615
:10233000040400206401002090010020D00100204E
:102340004C010020CC02002000000020B902000057
:10235000F4000020FA030100EC030100F80301007F
:1023600085020000C0020020D386000030B5614C19
:1023700093B01021200003F065FF002806D15E48CD
:1023800001F048F85D4800F067FEB1E01021200040
:1023900003F058FF684603F06DFE594D20002900F8
:1023A00004F030F800281FD0210009A801232A00DA
:1023B00003F0E2FF09A96846FEF7DEFA684603F07B
:1023C00077FE002807D0684603F014FEC1B24D48DE
:1023D00006F0B5FAF2E7684603F07EFE464801F0E3
:1023E00019F8464800F00EFE1021200003F02AFFE5
:1023F000454D2000290004F005F8002820D02100D8
:1024000009A801232A0003F0B7FF09A96846FEF7CF
:10241000B3FA684603F04CFE002808D0684603F083
:10242000E9FDC1B237480C3006F089FAF1E7684699
:1024300003F052FE304800F0EDFF304800F0E2FDBE
:102440001021200003F0FEFE304D2000290003F093
:10245000D9FF002820D0210009A801232A0003F079
:102460008BFF09A96846FEF787FA684603F020FE4D
:10247000002808D0684603F0BDFDC1B221482430D1
:1024800006F05DFAF1E7684603F026FE1A4800F010
:10249000C1FF1A4800F0B6FD1021200003F0D2FE63
:1024A0001B4D2000290003F0ADFF002820D02100A3
:1024B00009A801232A0003F05FFF09A96846FEF777
:1024C0005BFA684603F0F4FD002808D0684603F084
:1024D00091FDC1B20B48183006F031FAF1E76846B9
:1024E00003F0FAFD044800F095FF044800F08AFD6F
:1024F00013B030BD84050020AC0400201804002077
:10250000FB030100F40000200F040100230401007C
:1025100034040100E121F0B5490287B03D4805F0DF
:1025200045FF0021052005F029FE00210B2005F0C4
:1025300025FE394800F06EFF384C0126200000F0DF
:1025400095F8200000F0AEF8FA20C00005F0F8FD84
:10255000200000F02BF90227314C23782500002BB6
:1025600012D1052005F04EFE002800D126700B2068
:1025700005F048FE002800D1277005F0C9FD294B61
:102580009842E9D902232B70FFF7F0FE264C6846EB
:10259000210006F026F9210003A80C3106F021F9EC
:1025A00003A96846FDF7B8FF03A806F092F868464D
:1025B00006F08FF821006846243106F012F9210058
:1025C00003A8183106F00DF903A96846FEF74CF888
:1025D00003A806F07EF8684606F07BF8042213494B
:1025E000052005F0F9FC042211490B2005F0F4FC4C
:1025F000FEF77EFAFA20800005F0A2FD0D4903A83F
:1026000006F0EFF803A8FEF761F903A806F061F8F9
:1026100007B0F0BD24080020AC04002018040020FE
:102620000104002020BF0200F4000020ED010000A2
:1026300039020000CC02002010B50400103006F072
:1026400048F8201D06F045F8200010BD70B50400C4
:10265000054D0430290006F083F8200029001030D1
:1026600006F07EF8200070BDFA03010013B53C218E
:102670000A4800F0B7FD00280DD00123084C009354
:102680003C220221200001F0B7FD200001F0A3FD53
:10269000200002F087F8002016BDC0469C040020F0
:1026A0003404002030B53C2185B005001F4800F0FF
:1026B00099FD002837D01E4C1035200001F08BFD0D
:1026C0000121200001F0FDFB0121200001F0FFFBB2
:1026D00000221D21200001F0F1FB1649200005F029
:1026E000F5FD09221021200001F0E8FB124920002D
:1026F00005F0C4FD0021280006F04CF92900200057
:1027000005F0C0FD012302930C4B20001B780E2224
:1027100001930B4B00211B7800930A4B01F0BCF98D
:10272000200002F03FF805B030BDC0469C040020F8
:10273000340400202614010032140100050000209A
:102740000400002014050100F0B5164885B00E0005
:102750003C2117001D0000F045FD00281FD0124C41
:102760000121200001F0B3FB00222000110001F044
:10277000A5FB3900200005F09FFD0C9B2DB21AB27D
:102780000B9B200019B2012302930A9B00951BB2F8
:102790000193330001F080F9200002F003F805B046
:1027A000F0BDC0469C0400203404002010B5154C38
:1027B000200001F010FD00222000110001F07EFB3E
:1027C0001149200005F078FD2000022101F079FB7D
:1027D00012222000002101F071FB0C49200005F0BD
:1027E0006BFD28222000002101F068FB0849200031
:1027F00005F062FD0121200001F063FB200001F0E3
:10280000D1FF10BD34040020661401007C140100C7
:1028100086140100012170B50A4C4942200001F0E4
:10282000D3FB094D09492A00200009F02BFA084C76
:102830002000FFF70BFF2A000649200009F022FACA
:1028400070BDC04634040020000000201940000084
:102850001804002039260000F0B5040085B00D00F2
:102860001E483C2100F0BEFC002834D01C4E002144
:10287000300001F01EFC300001F0ADFC3000012101
:1028800001F01FFB0D27082638232A001549009365
:102890002000DB1802970196FFF756FF962005F0FF
:1028A0004FFC38232A00104900932000DB180297C0
:1028B0000196FFF749FF962005F042FC38232000DF
:1028C000009302970196DB182A000849FFF73CFFA6
:1028D000962005F035FC05B0F0BDC0469C040020F4
:1028E0003404002004110100F40D0100D40801009B
:1028F0007FB505000E0011483C2100F073FC002854
:102900001AD00F4C0021200001F0D3FB200001F071
:1029100062FC0221200001F0D4FA0D230293053B52
:102920000193303300932800383332000549FFF714
:102930000BFF054805F004FC7FBDC0469C04002049
:1029400034040020D4080100DC0500007FB5050038
:102950000E0011483C2100F045FC00281AD00F4C15
:10296000200001F038FC0221200001F0AAFA012128
:10297000200001F09EFB0D230293053B01933033B1
:1029800000932800383332000549FFF7DDFE054883
:1029900005F0D6FB7FBDC0469C0400203404002017
:1029A000D4080100DC050000F8B53F480F003C21C9
:1029B00016001D0000F016FC002874D03B4C0021CE
:1029C000200001F076FB200001F005FC0121200031
:1029D00001F07DFA022F3AD12000012101F071FAB5
:1029E00000222000110001F069FA3100200005F0FA
:1029F00059FC08222000002101F060FA2900200083
:102A000005F050FC00222000462101F057FA284929
:102A1000200005F051FC00222000642101F04EFA54
:102A20002449200005F048FC08222000462101F03E
:102A300045FA0699200005F035FC200008226421A3
:102A400001F03CFA0799200005F02CFC0CE0022173
:102A5000200001F036FA1B212000002201F02EFA9E
:102A60001549200005F028FC0121200001F029FA79
:102A700038220021200001F021FA1049200005F041
:102A80001BFC38223721200001F018FA0C492000E5
:102A900005F012FC68212000382201F00FFA0949E4
:102AA000200005F009FCF8BD9C040020340400203F
:102AB00091140100961401009B140100A21401005E
:102AC0003D1401002E140100F0B5C8488BB00F0072
:102AD0003C2105921D0000F085FB002800D182E119
:102AE000C34C0021200001F0E4FA0121200001F094
:102AF000E8F90121200001F0EAF9002F00D052E1AD
:102B0000059B186809F0E6F80022002306000F0074
:102B100006F088F900280ED00022B64B30003900AC
:102B200006F094F9002806D020211822200001F098
:102B3000C5F9B14915E00022AE4B3000390006F06E
:102B400071F9002817D00022AC4B3000390006F094
:102B50007DF900280FD020211822200001F0AEF9C5
:102B6000A74907A805F0FCFD059907A805F0F1FEA7
:102B70000100200053E00022A04B3000390006F095
:102B80005BF9002806D020211822200001F096F9D8
:102B90009C49E6E7002200233000390006F060F986
:102BA00000280ED00022984B3000390006F03AF988
:102BB000002806D0202118228D4801F07FF9934982
:102BC00024E00022904B3000390006F049F900283B
:102BD0000ED000228E4B3000390006F023F9002879
:102BE00006D020211822824801F068F982490DE0C0
:102BF0000022874B3000390006F032F9002813D04C
:102C0000202118227A4801F059F97D4907A805F0DA
:102C1000A7FD059907A805F09CFE0100744805F082
:102C200041FB07A805F055FD286809F053F800227C
:102C3000002306000F0006F0F5F8002807D0002258
:102C40006C4B3000390006F001F9002845D1002214
:102C5000684B3000390006F0E5F8002807D0002264
:102C6000664B3000390006F0F1F8002844D100220C
:102C7000624B3000390006F0DFF8002806D0202231
:102C80002000110001F01AF962493BE00022002304
:102C90003000390006F0E4F800280ED000225A4B2C
:102CA0003000390006F0BEF8002806D020222000AF
:102CB000110001F003F9584924E00022524B300082
:102CC000390006F0CDF800280ED00022504B30001D
:102CD000390006F0A7F8002806D0202220001100B5
:102CE00001F0ECF84D490DE00022494B300039006D
:102CF00006F0B6F8002813D020222000110001F0C1
:102D0000DDF8474907A805F02BFD290007A805F0C5
:102D100020FE0100200005F0C5FA07A805F0D9FC47
:102D2000109B186808F0D6FF08F014FD0300093363
:102D3000082B1AD903006333582B1FD903006333C0
:102D400006DA20212822200001F0B8F835491BE0DE
:102D5000092806D820212822200001F0AFF83249A6
:102D600012E003000A3B592B06D82021282220001C
:102D700001F0A4F82D4907E0632825DD2021282251
:102D8000200001F09BF82A4907A805F0E9FC1099FA
:102D900007A805F0DEFD0100200005F083FA07A872
:102DA00005F097FC10E02022012F05D131212000F1
:102DB00001F084F81F4904E02321200001F07EF88F
:102DC0001D49200005F078FA012302931A3301937C
:102DD000033300932000194B1422002100F05CFE05
:102DE000200001F0DFFC0BB0F0BDC0469C040020C9
:102DF00034040020000024C0AA140100000059C0BF
:102E0000B2140100B914010000002440BF140100F5
:102E100000005940D7140100DD140100C81401005E
:102E2000D0140100F5140100FB140100E6140100A8
:102E3000EE1401000415010010150100A8040100A2
:102E4000F0B5364889B00F003C2116001D0000F097
:102E5000C9F900285FD0324C0021200001F029F987
:102E60000121200001F02DF8002F3CD01822200075
:102E7000302101F023F8310005A805F0B2FC294902
:102E800005A805F073FD0100200005F00BFA05A868
:102E900005F01FFC20222000302101F00FF829004E
:102EA00005A805F09EFC204905A805F05FFD01007E
:102EB000200005F0F7F905A805F00BFC28222000FA
:102EC000302100F0FBFF0E9905A805F08AFC174998
:102ED00005A805F04BFD0100200005F0E3F905A869
:102EE00005F0F7FB08E025212000202200F0E6FF96
:102EF0000F49200005F0E0F90123029317330193F5
:102F00000633009320000B4B1722002100F0C4FD74
:102F1000200001F047FC09B0F0BDC0469C04002031
:102F2000340400204E150100541501005B1501000A
:102F30006015010048040100F0B52C4889B00F006D
:102F40003C2116001D0000F04DF900284BD0284C04
:102F50000021200001F0ADF80121200000F0B1FFB8
:102F6000002F28D01B222000282100F0A7FF214994
:102F700005A805F0F5FB310005A805F0EAFC010005
:102F8000200005F08FF905A805F0A3FB26222000FC
:102F9000282100F093FF184905A805F0E1FB29005E
:102FA00005A805F0D6FC0100200005F07BF905A876
:102FB00005F08FFB08E025212000202200F07EFF95
:102FC0000E49200005F078F901230293173301938D
:102FD0000633009320000A4B1722002100F05CFD0D
:102FE000200001F0DFFB09B0F0BDC0469C040020CA
:102FF0003404002070150100771501007E150100D2
:103000001408010030B53C2185B005000E4800F0E1
:10301000E9F8002816D00D4C200001F0DCF8022160
:10302000200000F04EFF0021200001F042F81223A2
:10303000029301931A330093054A2E330549280061
:10304000FFF782FB05B030BD9C0400203404002053
:10305000AC150100E40B010030B53C2185B0050042
:10306000104800F0BFF8002819D00F4C200001F0E4
:10307000B2F80221200000F024FF0121200001F01D
:1030800018F81223029301931A33009328002E3369
:10309000064A0749FFF758FB064805F051F805B006
:1030A00030BDC0469C04002034040020B615010049
:1030B000E40B0100DC050000F0B5424889B00F00C8
:1030C0003C2115001E0000F08DF8002878D03E4C01
:1030D0000021200000F0EDFF0121200000F0F1FEB2
:1030E000002F55D018222621200000F0E7FE374996
:1030F00005A805F035FB290005A805F02AFC01000C
:10310000200005F0CFF805A805F0E3FA18225F21AA
:10311000200000F0D3FE2E4D2000290005F0CCF851
:1031200020222621200000F0C9FE2A4905A805F02A
:1031300017FB310005A805F00CFC0100200005F08C
:10314000B1F805A805F0C5FA20225F21200000F0A3
:10315000B5FE2900200005F0AFF82822202120002C
:1031600000F0ACFE1C4905A805F0FAFA0E9905A876
:1031700005F0EFFB0100200005F094F805A805F02C
:10318000A8FA5F212822200000F098FE290005E01F
:1031900025212022200000F091FE1049200005F09A
:1031A0008BF8012302931733019306330093200019
:1031B0000B4B1722002100F06FFC200001F0F2FA07
:1031C00009B0F0BD9C0400203404002084160100E6
:1031D0008A16010090160100961601009D16010046
:1031E0007408010070B50E000A240B4D3100280050
:1031F00000F0D4F9280000F03BFA002807D0013C89
:10320000E4B2002C05D0012004F09AFFEDE7012084
:1032100000E0200070BDC046AC04002070B5160070
:103220001D00084C200000F0B9F93100200000F02A
:10323000B8F82900200000F0B4F8200000F018FAD7
:1032400070BDC046AC04002070B51500054C2000D0
:1032500000F0A4F92900200000F0A3F8200000F0FD
:1032600007FA70BDAC04002070B516000D000E4CBE
:10327000200000F093F93100200000F092F82000C7
:1032800000F0F6F901222900200000F082F9200068
:1032900000F07DF803000020834203D0200000F0FE
:1032A0007BF8C0B270BDC046AC04002070B51600FB
:1032B0000D00114C200000F071F93100200000F0E9
:1032C00070F8200000F0D4F902222900200000F05C
:1032D00060F9200000F05BF803000020834209D071
:1032E000200000F059F885B2200000F055F82D02BA
:1032F000284380B270BDC046AC04002010B5FFF773
:10330000D5FF40BA80B210BD10B5FFF7F7FF00B28D
:1033100010BD000070B516000C00124D280000F022
:103320003DF93100280000F03CF8280000F0A0F939
:1033300003222100280000F02CF9280000F027F8D3
:103340000300002083420CD0280000F025F804027E
:10335000280000F021F820430402280000F01CF8A7
:10336000204370BDAC040020F8B505000E00170026
:103370000024BC4208D02B68315D1B6828009847A8
:10338000002801D00134F4E72000F8BD704710B5E3
:103390001C3004F0C7FF10BD10B51C3004F0B4FFA2
:1033A00010BD70B5437E0D00002B05D064300400C5
:1033B00004F0C7FF002801D0002004E0200029000D
:1033C00004F093FF012070BD10B51C3004F0B0FF75
:1033D00010BD0000F7B50193FA23002504009B00FF
:1033E00083600B4B4560083303601C300F001600F0
:1033F00004F070FF2000643004F06CFF6B461B7912
:10340000276166756576A5762000A375FEBDC0466A
:10341000B0160100012370B5827DC375164B920072
:10342000D258910602D4A024E40500E0134C417D5B
:10343000890059588B0602D4A025ED0500E00F4DF8
:103440001F231A400B401100C1310D4EFF3189007E
:103450000E511900CC24C131FF3189004E51016950
:10346000084864040C50052424380C5008300A50D5
:10347000054A8B5070BDC0468822010000030050F1
:103480000C060000240500000C050000A0230269C2
:103490000020DB00D0500948814204D9084881420D
:1034A00004D9CD2103E0CC21490401E08021C904E5
:1034B000044811500521D1507047C046A086010034
:1034C00090D0030024050000F7B5050000200C0093
:1034D000019382425CD0161E402E00D940262F0058
:1034E0001C37380004F00CFFB1222B69D200802178
:1034F0009C50012289005A50A97E002901D11A62EC
:103500001A600024731E2A69A34206D1019B002B76
:1035100003D0802302219B00D150012313621300AA
:10352000FC33D968002902D1996A0029F9D0996A37
:1035300000290AD1D960A323DB00D1583800C9B2D1
:10354000013404F0D2FEA642DCD8019A2B69002A8D
:1035500004D11A00FC32916A00290AD0012100220C
:10356000AA7659611900FC3188680028FCD08A606D
:1035700007E00121A976D961D16C0029FCD0002196
:10358000D164FC339A6A002A01D000229A62E0B228
:10359000FEBD10B50123FFF797FF10BD0300AC334C
:1035A00010B504001970643004F0AAFE012363769C
:1035B00010BD0000F8B500220D0001004276AC31CC
:1035C000036904000878B121C9005850802189009E
:1035D0005A5001321A629A6026006436300004F0B4
:1035E000A1FE00280ED03000276904F08DFE1E4B8E
:1035F000F8502369FC331A6A002A0CD19A6A002A0F
:10360000F9D008E02369002D0AD11A00FC32916A32
:10361000002905D10EE09A6A002AF3D11A62DBE78D
:1036200001225A611A00FC3291680029FCD0002165
:10363000916006E00121D961D16C0029FCD0002104
:10364000D1641A000020FC32916A81420BD00749F4
:1036500090625A5802305A50824204D0043A53427F
:1036600053410230C01AF8BD1C050000C40400001C
:1036700010B50121FFF79EFF10BD000010B5132308
:10368000142202490248FFF7A5FE10BD0040004089
:10369000AC040020F0B515000C001E0089B00EAB84
:1036A00000229B5E0FAA1288019006925A1BD11726
:1036B00052184A400292321BD11752184A400392C4
:1036C0000399029A8A4205DD32001E00130022008F
:1036D0002C001500B44205DD2A001D001300220055
:1036E00034001600321B92B205925A1BD1175218A1
:1036F0004A4007926A461421525ED10F8A1852102E
:1037000092B20092012204929D4201DB154B049378
:10371000B44224DC019B029A1B6803991B691F00B9
:10372000069B8A4202DD2200290001E02A002100D6
:103730000198B847009A079BD31A9BB29AB200929D
:103740006A46128812B2002A06DA049AAD18059A5F
:103750002DB2D3189BB20093013424B2D8E709B03C
:10376000F0BDC046FFFF000010B50468A468A04784
:1037700010BD37B506AC258804680095246BA047BA
:1037800037BD37B506AC258804680095646BA04743
:1037900037BD73B506AC0025655F07AC26880468A5
:1037A00001960095A46BA04773BD7047F0B5160055
:1037B00004000D0085B003930AAB1F880368DB6823
:1037C0009847039B2268013B9B191BB2009301970A
:1037D000176A2B00320029002000B8472368200018
:1037E0005B6A984705B0F0BDF0B505001C000E00FF
:1037F000170085B00AAB1B88013C03930368A4192A
:10380000DB68984703992A680191009723B2310039
:10381000146A28003A00A0472B6828005B6A984782
:1038200005B0F0BDF0B50E0087B003930CAB02926B
:1038300000229B5E050004930DAB1B8834000593AA
:103840000368DB689847039B2A68F3189C420ADAEE
:10385000059B210000939769049B029A280001347C
:10386000B84724B2EFE7536A2800984707B0F0BD85
:1038700013B501910E24015F0C22835E0268009152
:10388000946B00221100A04713BDF0B585B00293E0
:103890000AAB00241C5F0BAB1B8817000393029B31
:1038A00005000E1E02689E420BD1A74202DD3B00BE
:1038B00027001C0003990134E31B00911BB2146B19
:1038C0000DE0A74210D1029B994201DD029E0291B8
:1038D000029B0399013300919B1B546B1BB23A006E
:1038E00031002800A0470FE0D3689847039A2B685F
:1038F000019200941C6A2800029B3A003100A04704
:103900002B6828005B6A984705B0F0BDF0B504004D
:1039100016000D0087B004930CAB00229B5E05934C
:103920000DAB1B8803930368DB689847039A2368F1
:103930000092DF693200049B29002000B847059BF4
:1039400003995A1E236800919219DF692900049B8C
:10395000200012B2B847039A236800929F69320090
:10396000059B29002000B8470499039A2368013970
:1039700000924D1929B29F693200059B2000B8477B
:10398000236820005B6A984707B0F0BD70470323A7
:103990001940417603894289012904D0032902D0C4
:1039A0008381C28101E08281C3817047018181816D
:1039B000012100234281C281012210B5074C4942F6
:1039C0000834436004604376038243820276C182F6
:1039D00081828276C376C36110BDC046D0160100D5
:1039E000F0B500278DB0099312AB049200229B5EC4
:1039F0000891059313AB00229B5E04000A9314AB5D
:103A00001B883D000B930368DB6898470721059BE3
:103A100006910733DA170A40D318DB100793049B8B
:103A200001936B46049A9B8803939B1A0A9A1BB2D4
:103A30009A422BDD002302936B461989059A0BB23B
:103A400093421CDA069A6D00EDB2114207D1069836
:103A5000DA170240D318099ADB10D219D55C6BB281
:103A6000002B09DA089B019AC918236809B21B695F
:103A700020001E000B9BB047029B0133DBE7039B3A
:103A800001331BB20193079BFF18CAE7236820008C
:103A90005B6A98470DB0F0BD7FB508AC0025645F48
:103AA00009AD0026AD5F0AAE3688019502960094F6
:103AB000FFF796FF7FBD0000F0B597B01D001CAB6F
:103AC0001B88040004931DAB1B88089105931EAB53
:103AD0001E78C3690392002B00D0C3E00C22835EE2
:103AE0008B4200DC6EE10E22835E039A934200DC7F
:103AF00068E1062373435B18002B00DC62E1039A44
:103B0000F3009B18002B00DC5CE1C37E002B03D18B
:103B1000AF2D01D90135EDB223682000DB6898474D
:103B200005235D430F9300230C936B469B891195EE
:103B3000099308339BB2129330226B469B181B7873
:103B4000A14A11995BB25218D25C9BB20A93B3B2EC
:103B500007936B461B8C0B9206930A9BB2B253439E
:103B6000069A099DD3189BB210930D950E950122CC
:103B70000B9B134216D0964208D10A9B06992AB293
:103B80005918236809B21F69049B19E06A4640204E
:103B90003821525E694609180020095E330020680A
:103BA000049F1BE0049B059A93421CD0012E0AD16E
:103BB0000A9B06992AB25918236809B21F69059B06
:103BC0002000B8470FE06A4640203421525E694623
:103BD000330009180020095E059F206801970093B3
:103BE00047692000B847079A0B9B94465B080B93E4
:103BF0000E9B013563449BB20E930D9BADB26344A3
:103C00009BB20D93129BAB42B1D10C9B0133DBB243
:103C10000C930F9B013BDBB20F93002B8CD1049BC9
:103C2000059A934200D1C9E02068012E09D1069976
:103C300000920531856909B20823039A2000A8473C
:103C4000BCE00521079A33B25143069A5118059AF0
:103C500009B20192079AD20000924569039A2000A6
:103C6000A847ABE01A7AAD1AEDB25A68ED001B68AE
:103C7000AD1812932B880793AB780993EB781393C5
:103C80006B790D93AB790E93012E0DD934226B46CF
:103C900000259B185D576B4604329B181B78ADB20C
:103CA0005BB29BB20B9302E000231D000B932368D1
:103CB0002000DB689847B3B20F936B461B8C0C93C4
:103CC000B3B25D430C9B5D19ABB200251193099B08
:103CD00006950593059A099B1399D31AEAB2DBB2AC
:103CE0008A426BD26A4692890F9910920B9AAA184F
:103CF0004A4310998A1892B2342115926A46521892
:103D000012780C9952B28A1892B20892119A0A92B9
:103D1000059A9A424AD05A1CD2B2149207221342F0
:103D200007D1079B0799129A0133525C9BB2069206
:103D300007936B461B7E5BB2002B27DA012E14D152
:103D40006B4638229B1800229A56109B20009A1826
:103D5000FF232B409A186B462021595E236812B22C
:103D60001B691F00049BB84710E054216A46521893
:103D70000021525E6946049F2820095E2068019751
:103D800000964069330007002000B8470F9A069B51
:103D900094465B00DBB206930A9B63449BB20A9392
:103DA000089B01339BB20893149BB1E7059A099BCA
:103DB0000135D318DBB20593ADB28BE72368200041
:103DC0005B6A984717B0F0BD20170100F0B5C269D3
:103DD00085B004000B00002A28D10A2903D1037EF4
:103DE0000282DB0029E00D2965D0817E007E00295A
:103DF0000DD01021655E0621414369180C26A55F90
:103E0000A94204DD618A2282C2008A18628202907D
:103E1000E08A1221625E0190A08A1025615F009005
:103E20002000FFF749FE237E062240E00A2908D140
:103E300000230382927A037E5343628A9B18638233
:103E400039E00D2937D0157AA94234D3517A9942F5
:103E500031D351685D1BED006D18A978002924D07D
:103E6000E878002821D0A67E207E002E11D00526DD
:103E7000AE57711841431027E65F89190C27E65F9A
:103E8000B14206DD00212182927A618A42435218B2
:103E900062820290E08A1221625E0190A08A10265E
:103EA000A15F00902000FFF707FE2B79227E53438D
:103EB000228A9B182382012005B0F0BD0182428234
:103EC00070470123002900D00B0003767047C182A0
:103ED00081827047407E70470C23C05E70470E237E
:103EE000C05E7047F8B506000D0014001F000029E1
:103EF00069DBFFF7F1FF854265DA002C63DB3000F8
:103F0000FFF7EDFF84425EDA3000FFF7E3FF02289F
:103F100007D13389013B5D1B73892DB2013B1C1B0B
:103F20000AE0032843D16540ADB26C40A3B2748966
:103F30005D40013C2DB2E41A24B2012F14D0002FB1
:103F400023D0022F3FD10721E3170B401B19082074
:103F5000325EDB1053435D19B36A0C405D190123D7
:103F6000A3402A78534020E00721E3170B401B1998
:103F70000C40A7400820325EDB1053435D19B36A42
:103F80005D192B781F432F701DE00721E3170B40AD
:103F90001B190820325EDB10534301220C40A24063
:103FA0005D19B36A5D192B7893432B700BE00128E0
:103FB000C3D16540ADB26C40338924B2013B65404A
:103FC0005D1B2DB2B9E7F8BD70B504000D004022AD
:103FD0008021FFF7EBFC0E4B2100083323600D4BD3
:103FE00000226362FF232F312262A2620B704B70AA
:103FF0008B70CB70230033331D708023DB0563652A
:104000002300E2655433023220001A7170BDC046AD
:10401000381C0100AC040020054B10B50833040027
:104020000360806A002801D007F0ECFE200010BD7C
:10403000381C0100F8B50400406A0D00002812D0B9
:1040400023002C331978FFF7A9FA606A002103686E
:104050001B689847606A290003681B689847606A74
:10406000FFF706FB24E0E26BE16C1368206A8B43E8
:104070001360002803D0290000F0A4FC18E00820F9
:104080008026A36B626B616C17682E4201D03943A6
:1040900001E08F43390011601A68A16C01380A43AE
:1040A0001A601A68A16C76088A431A600028E9D160
:1040B000F8BD70B50400406A0D00002803D0216EE1
:1040C000FFF7E4F90CE0206A002804D0616DA26DCE
:1040D000E36D00F071FC226C216D13688B4313605B
:1040E00029004D1EA9412000A631FFF7A3FF606AF9
:1040F000002803D0616EFFF7C9F909E0226C216D39
:104100001368206A0B431360002801D000F059FCAB
:1041100070BDF7B50400406A8B180D0001930028AC
:1041200029D027002C373978FFF738FA606A002148
:10413000036801261B689847019BAB4217D03E2EAF
:104140000CD9606AFFF794FA3978606AFFF726FAAB
:10415000606A0021036801261B689847606A297815
:10416000036801361B689847F6B20135E4E7606AD8
:10417000FFF77EFA2EE0E26BE16C13688B4313606D
:10418000019B9D4226D02B78206A0093002804D002
:10419000190000F017FC0135F2E708208026A36B18
:1041A000676C626B0099BC4617680E4202D061468C
:1041B0000F4301E061468F4317601A68A16C013814
:1041C0000A431A601A68A16C76088A431A600028AC
:1041D000E6D1E0E7F7BD10B50A22835E0722073378
:1041E000D9170A40D3180821425EDB105A43806A6F
:1041F000002107F03EFE10BDF0B589B005930EAB6F
:104200001B7804000693836A0F001600002B10D160
:104210000A22835E07220733D8171040C3180822EA
:10422000A05EDB10584307F0E3FDA062031E00D13F
:1042300070E12000FFF7CFFF0A23E25E0823E15E72
:10424000202A11DD403AD30F52399A18CB0F591852
:10425000012302933F33521049100193123300930C
:1042600012B209B2AD4B10E0203AD30F73399A184D
:10427000CB0F5918012302931F330193533352106C
:1042800049100093A64B12B209B2250020002D352B
:10429000FFF702FC2F70606A002812D0F3B2002EE4
:1042A00005D10A22A35E203B5A1E93413C332200D3
:1042B0002C321370069B002B00D126E1FFF7AAF8E1
:1042C00080E027000020313738560121260003F016
:1042D00055FF002032360121305603F04FFF0023F6
:1042E000FB5690499B005A580F00930601D58E4B00
:1042F00001E0A023DB05A121C9005B18E3631F23B4
:1043000001211A4091400022E164B2569200B9584E
:104310008A0601D5844A01E0A022D205A120012607
:10432000C0001018206430000B409840A121206587
:10433000C90053580343206A5350002805D0069BF8
:10434000002B3FD000F01CFB3CE0230000202F336B
:1043500006931856310003F011FF2300002030337C
:1043600007931856310003F009FF069B1B785BB2D8
:104370009B00FA58930601D56B4B01E0A023DB05A7
:10438000A121C9005B1863631F2301211A409140DA
:10439000079A6164127852B29200B9588A0601D520
:1043A000614A01E0A022D2050B400121A1209940E1
:1043B000C0001018A063A1200B00A164C000115818
:1043C00099431150059B002B1DD026000020333649
:1043D0003056002817DB012103F0D0FE0020012118
:1043E000305603F0F1FE012003F0AAFE0020002168
:1043F000305603F0E9FE0A2003F0A2FE002001215E
:10440000305603F0E1FE606A002803D0216EFFF70A
:104410003DF80CE0206A002804D0616DA26DE36DC8
:1044200000F0CAFA226C216D13688B4313600422DA
:104430003E492000FFF76DFE618920000139C9B2B5
:10444000FFF7F8FD3A4904222000FFF762FE00233F
:10445000EB561421012B00D104392000FFF7EAFDAF
:10446000042234492000FFF754FEA368324A9342E5
:1044700005D1042231492000FFF74BFE1FE0304AEE
:1044800093420BD12F4903222000FFF742FE002365
:10449000EB56CF21012B0FD130390DE02A4A934240
:1044A0000DD12A4903222000FFF733FE0023EB56EB
:1044B000AF21012B00D19F392000FFF7BBFDD9218F
:1044C0002000FFF7B7FD0023EB56F121012B00D1AF
:1044D000CF392000FFF7AEFD200006221C49FFF770
:1044E00018FE606A002803D0616EFEF7CFFF0AE075
:1044F000226C216D1368206A0B431360012300288E
:1045000008D000F05EFA012304E0059B002B00D1E7
:104510007CE75AE7180009B0F0BDC046811E0100D3
:104520008F1C010088220100000300506F1E010053
:10453000731E0100771E010080002000881C01000E
:10454000800040008C1C010060001000412101002F
:104550007B1E0100F0B5150005AA1788002D42DB6F
:104560000A24025FAA423EDD002902DA59180BB282
:10457000002104895E1822B2964201DD631A1BB243
:10458000002B30DD0726EC1734406419E410624339
:104590005118826A01203540A8405218C0B2012F3C
:1045A00004D0002F0BD0022F14D01CE0013B1BB213
:1045B000591C18D01178014311700132F6E7C0433D
:1045C000C0B2013B1BB2591C0DD0117801401170D3
:1045D0000132F6E7013B1BB2591C04D0117841406F
:1045E00011700132F6E7F0BDF0B505AC2588002961
:1045F00000DA83E00824065FB14200DB7EE0002A97
:1046000002DA9B1800221BB2448927B2BC46D71895
:10461000674501DDA31A1BB2002B6FDDD2B2DCB2FD
:10462000D30873435918836A591807231A4024D0B2
:1046300001339A1A324BD2B29B5C94420AD2FF26C3
:10464000171B3E413340012D06D0002D09D0022D0D
:1046500054D10AE0012D02D10E78334307E0002D3A
:1046600048D10E789E43330001E00E7873400B7002
:10467000944243D30826835FC918A31ADBB2072BE1
:104680001DD9022D0BD11A000C78083AE4430C70A6
:104690000825445FD2B20919072AF5D821E02C0079
:1046A000621E94411A006442E4B20C700827C65F8F
:1046B000083AD2B28919072AF7D807221340002BEB
:1046C0001CD0104AD35C012D04D0002D05D0022D42
:1046D00014D10BE00A7813430AE00A789A431300D6
:1046E00006E00722134009D0064AD35C0A785340FB
:1046F0000B7003E0022DB8D08919BEE7F0BDC046AB
:104700002D1C0100201C010037B506AC2588447E15
:10471000022C08D0032C0FD0012C18D10489013CA5
:10472000A41A24B20DE04489013CA41A22B20489DF
:10473000E41A611A09B20AE014004289D21A511A25
:1047400009B20A0000952100FFF74EFF02E0009534
:10475000FFF700FF37BD37B506AC2588447E022C35
:1047600008D0032C0FD0012C18D10489E41AA41A04
:1047700024B20DE00489013C611A448909B2E41AAB
:10478000A41A22B20AE014004289013A511A09B26D
:104790000A0000952100FFF7DDFE02E00095FFF71B
:1047A00023FF37BDF7B50400406A002803D0216E0F
:1047B000FEF76CFE0CE0206A002804D0616DA26D4B
:1047C000E36D00F0F9F8226C216D13688B431360E0
:1047D000052243492000FFF79CFC21892000013974
:1047E000C9B2FFF727FC0A22A35E07220733D917B5
:1047F0000A40D3182289DB105343A56A9BB2606A32
:10480000EB180193002829D027002C373978FEF7C0
:10481000C5FE606A4021036801261B689847019B1A
:10482000AB4217D03E2E0CD9606AFEF721FF3978D3
:10483000606AFEF7B3FE606A4021036801261B68C8
:104840009847606A2978036801361B689847F6B272
:104850000135E4E7606AFEF70BFF2EE0E26BE16CE6
:1048600013680B431360019B9D4226D02B78206A6E
:104870000093002804D0190000F0A4F80135F2E7F5
:1048800008208026A36B676C626B0099BC46176892
:104890000E4202D061460F4301E061468F4317602C
:1048A0001A68A16C01380A431A601A68A16C76086C
:1048B0008A431A600028E6D1E0E7606A002803D046
:1048C000616EFEF7E3FD09E0226C216D1368206A3A
:1048D0000B431360002801D000F073F8F7BDC04609
:1048E000281C010070B5002504AC24780573A9428A
:1048F00005D10A4B0A4A23210A4807F0CBF9016087
:104900000949920052589B0002715B588371A300C1
:104910005B58856043710223C37170BD8121010022
:10492000442101008F21010088220100037B002B1C
:1049300004D1437383730361013303737047000031
:104940001FB50191A02100240068C900D2B24450D3
:10495000012A07D0A24203D0032A05D1042202E093
:10496000022200E006221343034A8350034B019ABC
:10497000C250012343501FBD540500002405000010
:1049800010B50400FFF7D2FFA1222368A179D2005D
:1049900099506179064A2000995021790432995042
:1049A000044B19685A689B68FFF7CAFF10BDC046E0
:1049B0000C050000640500201FB5FFF7C1FF05B01E
:1049C00000BD70470368074A99501A00FC32D1684D
:1049D0000029FCD0A321C90058580023C0B2D360DD
:1049E0007047C0461C05000007B58022074BD20562
:1049F0001A6000229A6002321A710F230C3200935F
:104A00000349023B0348FFF76DFF07BD6405002023
:104A100000300040700500204D23037070470000F7
:104A200070B50C001600094D0178E4002800FEF76F
:104A3000B5FDE1B22800FEF7B4FC31002800FEF716
:104A4000B0FC2800FEF714FE70BDC046AC04002088
:104A5000032210B51100FFF7E3FF10BD70B50D0084
:104A600006000B4C0178ED002000FEF797FDE9B23F
:104A70002000FEF796FC2000FEF7FAFD31780122B7
:104A80002000FEF786FD2000FEF786FCC0B270BD58
:104A9000AC04002070B50500080106F091FE0B0083
:104AA00002001049002005F063FC04F085FA0321A0
:104AB00084B22800FFF7D2FF280080220321FFF7ED
:104AC000AFFF2800E2B20021FFF7AAFF2800220A68
:104AD0000121FFF7A5FF28007F220321FFF7A0FF98
:104AE00070BDC04600203C4110B50E210400FFF708
:104AF000B5FF08221043C2B20E212000FFF790FF3D
:104B000010BD10B5040099220721FFF789FF072186
:104B10002000FFF7A3FF993843425841C0B210BDAF
:104B200070B50D0002210400FFF798FF02210B0071
:104B30000343DAB2002D01D18843C2B20221200022
:104B4000FFF76EFF70BD000070B5114D04000E0040
:104B500001782800FEF722FD2800FEF789FD0028D5
:104B600001D0002512E02000FFF7CBFF051EF8D092
:104B70002000FFF7B9FF01212000FFF7D1FF20003F
:104B80003100FFF787FF2000FFF762FF280070BDAC
:104B9000AC04002010B50921FFF760FF10BD10B56F
:104BA0000400FFF7F7FF002803D000212000FFF7E3
:104BB00055FF10BD70B50E000A2115000400FFF767
:104BC0004DFF012D03D12A00B240104302E0012322
:104BD000B3409843C2B20A212000FFF721FF70BD05
:104BE00070B50E000B2115000400FFF737FF012DF3
:104BF00003D12A00B240104302E00123B34098439E
:104C0000C2B20B212000FFF70BFF70BD70B505008D
:104C10000C3504002800FFF7FFFE0023E21C25618D
:104C20006376A3762000D37770BD962110B504007B
:104C300089010069FFF788FF206901220021FFF741
:104C4000B9FF002220691100FFF7CAFFC82003F056
:104C500077FA012010BD10B504000122002100697F
:104C6000FFF7A8FF012200212069FFF7B9FF10BD5F
:104C700010B50122040000210069FFF79BFF00220C
:104C800020691100FFF7ACFF10BD002370B50400D0
:104C900003760069FFF77EFF00286AD02069FFF7DE
:104CA0007EFFA27E0300032A22D8100003F024FF17
:104CB00002050E15422B5CD106E04D2B02D00023DD
:104CC000A37656E0238C4D33238450E0218C9BB295
:104CD00059181B022184A38349E00820A18B9BB2B1
:104CE0001943A18381431429E9D1218C5B18EBE797
:104CF000A18B881C824202D11B02E38337E0C81CCF
:104D0000218C82422CD1E28B13439BB2E3839942E4
:104D1000D5D10123617823762078656903F0D6FC2C
:104D20002880E178A078656903F0D0FC688061791B
:104D30002079656903F0CAFCA880E179A0796569EA
:104D400003F0C4FCE880617A207A656903F0BEFC58
:104D50002881E17AA07A656903F0B8FC6881AEE742
:104D6000C9182184111FC9B20B2900D8635401321C
:104D7000A27670BD10B504004161FFF786FF207E6A
:104D8000013843425841C0B210BD002343630300C1
:104D900076223C331A70704770470000F8B5070060
:104DA000194E3C37050039783000FA22FEF75CFADC
:104DB00039780400FB223000FEF756FA2403000184
:104DC00039780443FC223000FEF74EFA288A23117A
:104DD0001B1AE4104000201A1222AC5E5B434443CD
:104DE000052014216A5E1B135343E4129B13E4183D
:104DF000AC63444320008030001204F045FF0349B7
:104E000004F0BCFAF8BDC0469C0400200000C84273
:104E100010B50400FFF7C2FF616B04F039F910BD53
:104E20000300F0B53C33070085B01978F7225748E6
:104E3000FEF770FA0123BC6B554A5B42E517A418D4
:104E40005D4106002B0022002000290004F070F8CC
:104E5000009001912023F85E009A019BC11704F095
:104E600067F8029003911E23F85E22002B00C11701
:104E700004F05EF8C30B9C464B04614642040B43AE
:104E80000298039980185941029003911823F85E03
:104E900022002B00C11704F04BF8030D0D031D4336
:104EA00004031A23F85E009A019BC11704F040F82E
:104EB0000B069C46020A60460B12024312196B4114
:104EC000190080230025100000221B028018594180
:104ED000FA8A2B0004F02CF8802336115B039E1B0A
:104EE000F2170C00D1072A0073081943F0071C239E
:104EF000FE5EF300029D039E52197341801A994190
:104F0000244A002304F014F86210E31703F0ECFFC6
:104F100000900191009A019B540BDB041C43019B00
:104F200022005D132623F85E2B00C11704F000F861
:104F300022002B0003F0FCFFCB01440E1C434D1656
:104F4000009A019BA4185D412423F85E009A019BFE
:104F5000C11703F0EDFF4E03C20C3243CB14A4186B
:104F60005D412906220A0A4322217C5E2B12E617A4
:104F7000250F3101294320018018594104F03AF8E6
:104F8000EE21890504F0C4FB05B0F0BD9C040020AF
:104F9000000CFEFF350C000010B5FFF741FF10BDFF
:104FA000030010B504003C331978FD222248FEF7B7
:104FB0007DF9A36B214A80039B182E21625E1205A6
:104FC000801A3021625E80215A43C901821A521828
:104FD000210080202C31097800025943C912091898
:104FE000200032300078D21340B243439B124B432F
:104FF00080219B1289035B182A20215E28344B43B1
:10500000802189015B189B135A43D3135B4320789B
:10501000DB1143431B11D31AD843C822C0170340E6
:105020005205934200DD1300181304F02DFEEA210F
:10503000890504F06DFB10BD9C04002000D4FEFF28
:1050400010B5FFF7ADFF10BDF8B50600444D3C3676
:105050000400317828008822FEF750F92082317848
:1050600028008A22FEF750F96082317828008C22CD
:10507000FEF74AF9A082317828008E22FEF73EF929
:10508000E082317828009022FEF73EF920833178C3
:1050900028009222FEF738F96083317828009422A4
:1050A000FEF732F9A083317828009622FEF72CF91A
:1050B000E083317828009822FEF726F920843178A1
:1050C00028009A22FEF720F96084317828009C227B
:1050D000FEF71AF9A084317828009E22FEF714F911
:1050E000E08431782800A122FEF7BEF8230028339F
:1050F000187031782800E122FEF706F960853178D2
:105100002800E322FEF7B0F823002C331870317822
:105110002800E422FEF7A8F831780700E5222800ED
:10512000FEF7A2F80F2210403B0107001F43E7855E
:1051300031782800D732FEF797F831780700E5225A
:105140002800FEF791F83F0100113843208631789E
:105150002800E722FEF788F832342070F8BDC046F8
:105160009C04002070B50400FFF76EFF074D3C342F
:10517000280021780123F222FEF750F82800217838
:105180003F23F422FEF74AF8012070BD9C04002062
:105190000200002302210932037443748382836175
:1051A000037703844362D3772332838503631372C7
:1051B0000387C3631377537713751C32C3641032AC
:1051C00013705370C36510321370537003671374F8
:1051D0005374021DD3678432137453749361137034
:1051E00053709360103213745374936110321376BA
:1051F00053761832137551749374D3741432536008
:105200009360D360136153619361123A13707047D6
:1052100010B542210148FDF7E5FF10BD9C040020B8
:105220000B00413B052B01D8373906E00B00080085
:10523000613B3038052B01D857390800704770B5ED
:1052400005782B002D3B5A425341C418200006F02C
:105250004CFD6423584323781A00303A092A01D8B8
:105260000134F8E72E2B0BD16378303B092B07D89C
:105270000A225343C018A378303B092B00D8C0182A
:105280002D2D00D1404270BDF8B50E00040006F08F
:105290002CFD6421050003F0BFFC13484843642142
:1052A0000700280003F032FC308023781A00303ADF
:1052B000092A01D80134F8E72E2B0BD10A48013412
:1052C0002578303D092D05D80A2103F01FFC454300
:1052D0007F19F4E7052078430321013003F016FC21
:1052E000002370603372F8BD8096980070B504009A
:1052F000092521002A001C31043006F09CFD200005
:1053000021002A002831103006F095FD02F000FF40
:10531000012360636370237070BD00000023D0B56B
:1053200004004370806806F08DFA00220C4B05F0F3
:105330001FF80600A0880F0006F042FA02000B00DA
:105340003000390004F0E8FC0200207B0B0000284C
:1053500002D080231B06CB1810001900D0BDC04618
:1053600065CDCD410023D0B504004370406906F0FF
:1053700069FA00220C4B04F0FBFF0600208A0F00A4
:1053800006F01EFA02000B003000390004F0C4FCE5
:105390000200207E0B00002802D080231B06CB18C1
:1053A00010001900D0BDC04665CDCD41836810B551
:1053B0004360040002F0ACFE0123E06063702370E0
:1053C00010BD836810B54360040002F0A1FE012304
:1053D000E0606370237010BD10B504000800FFF793
:1053E0002EFFA06010BD10B50400080006F07DFC83
:1053F000A06010BDC36810B58360040002F088FE91
:10540000012360606370237010BD10B504000800B4
:10541000FFF715FFE06010BDC36810B5836004009E
:1054200002F076FE012360606370237010BD10B53A
:105430000400080006F059FCE06010BD10B504003F
:105440001030210007F0C0FB02F062FE0123206251
:10545000A21D0534D377E37710BD10B5102207F0F5
:10546000D4FB10BD0300F7B5C1331B7804000093D3
:10547000002B6ED00300C2331978FFF7D1FE230052
:10548000C333050019782000FFF7CAFE23002D0161
:10549000C03328181B78C0B2834253D122002500A4
:1054A000EC321368D435013313602B78002B03D012
:1054B000083A1368013313602300D1331B78002BA3
:1054C00017D0012B2CD120004830FFF76FFF2000B0
:1054D0005830FFF776FF2B78002B21D020001030BA
:1054E000FFF704FF20006830FFF784FF20007830CA
:1054F00014E020005830FFF764FF2B78002B07D012
:1055000020001030FFF7F2FE20008830FFF772FF16
:1055100020009830FFF780FF2000A830FFF76AFFD7
:10552000DC342568002D00D1D2E02368A86A996A8E
:1055300007F040FB002800D0CAE02800FFF77EFFFC
:105540002D6BEFE7E83423680133236000230093D9
:10555000BEE0030007000500D23301931978D1376C
:10556000DC3500292ED10600C2365A49300007F03A
:1055700021FB002805D05849300007F01BFB00280C
:1055800001D101230DE05549300007F013FB00283D
:1055900006D05349300007F00DFB0223002800D14C
:1055A00000233B70D83423682B602C68002C00D17A
:1055B0008EE03100A06A07F0FDFA002800DB83E0EE
:1055C000236BF1E73878022867D02200C2321378C3
:1055D000002B62D040010843013828285DD803F031
:1055E0008BFA1521242A30454D53575C5C5C5C5C7A
:1055F0005C5C5C5C5C5C5C5C5C5C5C5C5C5C5C5CEB
:105600005C5C151B21242A30373B3F002000110031
:105610005830FFF7E1FE40E0413B5942594122003A
:10562000D43213E021002C3107E0533B5942594159
:10563000220034320AE0210038311000FFF724FE46
:105640002BE0573B5942594122004032117024E06F
:105650002000110068301EE02000110078301AE0B0
:10566000200011004830FFF7BEFE16E030229A42BB
:105670009B4122005B42D43213700EE020001100E7
:105680009830FFF7D4FE08E020001100A83002E0B7
:10569000200011008830FFF7B8FE2E68002E17D0CA
:1056A0002B68B06A996A07F085FA002810D1019B2F
:1056B000F26A1B789A420BDC04D121003000C2311F
:1056C000FFF7CBFE366BE9E7002801D000232B6003
:1056D0000098FEBDE4210100EA210100F021010053
:1056E000F62101000200F8B505000600E03213685B
:1056F000040001330F001360D335C136242923D0B1
:1057000004D80A290BD00D292BD108E02A2906D06C
:105710002C2926D10200C03213784B4013702B780D
:1057200000200E2B05D8E318C23318702000FFF7B5
:1057300099FED23423782A3F0133237000232B7043
:105740007B427B4133701DE0230000200222D233D4
:105750002870123B9874D43418705A7430702070CA
:1057600010E02B780D2B04D85A1CE318C2332A7092
:105770001F703078002804D1C03423785F40277030
:1057800000E00020F8BD0000F0B5140093B0194B04
:10579000002105001C2203A8029306F06AFB23786F
:1057A00002A9002B1FD000236768637064213800B2
:1057B00003F0ACF9642103F02FFA38000E006421E5
:1057C00003F02AFAFA23DB00C9188CB238000A4920
:1057D00003F09CF9C0B200900849330022000AA8E7
:1057E00007F0B8F90AA9280002F0BAFF280013B0A0
:1057F000F0BDC0464552520010270000FC210100B8
:1058000030B5050085B04835010004002A0001A824
:10581000FFF7BAFF2B78002B0AD00023E06C6B70E7
:10582000642103F0F9F9FA23DB00C9188CB201E016
:105830000124644201A802F04CFF200005B030BDF5
:1058400030B5050085B04835010004002A0001A8E4
:10585000FFF79AFF2B78002B0AD00023E06C6B70C7
:10586000642103F053F9642103F0D6F90C0001E040
:105870000124644201A802F02CFF200005B030BDD5
:1058800030B5050085B04835010004002A0001A8A4
:10589000FFF77AFF2B78002B07D00023E06C6B70AA
:1058A000064903F033F9C4B201E00124644201A8BF
:1058B00002F00FFF200005B030BDC04610270000E9
:1058C000F0B5150093B0184B002104001C2203A86A
:1058D000029306F0CEFA2B7802A9002B1ED00023EB
:1058E0006E686B701149300003F010F9642103F009
:1058F00093F930000F000E4903F008F96421C5B296
:10590000300003F003F9642103F086F93B000091B5
:105910002A0008490AA807F01DF90AA9200002F088
:105920001FFF200013B0F0BD4552520010270000A9
:1059300040420F000B22010030B5050085B05835FC
:10594000010004002A0001A8FFF7BAFF2B78002B02
:1059500007D00023E06D6B70064903F0D7F8C4B29E
:1059600001E00124644201A802F0B3FE200005B06A
:1059700030BDC04640420F0030B5050085B05835F7
:10598000010004002A0001A8FFF79AFF2B78002BE2
:105990000AD00023E06D6B70074903F0B7F864216B
:1059A00003F03AF90C0001E00124644201A802F07E
:1059B00090FE200005B030BD1027000030B5050076
:1059C00085B05835010004002A0001A8FFF778FFD0
:1059D0002B78002B0AD00023E06D6B70642103F05C
:1059E00095F8642103F018F90C0001E001246442E9
:1059F00001A802F06EFE200005B030BD70B51E009B
:105A000088B00D4B0400151C00211C2201A8009336
:105A100006F02FFA002E08D0281C05F04BFF0200DC
:105A20000B006846054907F095F86946200002F02A
:105A300097FE200008B070BD455252001A220100A6
:105A40000300002230B5883387B004005A7098688C
:105A50001D7805F0B5FE00220E4B04F089FC05F020
:105A60007DFF022301930533021C009321002B00CC
:105A700003A8FFF7C3FF039806F02CF904000D00FC
:105A800003A802F026FE2000290005F067FF07B0FA
:105A900030BDC0460000594030B5040087B010301A
:105AA000FFF73CFC05F05AFF0623257C01930533E4
:105AB000021C009321002B0003A8FFF79FFF03980F
:105AC00006F008F904000D0003A802F002FE200011
:105AD000290005F043FF07B030BD30B5040087B0A2
