:10000000000002209D810000C5810000C781000022
:10001000C9810000CB810000CD81000000000000FC
:10002000000000000000000000000000CF81000080
:10003000D181000000000000D3810000D5810000C4
:10004000D7810000D7810000118A0000D939000053
:10005000E5390000D78100009D840000D7810000B1
:10006000D7810000D7810000D7810000D781000030
:10007000D7810000D7810000D7810000D781000020
:10008000D781000045850000D7810000D78100009E
:10009000D7810000D7810000D7810000D781000000
:1000A000D7810000D7810000D7810000D7810000F0
:1000B000D7810000D7810000000000000000000090
:1000C000D7810000D7810000D7810000D7810000D0
:1000D000D7810000D7810000D78100000000000018
:1000E0000000000000000000000000000000000010
:1000F0000000000000000000000000000000000000
:1001000000000000000000000000000000000000EF
:1001100000000000000000000000000000000000DF
:10040000044B05481B1A062B02D9044B03B11847AD
:10041000704700BFDF000020DC000020000000006B
:1004200005490648091A891001EBD171491002D01B
:10043000034B03B118477047DC000020DC000020AC
:100440000000000010B5064C237843B9FFF7D8FF31
:10045000044B13B10448AFF300800123237010BD97
:10046000DC00002000000000EC06010008B5084B8D
:100470001BB108490848AFF300800848036813B966
:10048000BDE80840CCE7064B002BF9D09847F7E7CA
:1004900000000000E0000020EC060100D800002071
:1004A00000000000154B002B08BF134B9D46A3F521
:1004B000803A00218B460F461348144A121A09F05D
:1004C00054FD0F4B002B00D098470E4B002B00D053
:1004D00098470020002104000D000D48002802D09C
:1004E0000C48AFF3008009F0BBFC2000290008F0A5
:1004F0001BFC09F08FFC00BF000008000000022078
:100500000000000000000000DC0000207409002052
:10051000000000000000000008B507F0EDFF0F4AE2
:100520001368C31AC82B114616D90D4B1A78013A15
:10053000D2B21A700B4A1278022A07D01A78022A0D
:1005400001BF1A7802F1FF32D2B21A701B78FF2B6A
:1005500002BF034B03221A70086008BD8C01002003
:10056000060400200504002008B507F0C5FF0F4A67
:100570001368C31AC82B114615D90D4B1A780132CE
:10058000D2B21A700B4A1278022A06D01A78022ABE
:1005900001BF1A780132D2B21A701B78042B02BF45
:1005A000034B00221A70086008BD00BF90010020B4
:1005B000060400200504002010B504463C3008F075
:1005C00040FA04F1300008F03CFA04F1240008F08D
:1005D00038FA04F1180008F034FA04F10C0008F0BD
:1005E00030FA204608F02DFA204610BD10B504461A
:1005F00000F5907008F025FA04F58A7008F021FAE9
:1006000004F5847008F01DFA04F1FC0008F019FAF2
:1006100004F1F00008F015FA04F1E40008F011FA12
:1006200004F1D80008F00DFA04F1CC0008F009FA42
:1006300004F1C00008F005FA04F1B40008F001FA72
:1006400004F1A80008F0FDF904F19C0008F0F9F9A4
:1006500004F1900008F0F5F904F1840008F0F1F9D4
:1006600004F1780008F0EDF904F16C0008F0E9F904
:1006700004F1600008F0E5F904F1540008F0E1F934
:1006800004F1480008F0DDF904F13C0008F0D9F964
:1006900004F1300008F0D5F904F1240008F0D1F994
:1006A00004F1180008F0CDF904F10C0008F0C9F9C4
:1006B000204608F0C6F9204610BD00002DE9F04F95
:1006C0005A4D5B4985B0044608F0FDF9294604F10E
:1006D0000C0008F0F8F9294604F1180008F0F3F9C5
:1006E000294604F1240008F0EEF9294604F130000F
:1006F00008F0E9F9294604F13C0008F0E4F929463C
:1007000004F1480008F0DFF9294604F1540008F02C
:10071000DAF904F16C06294604F1600008F0D3F917
:1007200004F178072946304608F0CDF904F1840831
:100730002946384608F0C7F904F1900B294640468F
:1007400008F0C1F904F19C0A2946584608F0BBF9A3
:1007500004F1A8092946504608F0B5F9294648464B
:1007600008F0B1F9294604F1B40008F0ACF92946C3
:1007700004F1C00008F0A7F9294604F1CC0008F004
:10078000A2F9294604F1D80008F09DF9294604F1A0
:10079000E40008F098F9294604F1F00008F093F914
:1007A000294604F1FC0008F08EF9294604F584700E
:1007B000204D08F088F9594601A808F0C2F92946E9
:1007C00001A808F07CFA514608F06DFA294608F0B5
:1007D00076FA494608F067FA1749184D08F06FFA9B
:1007E000014604F58A7008F0ACF901A808F029F96F
:1007F000414601A808F0A5F9294601A808F05FFACA
:10080000394608F050FA294608F059FA314608F0FE
:100810004AFA014604F5907008F093F901A808F02F
:1008200010F9204605B0BDE8F08F00BFEAE30000F4
:1008300020E10000ADE3000003E2000052F40000FC
:1008400030B58BB00C460546414901A808F03BF98C
:100850000199404807F02EFF642007F065FE3D49EE
:1008600007A807F087FF07A808F0EBF83A4907A8A0
:1008700008F029F9294607A808F015FA374908F0C1
:100880001EFA214608F00FFA354908F018FA3549E2
:1008900008F015FA014601A808F044F907A808F085
:1008A000D0F801992B4807F005FFC82007F03CFE5F
:1008B0002C4904A808F007F90024264907A807F0E6
:1008C00059FF07A904A808F046F907A808F0B9F8E5
:1008D000254802F0E9FE01342449254802F032F9A6
:1008E000A4B24FF47A7007F01FFE142C05D02149F2
:1008F00004980AF009FA0028DFD01E4904980AF08B
:1009000003FA78B1184802F0CFFE1B49184802F0EC
:1009100063F94FF4FA6007F007FE124904A808F0E3
:1009200098F90CE0142C0AD10F4802F0BDFE1048D3
:10093000124902F07FF94FF4FA6007F0F5FD04A8C0
:1009400008F07FF801A808F07CF80BB030BD00BFBC
:1009500006E20000FC08002012E200001DE2000098
:10096000BDE30000EAE300006C05002021E2000086
:100970001C04002036E2000045E2000050E20000C6
:1009800038B50B4C0D46014604F1240008F0CAF8B6
:10099000294604F1180008F0C5F80649064807F092
:1009A00089FE4FF4FA70BDE8384007F0BDBD00BFC6
:1009B000F80000205BE20000FC080020F0B5604970
:1009C000604D614C8BB0064608F07DF807F094FD51
:1009D0000A22014601A808F006F901A904A808F0B6
:1009E000B0F8294604A808F06AF9314608F05BF926
:1009F00004F10C01074607A808F0A3F8294607A848
:100A000008F05DF904F1180108F04DF9294608F0E5
:100A100056F904F1240108F046F9294608F04FF987
:100A200004F1300108F03FF9294608F048F904F1D3
:100A30003C0108F038F9294608F041F904F1480171
:100A400008F031F9294608F03AF904F1540108F0A8
:100A50002AF9294608F033F904F16C0108F023F96A
:100A6000294608F02CF904F1780108F01CF9294610
:100A700008F025F904F1840108F015F9294608F079
:100A80001EF904F1900108F00EF9294608F017F953
:100A900004F19C0108F007F9294608F010F904F167
:100AA000A80108F000F9294608F009F904F1B40199
:100AB00008F0F9F8294608F002F904F1C00108F03D
:100AC000F2F8294608F0FBF804F1CC0108F0EBF845
:100AD000294608F0F4F804F1D80108F0E4F82946B2
:100AE00008F0EDF804F1E40108F0DDF8294608F01B
:100AF000E6F804F1F00108F0D6F8294608F0DFF82E
:100B000004F1FC0108F0CFF8294608F0D8F804F504
:100B1000847108F0C8F80146384608F0B3F8394641
:100B2000304608F0AFF807A807F08BFF04A807F0DD
:100B300088FF01A807F085FF30460BB0F0BD00BF6D
:100B4000EAE3000087E20000D002002010B5102187
:100B50008AB004460B4805F00FFD0B4A094912689C
:100B600001A8172305F0A0FD01A805F061FC30B134
:100B7000214601A807F094FD01A805F04DFC0AB03C
:100B800010BD00BF48060020C402002010B596B07A
:100B900002681149012304A805F086FD00240DA870
:100BA000012204A905F0D2FD0DA805F041FC80B199
:100BB0000DA805F011FC014601A807F084FF7E2175
:100BC00001A808F0ABF800B1013401A807F039FF23
:100BD000E5E7204616B010BD4806002030B51021CC
:100BE00091B00546224805F0C7FC224907A807F046
:100BF0006AFF07A8FFF7CAFF044607A807F021FF0E
:100C00001D4907A807F05FFFA1B20A22013104A81D
:100C100008F00DF804A907A808F045F81749184C82
:100C200008F04DF8014601A807F08BFF04A807F073
:100C300008FF07A807F005FF01A9204607F072FF8B
:100C400022680B49172307A805F02EFD07A805F019
:100C5000EFFB044630B1294607A807F021FD07A89D
:100C600005F0DAFB01A807F0ECFE204611B030BD1C
:100C70004806002089E200008EE2000099E20000B0
:100C8000C40200204B6843608B688360CB68C360FC
:100C900030B500F1100301F10F0200F11D0412F84C
:100CA000015F03F8015B9C42F9D10B6A036230BD1E
:100CB00070B504468EB010EE100A08F00FFA41EC41
:100CC000100B684606F0C4FF254B51EC100B0022B8
:100CD00008F058FA08F0F0FC0546DDE9000108F0DC
:100CE000EBFC0A22014602A807F0A1FF02A905A811
:100CF00007F027FF1B4905A807F0E1FF0A22064677
:100D0000294608A807F093FF08A9304607F0CBFF53
:100D1000154907F0D4FF06463C20684308F0CCF99B
:100D200041EC100B02210BA807F02EFF0BA9304657
:100D300007F0B9FF0D4907F0C2FF0146204607F052
:100D400000FF0BA807F07DFE08A807F07AFE05A8B3
:100D500007F077FE02A807F074FE20460EB070BDC3
:100D600000004E409EE20000A1E20000BDE3000052
:100D70009FED2B7ADFED2B7A20EE077A70EE277A43
:100D800030B5C7EE276A2DED028B16EE900A83B0C0
:100D9000B0EE408AF0EE608A08F0A0F941EC100B4A
:100DA00006F0AEFFDFED207A88EEA77ADFED1F7A3E
:100DB00067EE277A53EC102B17EE900ACDE900234B
:100DC00008F08CF9DDE9002308F0DCF9DFED187A92
:100DD00078EE277A044617EE900A0D4608F07EF961
:100DE00002460B462046294608F0F6FA0AA3D3E944
:100DF000002308F0C7F908F0A7FCDFED0E7A07EE34
:100E0000100A67EE277AFCEEE77A17EE900A03B035
:100E1000BDEC028B30BD00BF0000006066166B4069
:100E2000C3F58C41B81E73430000C8428195C3408E
:100E30003393884300007A4438B5334CA37943B9DF
:100E40001021324805F098FB10B10123A37100E096
:100E5000A0712F4802F028FCE5782DB94D212D48CE
:100E600002F012FB284BDD702B4B1B78022B0FD1AD
:100E70002378254D63B94221264802F005FB38B19D
:100E8000264804F061FB10B101232B7000E02870AC
:100E900063781D4D63B976211E4802F0F5FA38B12A
:100EA0001F4804F0E3FA10B101236B7000E0687092
:100EB000A378C3B95A21174802F0E6FA40B119489D
:100EC00005F020F908B1012300E00023A3700AE037
:100ED0005821104802F0D8FA28B101220C491248D2
:100EE00006F0A9FDEEE76379074D63B93C21094897
:100EF00002F0CAFA38B10D4801F02AFD10B1012301
:100F00006B7138BD687138BDFC03002048060020B5
:100F10006C050020A004002005040020D40100205E
:100F20009401002050010020080400201C0400202F
:100F300010B52248224C02F0B7FB7621214802F07E
:100F4000A3FA10B10123637000E060701E4B1B78A0
:100F5000022B08D142211B4802F096FA10B101235E
:100F6000237000E020705A21164802F08DFAC0B9B3
:100F70005821144802F088FA98B9A0703C21114811
:100F800002F082FA10B10123637100E060714D211B
:100F90000C4802F079FA10B10123E37004E0E0702C
:100FA00002E00123A370E9E7E378A07818406378B2
:100FB0001840237818406379184010BD6C05002054
:100FC000FC030020A004002005040020F0B52DED56
:100FD000028B87B0FFF7ACFF08B9FFF72DFFA04DDC
:100FE000A04802F061FBEB7813B3EC791CB99E4B7F
:100FF0001B78012B18D12B7A43B99C4803F084FF4E
:101000009A4803F097FF964B01221A721424984EC7
:101010009648314604F01EF8002840F04582013C15
:1010200014F0FF04F3D10FE0904803F091FF2C720D
:101030009049914807F00DFE8E49904807F009FE4F
:101040008C498F4807F005FE874B1E78022E40F032
:1010500055812B78002B00F01D818A488A4C04F0C2
:10106000E3FF884804F09DFD0A22014603A807F02B
:10107000DEFD03A904F16C0007F06DFD03A807F085
:10108000E0FC804804F06EFD0A22014603A807F048
:10109000CEFD03A904F1780007F05DFD03A807F079
:1010A000D0FC784804F03EFD0A22014603A807F070
:1010B000BEFD03A904F1840007F04DFD03A807F06D
:1010C000C0FC704804F0C2FD0A22014603A807F0E4
:1010D000AEFD03A904F1900007F03DFD03A807F061
:1010E000B0FC684804F0D0FD0A22014603A807F0CE
:1010F0009EFD03A904F19C0007F02DFD03A807F055
:10110000A0FC604804F0E1FD0A22014603A807F0B4
:101110008EFD03A904F1A80007F01DFD03A807F048
:1011200090FC584804F012FF0A22014603A807F079
:101130007EFD03A904F1600007F00DFD03A807F090
:1011400080FC504804F036FE4E48F0EE408A04F031
:1011500058FE0621B0EE408A03A8B0EE680A07F0F8
:1011600026FD03A904F10C0007F0F5FC03A807F025
:1011700068FCB0EE480A062103A807F018FD03A991
:1011800004F1180007F0E7FC03A807F05AFCB0EEE2
:10119000680A03A8FFF78CFD03A904F1240007F0F7
:1011A000DAFC03A807F04DFCB0EE480A03A8FFF7ED
:1011B0007FFD03A904F1300007F0CDFC03A807F080
:1011C00040FC304804F0C6FD314603A807F0EFFCB0
:1011D00003A904F13C0007F0BEFC03A807F031FCB2
:1011E000284804F035FEFDEEC07A0A2217EE901A68
:1011F00003A807F01CFD03A904F1540007F0ABFCA1
:1012000003A807F01EFC1F4804F052FE314603A855
:1012100007F0CDFC03A904F1480007F09CFC03A8EB
:1012200007F00FFC606D08F0D5FD0022174B51EC64
:10123000100B08F019FA30B907F05EF9144B984218
:1012400000F2578158E1606D08F0C4FD00220023D0
:1012500051EC100B08F026FA002840F04A81EBE729
:10126000FC0300206C05002005040020680100201C
:1012700040010020EAE30000C0030020CC0300206E
:10128000D8030020D4010020D00200200000344008
:10129000C0270900A649A74807F0DBFCA449A648D7
:1012A00007F0D7FCA249A54807F0D3FCA049A44801
:1012B00007F0CFFC9E49A34807F0CBFC9C49A2480D
:1012C00007F0C7FC9A49A14807F0C3FC9849A04819
:1012D00007F0BFFC96499F4807F0BBFC94499E4825
:1012E00007F0B7FC92499D4807F0B3FC90499C4831
:1012F00007F0AFFC8E499B4807F0ABFC6B78002BE6
:1013000031D0994803F0B6FE974803F0F1FE022170
:1013100003A807F04CFC03A9944807F01CFC03A8A1
:1013200007F08FFB904804F003F8022103A807F0B0
:101330003EFC03A98E4807F00EFC03A807F081FBD2
:10134000894803F0AFFFDFED8B7A022180EE270A98
:1013500003A807F02CFC03A9874807F0FCFB03A8AF
:1013600007F06FFB0BE07249804807F072FC704990
:101370007F4807F06EFC6E497F4807F06AFCAB7847
:101380007E4C002B00F087805A217D4802F07CF8CB
:1013900000283AD07B4804F04DFE002800F0C380BE
:1013A000784804F00FFF6378D3B1774CD4F8CC00C1
:1013B00008F010FDD4F8B40057EC106B08F00AFDEB
:1013C00051EC100B08F0C0F939460190304608F096
:1013D000BBF9DDED010A00EE100A6A4804F02AFFAD
:1013E000684804F049FE0A22014603A807F01FFCE2
:1013F00003A9664807F0AFFB03A807F022FB61488A
:1014000004F038FE0A2201463AE058215C4802F016
:101410003BF8002800F087806378EBB15A4CD4F891
:10142000B40008F0D7FCD4F8CC0057EC106B08F0EF
:10143000D1FC51EC100B08F087F939460190304689
:1014400008F082F9DDED010A00EE100AFFF790FCCA
:1014500001464F4806F054FB4D4C204606F036FB43
:10146000002860D00A22618803A807F0E0FB03A9E6
:10147000464807F070FB03A807F0E3FA21880A2228
:1014800003A807F0D4FB03A9424807F064FB03A8B4
:1014900007F0D7FA47E026493C4807F0DAFB244931
:1014A0003C4807F0D6FB3EE00A22F18803A807F08B
:1014B000BEFB03A9384807F04EFB03A807F0C1FAAA
:1014C0000A22318903A807F0B2FB03A9334807F0C9
:1014D00042FB03A807F0B5FA0A22718903A807F0B6
:1014E000A6FB03A92E4807F036FB03A807F0A9FACC
:1014F000AAE50123EB7101E70D490E4807F0A9FBAE
:101500000B490D4807F0A5FB09490C4807F0A1FB62
:1015100007490B4807F09DFB05490A4807F099FB6E
:1015200003490A48E8E607B0BDEC028BF0BD00BFF6
:10153000EAE30000DC020020E8020020F4020020C0
:10154000000300200C0300202403002018030020C7
:101550003C030020480300205403002060030020C7
:101560006C030020780300209401002084030020F5
:101570009C0300200000C84290030020FC030020D0
:10158000A004002050010020D0020020A803002069
:1015900008040020B4030020C0030020CC03002076
:1015A000D803002070B594B0FFF710FD6E4B1A7889
:1015B000022A1E4611AC40F083806C4DD5F8900095
:1015C00008F008FC00226A4B51EC100B08F04CF8B4
:1015D00080B16849204607F076FA05F1900120466F
:1015E00007F061FB014605F1900007F09BFA2046E9
:1015F00007F027FAD5F89C0008F0ECFB00225C4BC2
:1016000051EC100B08F030F870B15A49204607F041
:101610005AFA5949204607F046FB0146564807F05A
:1016200081FA204607F00DFAD5F8A80008F0D2FBA1
:1016300000224F4B51EC100B08F016F870B14D49D9
:10164000204607F040FA4D49204607F02CFB0146A2
:101650004A4807F067FA204607F0F3F9E86E08F009
:10166000B9FB0022424B51EC100B07F0FDFF70B1AB
:101670004049204607F027FA4149204607F013FB6E
:1016800001463F4807F04EFA204607F0DAF9A86F06
:1016900008F0A0FB0022364B51EC100B07F0E4FFE2
:1016A00070B13449204607F00EFA3649204607F05B
:1016B000FAFA0146334807F035FA204607F0C1F937
:1016C0003149367802A807F03CFA304902A807F001
:1016D000F6FA294907F0E7FA2C4907F0F0FA27490A
:1016E00007F0E1FA2A4907F0EAFA014608A807F0EC
:1016F00028FA284905A807F024FA274905A807F081
:10170000DEFA204907F0CFFA234907F0D8FA1C493E
:1017100007F0C9FA0EAD01460BA807F012FA1F49EF
:10172000284607F00EFA1E49204607F00AFA0BABCE
:1017300008AA3146019400951A4801F0A9FA2046FA
:1017400007F07FF9284607F07CF90BA807F079F934
:1017500005A807F076F908A807F073F902A807F0C2
:1017600070F914B070BD00BF05040020D002002045
:101770000000244017E300006C03002078030020E1
:101780003C0300204803002060030020ADE300007C
:1017900003E200005403002052F400002403002060
:1017A000300300201C040020F0B58FB0954D0BAC29
:1017B000032800F2CE80DFE800F0022972A5FFF7CF
:1017C000F1FE6D78904905A875B107F0BAF98F4917
:1017D00008A807F0B6F98E49204607F0B2F9009440
:1017E00008AB05AA01210DE007F0ABF9874908A86D
:1017F00007F0A7F98649204607F0A3F9009408AB43
:1018000005AA2946834801F079FCE9E1FFF7CAFE01
:10181000AD78814902A8CDB107F093F97F4902A8BC
:1018200007F04DFA014608A807F08BF97C4905A896
:1018300007F087F97B4905A807F041FA01462046E1
:1018400007F07FF9234608AA012118E007F079F98B
:10185000724902A807F033FA014608A807F071F9A7
:101860006F4905A807F06DF96E4905A807F027FA3A
:101870000146204607F065F9234608AA294665482F
:1018800001F0B6FC204607F0DCF805A807F0D9F80F
:1018900008A807F0D6F802A807F0D3F8A9E1FFF7E7
:1018A00081FE2B78002B00F067815F4E706D08F091
:1018B00091FA00225D4B51EC100B07F0D5FE002889
:1018C00000F05A81706D08F085FA0022002351EC77
:1018D000100B07F0E7FE002800F04E8106F10C0126
:1018E00005A807F02EF906F1180108A807F029F954
:1018F00006F13C01204607F024F9009408AB05AA44
:1019000000216AE1FFF74EFEED78494905A875B15F
:1019100007F017F9474908A807F013F94649204688
:1019200007F00FF9009408AB05AA01210DE007F0BC
:1019300008F9404908A807F004F93F49204607F094
:1019400000F9009408AB05AA2946324801F008FDC9
:1019500046E11426FFF726FE6F782B4905A877B1DC
:1019600007F0EFF8294908A807F0EBF828492046C6
:1019700007F0E7F8009408AB05AA01210DE007F095
:10198000E0F8224908A807F0DCF82149204607F0D2
:10199000D8F8009408AB05AA39461E4801F0AEFB02
:1019A000204607F04EF808A807F04BF805A807F006
:1019B00048F8013E322006F0B7FD16F0FF06C9D107
:1019C0001426FFF7EFFDAF78134902A8002F35D09A
:1019D00007F0B7F8114902A807F071F9014608A805
:1019E00007F0AFF80E4905A807F0ABF80D4905A8B8
:1019F00007F065F90146204607F0A3F8234608AA38
:101A0000012134E0FC030020840300209C0300201B
:101A1000900300201C040020A8030020A3E2000083
:101A2000B4030020A7E20000D002002000003440F0
:101A3000C0030020CC030020D803002007F081F869
:101A40006D4902A807F03BF9014608A807F079F8AC
:101A50006A4905A807F075F8694905A807F02FF944
:101A60000146204607F06DF8234608AA3946654826
:101A700001F0BEFB204606F0E4FF05A806F0E1FFFA
:101A800008A806F0DEFF02A806F0DBFF013E3220C8
:101A900006F04AFD16F0FF0693D11426FFF782FDEB
:101AA0002B78594905A873B107F04BF8574908A896
:101AB00007F047F85649204607F043F8009408AB72
:101AC00005AA00210DE007F03CF8504908A807F0EE
:101AD00038F84F49204607F034F8009408AB05AABF
:101AE0000221484801F06AF9204606F0AAFF08A83A
:101AF00006F0A7FF05A806F0A4FF013E322006F07D
:101B000013FD16F0FF06C9D11426FFF74BFDEF7841
:101B1000404905A877B107F014F83F4908A807F035
:101B200010F83E49204607F00CF8009408AB05AACF
:101B300001210DE007F005F8374908A807F001F882
:101B40003649204606F0FDFF009408AB05AA394649
:101B50002C4801F005FC204606F073FF08A806F0AB
:101B600070FF05A806F06DFF013E322006F0DCFC98
:101B700016F0FF06C9D13CE02B7853B1284D686DB3
:101B800008F028F90022274B51EC100B07F08AFDD2
:101B900080B91D4905A806F0D4FF1C4908A806F025
:101BA000D0FF1B49204606F0CCFF009408AB05AAE5
:101BB000022112E005F10C0105A806F0C2FF05F1B3
:101BC000180108A806F0BDFF05F13C01204606F00B
:101BD000B8FF009408AB05AA01210A4801F0EEF80D
:101BE000204606F02EFF08A806F02BFF05A806F0F9
:101BF00028FF0FB0F0BD00BFA3E20000B403002037
:101C0000A7E200001C040020DC020020E802002003
:101C10000C030020C0030020CC030020D8030020C8
:101C2000D00200200000344070B590B004460D464C
:101C300001A86C4906F047FF6B4B1878FFF7B4FD1D
:101C400029466A4806F06EFF69496A4806F032FD87
:101C500069490DA806F037FF0A2221460AA806F0B6
:101C6000E6FF0AA90DA807F01EF8644907F027F857
:101C7000014604A806F065FF0AA806F0E2FE0DA8DA
:101C800006F0DFFE5E490AA806F01DFF5D490AA8BE
:101C900007F009F85C4907F012F8544907F003F817
:101CA0005A4907F00CF85A4907F009F8594906F063
:101CB000FAFF594907F003F8564906F0F4FF57496F
:101CC00006F0FDFF534906F0EEFF554906F0F7FF19
:101CD000504906F0E8FF534906F0F1FF524906F07B
:101CE000E2FF4C4906F0DFFF504906F0E8FF4949A2
:101CF00006F0D9FF4E4906F0E2FF0A220646069991
:101D00000DA806F082FF0DA9304606F0CCFF414930
:101D100006F0C9FF3F4906F0C6FF04A906F0C3FF5D
:101D2000014607A806F00DFF0DA806F08AFE0AA8D6
:101D300006F087FE3F490DA806F0C5FE09990A2264
:101D400002310AA806F061FF0AA90DA806F0ABFF50
:101D50000146284806F0A4FC0AA806F072FE0DA869
:101D600006F06FFE322006F0DFFB07A9214806F0DF
:101D700097FC20490DA806F0FDFC0DA901A806F06E
:101D8000EAFE0DA806F05DFE2B49019808F0BCFFA5
:101D900090B125490AA806F0D4FE1A490DA806F00C
:101DA000D0FE0DA90AA8FEF7EBFD0DA806F049FE2E
:101DB0000AA806F046FE03E00A4901A806F049FF1A
:101DC00007A806F03EFE04A806F03BFE1A4901985B
:101DD00008F09AFF00287FF42FAF01A806F031FE2B
:101DE00010B070BDEAE300000604002028010020C6
:101DF000ABE20000FC080020B8E20000B1E3000004
:101E0000C3E200001C010020D0E20000D8E2000084
:101E1000DFE2000034010020E9E2000004E30000FA
:101E200019E3000025E30000100100203CE300005E
:101E30005AE300006BE3000077E3000030B591B097
:101E400004466D4901A806F03EFE6C4B1878FFF77A
:101E5000ABFC21466A4806F065FE6A496A4806F00E
:101E600029FC642006F060FB68490DA806F02BFEF3
:101E700067490DA806F017FF664906F020FF66497E
:101E800006F011FF654906F01AFF014604A806F0A6
:101E900058FE0DA806F0D5FD61490AA806F013FE0C
:101EA00060490AA806F0FFFE5F4906F008FF5449A2
:101EB00006F0F9FE5D4906F002FF5D4906F0FFFEFF
:101EC0005C4906F0F0FE5C4906F0F9FE594906F05F
:101ED000EAFE5A4906F0F3FE564906F0E4FE584978
:101EE00006F0EDFE534906F0DEFE564906F0E7FE29
:101EF000554906F0D8FE4F4906F0D5FE534906F085
:101F0000DEFE4C4906F0CFFE514906F0D8FE0A220B
:101F1000054606990DA806F078FE0DA9284606F09C
:101F2000C2FE444906F0BFFE424906F0BCFE04A9C9
:101F300006F0B9FE014607A806F003FE0DA806F05C
:101F400080FD0AA806F07DFD42490DA806F0BBFD04
:101F500009990A2202310AA806F057FE0AA90DA81B
:101F600006F0A1FE0146284806F09AFB0AA806F0F2
:101F700068FD0DA806F065FD322006F0D5FA07A928
:101F8000214806F08DFB20490DA806F0F3FB0DA9B2
:101F900001A806F0E0FD0DA806F053FD2E490198BA
:101FA00008F0B2FE90B128490AA806F0CAFD1D4902
:101FB0000DA806F0C6FD0DA90AA8FEF7E1FC0DA8C4
:101FC00006F03FFD0AA806F03CFD03E00A4901A81F
:101FD00006F03FFE07A806F034FD04A806F031FD28
:101FE0001D49019808F090FE00287FF42EAF01A84B
:101FF00006F027FD11B030BDEAE300000604002022
:1020000028010020ABE20000FC08002089E300006A
:10201000DC020020A0E30000E8020020AFE30000A3
:10202000C3E200001C010020D0E20000D8E2000062
:10203000DFE2000034010020E9E2000004E30000D8
:1020400019E3000025E30000100100203CE300003C
:102050005AE300006BE3000077E3000070B590B036
:1020600004460D4601A86A4906F02DFD694B187813
:10207000FFF79AFB2946684806F054FD674968480F
:1020800006F018FB642006F04FFA66490DA806F02A
:102090001AFD21460DA806F006FE634906F00FFE64
:1020A000014604A806F04DFD0DA806F0CAFC5F49E4
:1020B0000AA806F008FD5E490AA806F0F4FD5D498D
:1020C00006F0FDFD544906F0EEFD5B4906F0F7FD14
:1020D0005A4906F0F4FD5A4906F0E5FD594906F063
:1020E000EEFD574906F0DFFD574906F0E8FD54497B
:1020F00006F0D9FD554906F0E2FD514906F0D3FD41
:10210000534906F0DCFD534906F0CDFD4C4906F07D
:10211000CAFD514906F0D3FD494906F0C4FD4F49B7
:1021200006F0CDFD0A22064606990DA806F06DFDC3
:102130000DA9304606F0B7FD414906F0B4FD40490F
:1021400006F0B1FD04A906F0AEFD014607A806F0B1
:10215000F8FC0DA806F075FC0AA806F072FC4049D0
:102160000DA806F0B0FC09990A2202310AA806F06F
:102170004CFD0AA90DA806F096FD0146284806F078
:102180008FFA0AA806F05DFC0DA806F05AFC322072
:1021900006F0CAF907A9224806F082FA20490DA8DC
:1021A00006F0E8FA0DA901A806F0D5FC0DA806F086
:1021B00048FC2C49019808F0A7FD90B125490AA8D0
:1021C00006F0BFFC1A490DA806F0BBFC0DA90AA831
:1021D000FEF7D6FB0DA806F034FC0AA806F031FC89
:1021E00003E00B4901A806F034FD07A806F029FC1E
:1021F00004A806F026FC1B49019808F085FD00287C
:102200007FF434AF01A806F01CFC10B070BD00BF15
:10221000EAE300000604002028010020ABE20000F1
:10222000FC080020B3E30000BFE30000C3E20000AD
:102230001C010020D0E20000D8E20000DFE2000034
:1022400034010020E9E2000004E3000019E300008B
:1022500025E30000100100203CE300005AE30000E9
:102260006BE3000077E3000030B59F4C63788DB0DE
:10227000002B42D09D4DD5F8C00007F0ABFD9C4926
:1022800009A88DED000B06F01EFC9DED000B51EC36
:10229000100B07F011FA09A9FFF7C6FC09A806F010
:1022A000D0FBD5F8B40007F095FD924909A88DED53
:1022B000000B06F008FC9DED000B51EC100B07F035
:1022C000FBF909A9FFF7B0FC09A806F0BAFBD5F89D
:1022D000CC0007F07FFD884909A88DED000B06F0C2
:1022E000F2FB9DED000B51EC100B07F0E5F909A98D
:1022F000FFF79AFC09A806F0A4FBE378002B49D06D
:10230000794BDB791BB97D4B1B78012B42D1774D83
:10231000D5F8FC0007F05EFD794909A88DED000BAA
:1023200006F0D1FB9DED000B51EC100B07F0C4F94A
:1023300009A9FFF779FC09A806F083FBD5F8080185
:1023400007F048FD6F4909A88DED000B06F0BBFBB7
:102350009DED000B51EC100B07F0AEF909A9FFF74A
:1023600063FC09A806F06DFBD5F8F00007F032FD1C
:10237000654909A88DED000B06F0A5FB9DED000B4E
:1023800051EC100B07F098F909A9FFF74DFC09A8CB
:1023900006F057FBA37863B3544DD5F8E40007F07B
:1023A00019FD5A4909A88DED000B06F08CFB9DED37
:1023B000000B51EC100B07F07FF909A9FFF734FC73
:1023C00009A806F03EFBD5F8D80007F003FD5049F8
:1023D00009A88DED000B06F076FB9DED000B51EC8E
:1023E000100B07F069F909A9FFF71EFC09A806F010
:1023F00028FB2378002B74D0404B1B78022B70D124
:102400003A4C606D07F0E6FC0022424B51EC100B99
:1024100007F02AF950B1606D07F0DCFC00220023C0
:1024200051EC100B07F03EF900284FD13A4903A8B0
:1024300006F087FB394903A806F041FC384906F04D
:1024400032FC364906F03BFC364906F02CFC364996
:1024500006F035FC014606A806F073FB334909A8CF
:1024600006F031FB09A906A8FFF7F8FD09A806F058
:10247000E8FA06A806F0E5FA03A806F0E2FA2C4905
:1024800003A806F05EFB2B4903A806F018FC2A49B6
:1024900006F009FC274906F012FC284906F003FC67
:1024A000014606A806F04DFB254909A806F00BFBDE
:1024B00009A906A8FFF7D2FD09A806F0C2FA06A8E6
:1024C00006F0BFFA03A806F0BCFA0AE01D4909A805
:1024D00006F0F9FA09A8FFF7B1FC09A806F0B1FA6D
:1024E000A4E70DB030BD00BFFC030020D0020020E7
:1024F000C2E30000C4E30000C6E3000005040020BE
:102500007EF60000CAE3000031F40000C9E30000D9
:10251000CCE3000000003E4060030020ADE300007B
:102520006C0300207803002003E20000CFE30000EA
:102530005403002052F40000480300203C03002014
:10254000D1E30000D3E300001FB505F0D5FFFEF78F
:102550003DFDFFF789FE0D4B1878FFF725F905F0D3
:10256000CBFF0B4A136840F6B831C31A8B4209D926
:10257000106001A8FEF722FA01A8FEF7E7FA01A809
:1025800006F05FFA05B05DF804FB00BF060400200A
:102590004C01002070B52448244C254E254D05F0F3
:1025A000D5F9254802F0A1FC244802F05DFD24483D
:1025B00002F074FF234803F039FD2046FEF77EF851
:1025C0002046214C2149324607F0E0FB29462046AF
:1025D00006F079FA294604F10C0006F074FA29464F
:1025E00004F1180006F06FFA294604F1240006F001
:1025F0006AFA174904F1300006F065FA154904F14A
:102600003C0006F060FA2046134C1449324607F0AD
:10261000BDFB2946204606F056FA324620461049B0
:10262000BDE8704007F0B2BB08040020D0020020D3
:1026300000000020EAE3000068010020940100206F
:10264000D401002050010020F8000020ED0500001A
:10265000DCE30000E8E30000C4020020B90500004C
:10266000438A000000B5102193B0584803F084FF5E
:1026700030B9574801F018F8564800F043FEA2E080
:102680001021524803F078FF684603F099FE524942
:102690004E4804F04DF8F0B14C494F4A09A80123C7
:1026A00004F002F809A96846FEF7ECFA684603F060
:1026B000A0FE38B1684603F041FEC1B2474806F0BB
:1026C000E5FAF3E7684603F0A7FE414800F0ECFFA7
:1026D000404800F0EFFD10213C4803F04DFF404919
:1026E0003A4804F025F8F0B138493D4A09A80123D9
:1026F00003F0DAFF09A96846FEF7C4FA684603F05A
:1027000078FE38B1684603F019FEC1B2354806F0CC
:10271000BDFAF3E7684603F07FFE2D4800F0C4FFE2
:102720002C4800F0C7FD1021284803F025FF2E4952
:10273000264803F0FDFFF0B124492B4A09A80123E4
:1027400003F0B2FF09A96846FEF79CFA684603F059
:1027500050FE38B1684603F0F1FDC1B2234806F0DF
:1027600095FAF3E7684603F057FE194800F09CFF1E
:10277000184800F09FFD1021144803F0FDFE1C498D
:10278000124803F0D5FFF0B11049194A09A80123F6
:1027900003F08AFF09A96846FEF774FA684603F059
:1027A00028FE38B1684603F0C9FDC1B2114806F0F1
:1027B0006DFAF3E7684603F02FFE054800F074FF5A
:1027C000044800F077FD13B05DF804FB48060020D4
:1027D0006C0500201C040020EBE30000F800002042
:1027E000FFE300000401002013E400001C010020AE
:1027F00024E400001001002070B54FF4E13186B0F0
:102800003A483B4C3B4D05F0CBFF0021052005F03D
:10281000AFFE00210B2005F0ABFE374800F044FF6F
:10282000364800F095F8354800F0AEF84FF4FA60FD
:1028300005F07AFE314800F02DF92646237893B949
:10284000052005F0DBFE08B9012323700B2005F0FD
:10285000D5FE08B90223337005F04EFEA842EDD92B
:10286000234B02221A70FFF7FDFE2549684606F049
:1028700068F9244903A806F064F903A96846FDF73E
:10288000DFFF03A806F0DDF8684606F0DAF81E4917
:10289000684606F056F91D4903A806F052F903A947
:1028A0006846FEF76DF803A806F0CBF8684606F018
:1028B000C8F804221649052005F080FD04221549B8
:1028C0000B2005F07BFDFEF7B7FA4FF47A7005F0A8
:1028D0002BFE114903A806F034F903A8FEF77EF990
:1028E00003A806F0AEF806B070BD00BFFC080020DB
:1028F0000504002020BF02006C0500201C040020FD
:10290000F8000020040100201C010020100100201C
:102910001905000069050000D002002010B504462A
:10292000103006F08EF8201D06F08BF8204610BD02
:1029300038B5064D04462946043006F0C4F8294649
:1029400004F1100006F0BFF8204638BDEAE30000AD
:1029500007B53C210A4800F097FD60B101230093C0
:102960003C220221074801F0CBFD064801F0BAFDE8
:10297000044802F07FF8002003B05DF804FB00BFBC
:10298000A0040020380400201FB504463C21204844
:1029900000F07AFD002839D01E4801F0A3FD012186
:1029A0001C4801F025FC01211A4801F026FC0022F8
:1029B0001D21184801F019FC1749164805F084FE3E
:1029C00009221021134801F010FC1034134911485A
:1029D00005F054FE0021204606F084F921460D48FA
:1029E00005F050FE012302930D4B0A481B7801931A
:1029F0000C4B1B7800930E220B4B002101F007FAC1
:102A0000044804B0BDE8104002F034B804B010BD72
:102A1000A00400203804002016F4000022F4000076
:102A2000050000200400002004E500002DE9F0432B
:102A300085B088460CAD3C21144891461C46E0CD3B
:102A400000F022FDF0B10121114801F0D6FB002277
:102A500011460F4801F0C9FB49460D4805F02AFE12
:102A60002DB2012324B202930195009443463AB259
:102A700031B2074801F0CBF9054805B0BDE8F04395
:102A800001F0F8BF05B0BDE8F08300BFA00400204E
:102A90003804002010B5164C204601F023FD00221A
:102AA0001146204601F0A1FB1249204605F002FE26
:102AB0002046022101F09CFB12222046002101F059
:102AC00094FB0D49204605F0F5FD28222046002103
:102AD00001F08BFB0949204605F0ECFD2046012161
:102AE00001F086FB2046BDE8104001F0C3BF00BFE7
:102AF0003804002056F400006CF4000076F4000066
:102B000038B50B4C0B4D4FF0FF31204601F0ECFB7C
:102B10002046094C09492A4607F038F92046FFF7B4
:102B200007FF2A4620460649BDE8384007F02EB97F
:102B300038040020000000201C0400203543000061
:102B40001D2900002DE9FF4104460D461D483C218A
:102B500000F09AFC90B300211B4801F035FC1A48A4
:102B600001F0C0FC382608274FF00D080121164857
:102B700001F03EFB2A467023144920468DE8C0012F
:102B8000FFF754FF962005F0CFFC2A46702310492A
:102B900020468DE8C001FFF749FF962005F0C4FCF0
:102BA00020468DE8C00170232A460A49FFF73EFF00
:102BB000962004B0BDE8F04105F0B6BC04B0BDE815
:102BC000F08100BFA004002038040020F4F00000D1
:102BD000E4ED0000C4E8000030B5044685B00D46C1
:102BE00011483C2100F050FCE0B100210F4801F0F9
:102BF000EBFB0E4801F076FC02210C4801F0F8FADC
:102C0000382108220D238DE80E00204670232A4625
:102C10000749FFF70BFF40F2DC5005B0BDE830403C
:102C200005F082BC05B030BDA004002038040020AF
:102C3000C4E8000030B5044685B00D4611483C217B
:102C400000F022FCE0B1104801F04CFC02210E48DB
:102C500001F0CEFA01210C4801F0B6FB3821082220
:102C60000D238DE80E00204670232A460749FFF702
:102C7000DDFE40F2DC5005B0BDE8304005F054BC4C
:102C800005B030BDA004002038040020C4E80000D6
:102C90002DE9F0414148069D079C88463C21174696
:102CA0001E4600F0F1FB002876D000213C4801F0E0
:102CB0008BFB3B4801F016FC0121394801F09DFADD
:102CC000B8F1020F3AD10121354801F091FA002202
:102CD0001146334801F089FA3946314805F0E0FCE5
:102CE000082200212E4801F080FA31462C4805F0D8
:102CF000D7FC002246212A4801F077FA29492848C2
:102D000005F0D8FC00226421254801F06EFA26491E
:102D1000234805F0CFFC08224621214801F065FA3E
:102D200029461F4805F0BCFC082264211C4801F01C
:102D30005CFA21461A4805F0B3FC0CE00221184861
:102D400001F056FA1B211648002201F04EFA1749ED
:102D5000134805F0AFFC0121114801F049FA38226F
:102D600000210F4801F041FA11490D4805F0A2FC7D
:102D7000382237210A4801F038FA0E49084805F090
:102D800099FC68210648382201F02FFA0A490448C4
:102D9000BDE8F04105F08EBCBDE8F081A004002044
:102DA0003804002081F4000086F400008BF4000059
:102DB00092F400002DF400001EF400002DE9F04113
:102DC00088B00C46AA480E9E3C2190461F4600F053
:102DD0005BFB002800F088810021A64801F0F4FA8E
:102DE0000121A44801F004FA0121A24801F005FAEA
:102DF000002C40F03381D8F8000006F0EBFF55ECD2
:102E0000104B0022002310EE100A294606F02CFC7D
:102E100038B10022984B2046294606F043FC002892
:102E20003FD10022944B2046294606F01DFC38B1C4
:102E30000022924B2046294606F034FC00283ED161
:102E400000228E4B2046294606F018FC30B1202186
:102E50001822884801F0C9F9894936E00022002388
:102E60002046294606F014FC68B10022854B204616
:102E7000294606F0F9FB30B1202118227D4801F0E7
:102E8000B4F9814921E000227E4B2046294606F014
:102E9000FFFB68B100227D4B2046294606F0E4FB8B
:102EA00030B120211822734801F09FF978490CE0D5
:102EB0000022764B2046294606F0EAFB98B12021F5
:102EC00018226C4801F091F9724905A805F0FBFD44
:102ED000414605A805F0E7FE0146664805F0E0FB1F
:102EE00005A805F0AEFD386806F074FF55EC104BF0
:102EF0000022002310EE100A294606F0B5FB38B177
:102F000000225D4B2046294606F0CCFB00283FD12D
:102F10000022594B2046294606F0A6FB38B1002274
:102F2000564B2046294606F0BDFB00283ED1002224
:102F3000524B2046294606F0A1FB30B12022114613
:102F40004C4801F052F9544936E000220023204653
:102F5000294606F09DFB68B100224A4B20462946CF
:102F600006F082FB30B120221146424801F03DF9C3
:102F70004A4921E00022434B2046294606F088FBBF
:102F800068B10022414B2046294606F06DFB30B166
:102F900020221146374801F028F941490CE000226F
:102FA0003A4B2046294606F073FB98B12022114681
:102FB000304801F01AF93B4905A805F084FD39466F
:102FC00005A805F070FE01462A4805F069FB05A832
:102FD00005F037FD306806F0FDFE51EC100B06F0F1
:102FE0006BFB00F10903082B1AD900F16303582B7E
:102FF0001FD910F1630F06DA202128221D4801F0A5
:10300000F4F829491BE0092806D82021282219486C
:1030100001F0EBF8254912E0A0F10A03592B06D87C
:1030200020212822134801F0E0F8214907E0632815
:103030004CDD202128220F4801F0D7F81D4905A8B2
:1030400005F041FD314605A805F02DFE0146094871
:1030500005F026FB05A805F0F4FC37E0012C4FF045
:1030600020022BD13121034801F0BFF812492AE098
:10307000A004002038040020000024C0000059C033
:10308000A9F4000000002440AFF400000000594003
:103090009AF40000A2F40000C7F40000CDF4000090
:1030A000B8F40000C0F40000E5F40000EBF4000008
:1030B000D6F40000DEF40000F4F4000023210C48F4
:1030C00001F093F80B490A4805F0F4FA1E211B227F
:1030D00001238DE80E000648074B1422002100F062
:1030E00096FE034801F0C6FC08B0BDE8F08100BFC1
:1030F0003804002000F5000098E4000070B5354861
:1031000088B00E463C2115461C4600F0BDF900284B
:103110005DD00021304801F057F901212E4801F01F
:1031200067F8002E3CD0182230212B4801F05DF8C2
:10313000294605A805F005FD284905A805F0BFFDAD
:103140000146254805F0ACFA05A805F07AFC2022D6
:103150003021214801F049F8214605A805F0F1FC8D
:103160001F4905A805F0ABFD01461B4805F098FA7C
:1031700005A805F066FC28223021174801F035F833
:103180000C9905A805F0DDFC164905A805F097FD8A
:103190000146114805F084FA05A805F052FC08E044
:1031A00025210D48202201F020F80F490A4805F09A
:1031B00081FA1E21182201238DE80E0006480B4BD0
:1031C0001722002100F023FE034801F053FC08B051
:1031D00070BD00BFA0040020380400203EF50000B0
:1031E00044F500004BF5000050F5000038E4000005
:1031F00070B52A4888B00E463C2115461C4600F0A2
:1032000043F9002848D00021254801F0DDF80121CC
:10321000234800F0EDFF46B31B222821204800F090
:10322000E4FF204905A805F04EFC294605A805F055
:103230003AFD01461A4805F033FA05A805F001FCED
:1032400026222821164800F0D0FF174905A805F0CE
:103250003AFC214605A805F026FD0146104805F078
:103260001FFA05A805F0EDFB08E025210C482022F7
:1032700000F0BBFF0D490A4805F01CFA1E21182278
:1032800001238DE80E000648094B1722002100F0AB
:10329000BEFD034801F0EEFB08B070BDA0040020A5
:1032A0003804002060F5000067F500006EF50000AE
:1032B00004E800001FB504463C210E4800F0E4F885
:1032C000A8B10D4801F00EF902210B4800F090FF63
:1032D0000021094801F078F81223029301932C236E
:1032E0000093064A06495A232046FFF79FFB04B085
:1032F00010BD00BFA0040020380400209CF5000091
:10330000D4EB00001FB504463C21114800F0BCF886
:10331000E0B1104801F0E6F802210E4800F068FF25
:1033200001210C4801F050F81223029301932C2341
:10333000009320465A23084A0849FFF777FB40F2DA
:10334000DC5004B0BDE8104005F0EEB804B010BD8C
:10335000A004002038040020A6F50000D4EB0000F3
:1033600070B5414888B00E463C2115461C4600F019
:103370008BF8002875D000213C4801F025F8012188
:103380003A4800F035FF002E54D018222621374845
:1033900000F02BFF364905A805F095FB294605A846
:1033A00005F081FC0146314805F07AF905A805F0E1
:1033B00048FB18225F212D4800F017FF2D492B48AC
:1033C00005F078F920222621284800F00EFF2A492E
:1033D00005A805F078FB214605A805F064FC014628
:1033E000224805F05DF905A805F02BFB20225F219E
:1033F0001E4800F0FAFE1F491C4805F05BF9282220
:1034000020211A4800F0F1FE1C4905A805F05BFBDD
:103410000C9905A805F047FC0146144805F040F951
:1034200005A805F00EFB5F212822104800F0DDFE04
:10343000104905E0252120220C4800F0D6FE104955
:103440000A4805F037F91E21182201238DE80E00E5
:1034500006480C4B1722002100F0D9FC034801F06C
:1034600009FB08B070BD00BFA00400203804002094
:1034700074F600007AF6000080F6000086F6000080
:103480008DF6000064E8000038B50D460A240A48AD
:10349000294600F0E2F9084800F046FA38B1013C4C
:1034A00014F0FF0405D0012005F03EF8EFE70120FD
:1034B00038BD204638BD00BF6C05002070B5094CF2
:1034C000164620461D4600F0C8F93146204600F059
:1034D000AFF82946204600F0ABF82046BDE8704022
:1034E00000F022BA6C05002038B5074C154620467E
:1034F00000F0B3F92946204600F09AF82046BDE8CE
:10350000384000F011BA00BF6C05002038B50D48F6
:1035100015460C4600F0A1F929460A4800F088F843
:10352000084800F001FA01222146064800F092F90D
:10353000044800F07AF818B1024800F08BF8C0B2E5
:1035400038BD00BF6C05002038B5104815460C4644
:1035500000F083F929460D4800F06AF80B4800F0A6
:10356000E3F902222146094800F074F9074800F007
:103570005CF848B1054800F06DF884B2034800F0EB
:1035800069F840EA042080B238BD00BF6C05002015
:1035900008B5FFF7D9FF40BA80B208BD08B5FFF7FC
:1035A000F7FF00B208BD000038B5114815460C46BB
:1035B00000F053F929460E4800F03AF80C4800F0A4
:1035C000B3F9032221460A4800F044F9084800F004
:1035D0002CF860B1064800F03DF80402044800F001
:1035E00039F820430402024800F034F8204338BD83
:1035F0006C0500202DE9F84380460D46174601EB87
:1036000002090C464C45A4EB050609D0D8F8003059
:1036100014F8011B1B68404698470028F2D100E0CF
:103620003E463046BDE8F8837047203005F076B856
:1036300038B5437F0D462BB100F16804204605F0F4
:103640007BF808B1002038BD2046294605F049F82E
:10365000012038BD203005F053B8203005F064B8A3
:103660002DE9F0411E464FF47A73002583600D4B1F
:103670004560044640F8203B8846174605F026F88A
:1036800004F1680005F022F89DF8183063769DF883
:103690001C30A376C4F810806761267665772046D3
:1036A000BDE8F081A8F60000F0B5837E2D4C2E4DCC
:1036B00054F82320437E54F8233012F0200F14BF17
:1036C0002F464FF0A04702F01F0213F0200F03F027
:1036D0001F0308BF4FF0A04502F5E07203F5E07349
:1036E000012140F20C66C17647F8226045F823605C
:1036F00003694FF0CC72C3F824250622C3F80025D5
:10370000827E54F82220C3F80825427E54F82220F5
:10371000C3F80C25027E53B2D2B202F01F055C0939
:10372000A9406034114D002B45F8241006DA104BE7
:1037300002F00F02134440221A7606E003F16043C0
:1037400003F56143402283F80023037E01215AB22E
:1037500003F01F0301FA03F35209044941F8223030
:10376000F0BD00BF780201000003005000E100E05E
:10377000FCEC00E0C37EABB103690022C3F8002576
:10378000094A914207D9094A914294BF4FF080619A
:103790004FF0C86101E04FF0CC710622C3F8241548
:1037A000C3F80025704700BFA086010090D0030039
:1037B0002DE9F8430646894698461546B2B100F110
:1037C0002007384604F098FF34690122C4F8889530
:1037D0002262C4F83475C4F838552260D4F84C31EC
:1037E0003BB9D4F82431002BF8D002E01046BDE8F4
:1037F000F8830023C4F84C31D4F85C311BB9D4F8F9
:103800002431002BF8D00023C4F85C310122B8F138
:10381000000F02D1D4F8243143B16261D4F80431ED
:10382000002BFBD00023C4F8043107E0E261D4F898
:103830004831002BFBD00023C4F84831D4F82431A0
:1038400013B10023C4F82431D4F83C053066C0B26B
:10385000BDE8F8830123FFF7ABBF10B5044680F83D
:10386000B010683004F048FF0123637710BD2DE9E4
:10387000F041002305694377012790F8B030C5F87F
:10388000883500F1680604462F623046C5F8446565
:10389000884604F043FF2369C5F848059F60D3F8C4
:1038A00050211AB9D3F82421002AF8D00022C3F8F5
:1038B0005021304604F032FF236930B1D3F8602143
:1038C0001AB9D3F82421002AF8D00022C3F86021C5
:1038D0000122B8F1000F02D1D3F8241141B15A618D
:1038E000D3F80421002AFBD00022C3F8042107E00A
:1038F000DA61D3F84821002AFBD00022C3F848211E
:10390000D3F8240170B10022C3F82421D3F8C404F1
:10391000C3F8C404022805D0042814BF04200320DF
:10392000BDE8F081BDE8F0810121FFF7A0BF436948
:10393000D3F8642170B5044682B10022012500F15C
:103940002006C3F864210577304604F0D5FE63698C
:103950004022C3F83465C3F838251D636369D3F882
:103960006821D2B10025C3F8685104F1680601232B
:1039700063772577304604F0BFFED4F8B43003B146
:103980009847657765693046C5F8446504F0C6FE1A
:103990006369C5F8480501225A636369D3F80421B5
:1039A0005AB10022C3F80421227F32B1D3F83C057A
:1039B000D4F8B830206603B198476369D3F824215E
:1039C00042B10022C3F82421D3F8D024C3F8D02474
:1039D00001225A6170BD00000148FFF7A8BF00BF77
:1039E0006C0500200148FFF7A2BF00BFB004002013
:1039F00013B50A4A0A48142413230193114600946C
:103A00000323FFF72DFE4FF040220194009403237F
:103A100011460448FFF724FE02B010BD00300040FC
:103A20006C050020B00400202DE9F04F85B01F4642
:103A3000BDF93830BDF83CA015469A1A002AB8BF27
:103A4000524200927A1A002AB8BF524201920C46A2
:103A5000009A01998A42814605DD3A461F4613467F
:103A600022462C461546BC4205DD2A461D46134615
:103A700022463C4617465A1B002AC4EB0708B8BF2B
:103A800052421FFA88F8039202260FFA88F292FB3C
:103A9000F6F64FF6FF729D42B8BF0122B6B202920F
:103AA000BC421FDC019A009B9342D9F80030C8BF8A
:103AB0002246D3F810B0C8BF29465346DCBF2A4679
:103AC00021464846D847039BF61AB3B29EB2320449
:103AD00005D5029A08EB030615442DB2B6B201349F
:103AE00024B2DDE705B0BDE8F08F10B40468A46827
:103AF000A4465DF8044B604730B40468BDF8085034
:103B00000295246BA44630BC604730B40468BDF80D
:103B100008500295646BA44630BC604770B40468DA
:103B2000BDF90C50BDF8106004960395A46BA44633
:103B300070BC604770472DE9F3411C460368BDF82F
:103B40002080DB6805461646013C34440F4624B20B
:103B500098472B68CDF8048000941C6A28463B46A1
:103B600032463946A0472B685B6A284602B0BDE85A
:103B7000F04118472DE9F3411D460368BDF8208048
:103B8000DB68044617460E4698478DE88001226898
:103B90006B1E3344156A20461BB23A463146A8478D
:103BA00023685B6A204602B0BDE8F04118472DE962
:103BB000F3471E460368BDF92880DB68BDF82C90EA
:103BC0000C460546174698472644B4422A680BDA45
:103BD000CDF80090D2F818A0214643463A46284630
:103BE0000134D04724B2F0E7536A284602B0BDE85A
:103BF000F047184713B5B0F90E2004680191009200
:103C00000022B0F90C30A46B1146A04702B010BDE1
:103C10002DE9F7439942904607460E461C46BDF9EA
:103C20002850BDF82C9002680BD1A845C2BF43466E
:103C3000A8461D466B1CCDF82890C8EB0303146BF7
:103C40000CE0A84513D19942C4BF0B462646CDF8D7
:103C50002890C8BF1C46631C546B9B1B1BB242467A
:103C600031463846A44603B0BDE8F0436047D36808
:103C700098473B688DE8200238461D6A4246234635
:103C80003146A8473B685B6A384603B0BDE8F0435D
:103C900018472DE9F3471E460368BDF82C80DB6802
:103CA000BDF9289004460D46174698472368CDF87D
:103CB0000080D3F81CA03A46334629462046D04718
:103CC0002368CDF8008009F1FF323A44D3F81CA0F4
:103CD00029463346204612B2D0472368CDF80080EB
:103CE000D3F818A03A464B4629462046D0472368C9
:103CF000CDF80080711E294420469D693A464B4606
:103D000009B2A84723685B6A204602B0BDE8F047C5
:103D10001847704701F00301012941760389428960
:103D200004D0032902D08381C28170478281C3817C
:103D30007047000030B501810024094D4281818126
:103D4000C2814FF6FF71012244600560447604820F
:103D500044820276C18281828276C476C46130BD9B
:103D6000C8F600002DE9F04F89B09A46BDF94C30F5
:103D70000393BDF85030049303680292DB6801910D
:103D8000BDF948900026054698470823009634461A
:103D9000079309F1070292FBF3FB009A029B039938
:103DA0001344BDF9002091429BB229DD0AEB0602C3
:103DB0001BB24FF00008059206931FFA88F10BB270
:103DC0004B4518DA4A0703BF079A93FBF2F3059AAB
:103DD00064000CBFD45CE4B2230609D5019B069AAB
:103DE00019442B681B6909B21F462846049BB84733
:103DF00008F10108E1E7009B013300935E44CCE742
:103E00002B685B6A284609B0BDE8F04F184770B4CC
:103E1000BDF90C40BDF91050BDF81460059604952D
:103E2000039470BCFFF79EBF2DE9F04F91B091460F
:103E3000C26904911E46BDF8683002930446BDF87D
:103E40006CA09DF87050002A40F0B580B0F90C309D
:103E50008B4240F34B81B0F90E304B4540F3468125
:103E6000062313FB0513002B40F3408109EBC50328
:103E7000002B40F33B81C37E1BB9AF2E84BF0136BC
:103E8000F6B223682046DB68984705230B931FFA98
:103E900085F8002307930FFA88F305939DF91C30EA
:103EA0009449052212FB06321FFA89F78A5C0692B2
:103EB000BDF8102003929AB20A92039A089703FB66
:103EC000082307F1080292B21BB20D9209970C93D6
:103ED000069BD90714D5012D07D10A9B039A99187F
:103EE0002368D3F810B0029B16E0029A236801926F
:103EF000059A0092D3F814B01346BDF924201AE0B5
:103F0000029B53451AD0012D0BD10A9B039A991895
:103F10002368D3F810B053463AB209B22046D847C6
:103F20000CE0059A23680092CDF804A0D3F814B0F1
:103F30001346BDF920200C992046D847069B5B0804
:103F40000693099B43449BB20993089B43449BB24D
:103F5000089301370D9BBFB2BB42B9D1079B013318
:103F6000DBB207930B9B013B13F0FF030B9395D13F
:103F7000029B534500F0B380012D22680AD10399BA
:103F8000CDF800A00531956908234A4609B22046BC
:103F9000A847A4E0039BCDF804A008EB88010B44DC
:103FA00019464FEAC803009356692B464A4609B2A0
:103FB0002046B04793E0137AF61A5368F6B203EB43
:103FC000C60613680B93B37896F806A00793F378A8
:103FD0000C93012D737908938ABF4FFA8AF300235B
:103FE0009BB2B6F800B08EBF05931E4605930368DA
:103FF00088BF9DF92060DB6888BFB6B29847ABB236
:104000000693BDF810300493BDF8183016FB03F684
:10401000049B1E44B3B20A931FFA89F30026099346
:1040200043FA8AF3B04603960F930C9BF2B29A427E
:1040300055D2059BBDF81810DDF82890F31813FB36
:1040400001F309990B449BB20D930F9B13444FF05E
:10405000000A0E9307995FFA8AF208EB0203914275
:10406000DBB236D95A0707D10B9A0BF1010312F8CC
:104070000B2003921FFA83FB039B1B061ED5012D09
:104080000FD19DF82020049B43FA82F12368BDF9EB
:1040900038201B6951441F4609B2029B2046B8478D
:1040A0000CE0029922680191009552692B4617464F
:1040B0000FFA89F1BDF934202046B847039B5F0011
:1040C000FBB20393069B99440AF1010A1FFA89F98E
:1040D000C0E7079B98445FFA88F80136A5E7236894
:1040E0005B6A204611B0BDE8F04F184711B0BDE83B
:1040F000F08F00BF10F700007FB5C26904460B4681
:10410000002A2DD10A2905D10282438A027E03EBBF
:10411000C2032EE00D2965D0817E007E69B1B4F91D
:104120001050062111FB0051B4F90C50A942C1BF37
:104130002282628A02EBC00262820290E08A0190CF
:10414000A08AB4F912200090B4F910102046FFF7AD
:104150006BFE237E228A03EB430302EB430340E022
:104160000A2908D100230382017E927A438A01FB47
:104170000233638236E00D2934D0157AA94231D357
:10418000517A99422ED351685D1B01EBC505A97880
:1041900011B3E87800B3A67E207E8EB195F9056054
:1041A0003144B4F9106000FB0161B4F90C60B14214
:1041B00006DD00212182927A618A02FB001262826E
:1041C0000290E08A0190A08A0090B4F91220B4F91C
:1041D00010102046FFF728FE2979227E238A01FB52
:1041E00002332382012004B070BD018242827047F5
:1041F000002908BF012101767047C1828182704782
:10420000407E7047B0F90C007047B0F90E0070475F
:10421000F8B50D1E064614461F4664DBFFF7F2FF95
:10422000854260DA002C5EDB3046FFF7EEFF844209
:1042300000DBF8BD3046FFF7E3FF022807D13189E4
:10424000728901394D1B013A2DB2141B0AE0032873
:104250003DD16540ADB26C407389A4B26540013B6D
:104260002DB21C1B24B2012F03D010D3022F1ED05D
:10427000F8BD3189B26A082394FBF3F313FB0155AF
:1042800004F00704535DA7401F435755F8BD31891B
:10429000082394FBF3F313FB0155B16A012304F0E7
:1042A000070403FA04F44B5D23EA04040DE03189AA
:1042B000082394FBF3F313FB0155B16A012304F0C7
:1042C000070403FA04F44B5D5C404C55F8BD01282B
:1042D000C9D16540ADB26C40318924B20139654025
:1042E0004D1B2DB2BFE7F8BD38B5402204460D4640
:1042F0008021FFF71FFD0D4B23600D4B6362FF23F1
:1043000084F82F3084F8303084F8313084F832303B
:104310004FF0804363650223002284F8335084F811
:1043200058302262A262E265204638BD30FC0000AF
:104330006C050020044B10B504460360806A08B188
:1043400005F0D6FD204610BD30FC0000F8B504464F
:10435000406A0E4690B194F82C10FFF77EFA606A1E
:10436000036800211B689847606A036831461B6830
:104370009847606ABDE8F840FFF7D6BAE26BE06C98
:10438000136823EA0003206A136018B1BDE8F840FF
:1043900000F07BBCA36B08208025626B616C176802
:1043A0002E4214BF394327EA010111601968A26C3B
:1043B0000A431A601A68A16C013822EA01021A60E5
:1043C0004FEA5505E9D1F8BD38B50446406A0D46B7
:1043D00018B1216EFFF7CEF90CE0206A20B104F18C
:1043E00054030ECB00F044FC226C216D136823EAC9
:1043F00001031360002D204614BFA721A621FFF75B
:10440000A5FF606A20B1616EBDE83840FFF7B2B920
:10441000226C236D1168206A0B43136018B1BDE84C
:10442000384000F031BC38BDF8B50446406A0D464E
:104430008F1848B394F82C10FFF70FFA606A0368DE
:1044400000211B6898470126BD4218D03E2E0DD989
:10445000606AFFF769FA94F82C10606AFFF7FDF9BB
:10446000606A036800211B6898470126606A15F896
:10447000011B036801361B689847F6B2E4E7606ADF
:10448000BDE8F840FFF750BAE26BE16C136823EA2D
:1044900001031360BD4224D0206A15F8011B10B13E
:1044A00000F0F3FBF6E7A36B08264FF0800E626B7B
:1044B000606CD2F800C011EA0E0F14BF4CEA000085
:1044C0002CEA000010601868A26C02431A601A6897
:1044D000A06C013E22EA00021A604FEA5E0EE6D1AD
:1044E000D8E7F8BDB0F90A300822073393FBF2F39E
:1044F000B0F90820806A5A43002105F036BD00005B
:104500002DE9F0431E4685B0836A9DF8307004465D
:104510008846154673B9B0F90A300820073393FB73
:10452000F0F3B4F90800584305F0DAFCA062002863
:1045300000F04F812046FFF7D5FFB4F90A20B4F907
:104540000830202A4FF002010EDD523B403A4FF076
:10455000400992FBF1F24FF0010C93FBF1F1522371
:104560008DE808129C4B0CE0733B203A732092FBC1
:10457000F1F24FF0010E93FBF1F120238DE8094099
:10458000964B204612B209B2FFF741FC606A84F8EC
:104590002D8080B135B9B4F90A30202B14BF3D25E8
:1045A0003C2500E0EDB284F82C50002F00F00E8185
:1045B000FFF77AF86FE0012194F93100DFF84892B3
:1045C000DFF8488203F0D4FF012194F9320003F0B0
:1045D000CFFF94F93130206A59F82330012513F0C8
:1045E000200F03F01F0305FA03F3E36494F932305C
:1045F00059F823300CBF4FF0A042424602F5A162A9
:1046000013F0200F03F01F03E26305FA03F30CBF5E
:104610004FF0A0424246236502F5A1612164D2F821
:1046200008150B43C2F8083518B1A7B300F00AFB10
:1046300031E0294694F92F0003F09AFF294694F9B6
:10464000300003F095FF94F92F3059F8233013F020
:10465000200F03F01F0305FA03F3636494F930306D
:1046600059F823300CBF4FF0A042424613F0200F00
:1046700003F01F0308BF4FF0A0489D40A564D8F881
:10468000083502F5A162626323EA050508F5A16217
:10469000A263C8F80855DEB194F93300002817DB8F
:1046A000012103F065FF012194F9330003F08AFF33
:1046B000012003F039FF002194F9330003F082FF59
:1046C0000A2003F031FF012194F9330003F07AFF4F
:1046D000606A18B1216EFFF74DF80CE0206A20B136
:1046E00004F154030ECB00F0C3FA226C216D136861
:1046F00023EA01031360042239492046FFF794FEA0
:10470000A17A0139C9B22046FFF720FE35490422BB
:104710002046FFF789FE94F92D30012B14BF142198
:1047200010212046FFF712FE04222F492046FFF7F2
:104730007BFEA3682D4A934205D104222C492046D2
:10474000FFF772FE1FE02B4A93420BD12A49032246
:104750002046FFF769FE94F92D30012B14BFCF21BD
:104760009F210DE0254A93420DD125490322204681
:10477000FFF75AFE94F92D30012B14BFAF21102101
:104780002046FFF7E3FDD9212046FFF7DFFD94F92E
:104790002D30012B14BFF12122212046FFF7D6FD39
:1047A000204606221749FFF73FFE606A18B1616E86
:1047B000FEF7E0FF08E0226C236D1168206A0B43CE
:1047C000136008B100F060FA012002E0002E81D0F1
:1047D00062E705B0BDE8F08371FE00007FFC0000D9
:1047E0005FFE000063FE000067FE00008000200006
:1047F00078FC0000800040007CFC0000600010009D
:10480000310101006BFE000078020100000300503E
:10481000F0B5002ABDF8146046DBB0F90A409442B6
:1048200042DD0029B8BF5B180489BCBF1BB2002160
:10483000CD1827B2BD42C4BF631A1BB2002B33DDB3
:104840000825806A92FBF5F5ADB214FB051108440A
:1048500002F00702012101FA02F28E42D2B203D025
:104860000CD3022E16D0F0BD013B1BB25D1C1BD039
:1048700010F8011B114300F8011CF5E7D243D2B236
:10488000013B1BB25C1C0FD010F8011B114000F85B
:10489000011CF5E7013B1BB2591C05D010F8011BA8
:1048A000514000F8011CF5E7F0BD0000F0B50F1E07
:1048B000BDF81450C0F28B8001890FFA81FE774554
:1048C00080F28580002AB8BF9B184489BCBF1BB208
:1048D0000022D6180FFA84FC6645C4BFA31A1BB287
:1048E000002B74DDD2B2D408866A11FB047112F079
:1048F0000702DBB206EB01042BD0C2F10802D2B2F0
:10490000334F9342BF5C0DD2C3EB020C4FF0FF0E4E
:104910004EFA0CFE012D0EEA070705D00AD3022D30
:1049200055D10CE0012D04D116F801E047EA0E073D
:1049300009E048D216F801E02EEA070703E016F86E
:1049400001E087EA0E079342775440D3B0F908108C
:104950000C449B1ADBB2072B1CD9022D0BD11A4633
:104960002178C9432170083AB0F90810D2B2072A59
:104970000C44F5D81EE0002D14BFFF2600261A4671
:104980002670083AB0F90810D2B2072A0C44F7D8BA
:1049900003F00703DBB10F4A012DD35C03D005D32D
:1049A000022D14D10BE0227813430AE0227822EA88
:1049B000030306E013F0070309D0064AD35C22780C
:1049C00053402370F0BD022DB9D07444C1E7F0BD4F
:1049D0001DFC000010FC000070B4447EBDF80C60AB
:1049E000022C08D0032C0FD0012C18D10589013DD1
:1049F000AC1A24B20DE04489013CA41A22B2048905
:104A0000E41A611A09B20AE014464289D21A511A0C
:104A100009B203960A46214670BCFFF747BF0396CA
:104A200070BCFFF7F5BE70B4447EBDF80C60022C7C
:104A300008D0032C0FD0012C18D10589ED1AAC1A1F
:104A400024B20DE00489013C611A4489E41AA41AD5
:104A500009B222B20AE014464289013A511A09B257
:104A600003960A46214670BCFFF7D2BE039670BC7F
:104A7000FFF71CBFF8B50446406A18B1216EFEF777
:104A800079FE0CE0206A20B104F154030ECB00F053
:104A9000EFF8226C216D136823EA010313600522ED
:104AA0003F492046FFF7C0FC217A01392046C9B2B0
:104AB000FFF74CFCB4F90A50A66A606A0823073570
:104AC00095FBF3F5238913FB05F516FA85F540B33D
:104AD00094F82C10FEF7C1FE606A036840211B6841
:104AE00098470127AE4218D03E2F0DD9606AFEF7D5
:104AF0001BFF94F82C10606AFEF7AFFE606A036833
:104B000040211B6898470127606A16F8011B03685B
:104B100001371B689847FFB2E4E7606AFEF704FFBD
:104B20002BE0E26BE36C11680B431360AE4224D0C0
:104B3000206A16F8011B10B100F0A7F8F6E7A36B86
:104B400008274FF0800E626B606CD2F800C011EA4B
:104B50000E0F14BF4CEA00002CEA00001060186829
:104B6000A26C02431A601A68A06C013F22EA00029C
:104B70001A604FEA5E0EE6D1D8E7606A20B1616E36
:104B8000BDE8F840FEF7F6BD226C236D1168206A7F
:104B90000B43136018B1BDE8F84000F075B8F8BDDC
:104BA00018FC000038B50025057329B90B4B0C4AD9
:104BB0000C48232105F0F0F801600B4951F8222040
:104BC000027151F8233083719DF8103051F8233071
:104BD00043710223C371856038BD00BF71010100BC
:104BE000340101007F01010078020100037B23B939
:104BF0004373837303610123037370471FB50DF182
:104C0000100E0EE90E009DF808100268002301291D
:104C1000C2F80035039B08D004D3032907D143F021
:104C2000040304E043F0020301E043F00603C2F88A
:104C30005435019BC2F824350123C2F8003505B074
:104C40005DF804FB10B5FFF7D1FF03688279C3F864
:104C500008254279C3F80C250279C3F81025034BC7
:104C6000BDE810400ECBFFF7C9BF00BF28060020EB
:104C700010B485B001AC84E80E0094E80E0005B0D5
:104C80005DF8044BFFF7BABF70470368C3F81C1503
:104C9000D3F80821002AFBD0D3F818050022C3F866
:104CA0000821C0B27047000007B5094B09490A48FE
:104CB0004FF080421A6000229A6002221A710F237C
:104CC00000930E220D23FFF76DFF03B05DF804FB88
:104CD0002806002000300040340600204D230370D9
:104CE0007047000070B50B4C0D4601782046164603
:104CF000FEF7B3FDE90001F0F8012046FEF798FC4D
:104D000031462046FEF794FC2046BDE87040FEF791
:104D10000BBE00BF6C05002003221146FFF7E2BF67
:104D200070B50D4C06460D4601782046FEF795FD00
:104D3000E90001F0F8012046FEF77AFC2046FEF774
:104D4000F3FD012231782046FEF784FD2046FEF770
:104D500081FCC0B270BD00BF6C05002000000000E7
:104D600038B50446080104F0A7F90B46024612A123
:104D7000D1E9000104F030FB04F0C6FC032185B248
:104D80002046FFF7CDFF204680220321FFF7AAFF30
:104D9000EAB220460021FFF7A5FF2A0A204601219A
:104DA000FFF7A0FF20467F220321BDE83840FFF730
:104DB00099BF00BFAFF300800000000000203C411D
:104DC00010B50E210446FFF7ABFF40F00802D2B247
:104DD00020460E21BDE81040FFF784BF10B5992290
:104DE00004460721FFF77EFF07212046FFF798FFC3
:104DF000A0F199035842584110BD38B50D46022123
:104E00000446FFF78DFF15B900F0FD0202E040F007
:104E10000202D2B220460221BDE83840FFF762BF4D
:104E200070B504460E4601780F48FEF716FD0E4891
:104E3000FEF77AFD08B1002513E02046FFF7CEFF0C
:104E400005460028F7D02046FFF7BAFF012120468B
:104E5000FFF7D3FF20463146FFF782FF2046FFF7DA
:104E60005BFF284670BD00BF6C0500200921FFF7DD
:104E700057BF10B50446FFF7F9FF28B120460021BF
:104E8000BDE81040FFF74CBF10BD70B50E460A21BB
:104E900014460546FFF744FF012C15BF012204FA12
:104EA00006F2B240024318BF20EA0202D2B22846FC
:104EB0000A21BDE87040FFF715BF70B50E460B2103
:104EC00014460546FFF72CFF012C15BF012204FAFA
:104ED00006F2B240024318BF20EA0202D2B22846CC
:104EE0000B21BDE87040FFF7FDBE38B500F10C05A1
:104EF00004462846FFF7F2FE0023A3762561637679
:104F000084F82230204638BD10B504464FF41651BF
:104F10000069FFF785FF206901220021FFF7B5FF37
:104F2000002211462069FFF7C8FFC82003F0FCFAF1
:104F3000012010BD10B50446012200210069FFF7D1
:104F4000A4FF206901220021BDE81040FFF7B5BF92
:104F500010B50122044600210069FFF796FF0022E8
:104F600020691146BDE81040FFF7A7BF38B5002300
:104F7000044603760069FFF779FF002869D02069AD
:104F8000FFF777FFA37E032B21D8DFE803F00205AC
:104F90000D1442285DD118E04D2801D0002357E0C0
:104FA000228C4D32228452E0228C80B202440002D4
:104FB0002284A0834BE0A28B80B20243A28322F022
:104FC0000802142AEAD1228C104420843FE0A28BEC
:104FD000911C8B4202D10002E08338E003329342FD
:104FE0002DD1E38B1843238C80B28342E083D5D14B
:104FF0000123237661782078656903F01FFD2880FE
:10500000E178A078656903F019FD688061792079FD
:10501000656903F013FDA880E179A079656903F063
:105020000DFDE880617A207A656903F007FD28812B
:10503000E17AA07A656903F001FD6881AEE7228C10
:10504000024422841A1FD2B20B2A98BFA054013303
:10505000A37638BD10B504464161FFF787FF207E77
:10506000431E5842584110BD00224263762280F808
:105070003C2070477047000070B51B4E90F83C1004
:105080000446FA223046FEF741FA94F83C100546F1
:10509000FB223046FEF73AFA000140EA053594F863
:1050A0003C10FC223046FEF731FA218AB4F9123066
:1050B000C1EB25124900C1EBE501524359431313DB
:1050C000B4F9142053439B1303EBE123A36303EBD5
:1050D000830380331B1207EE903AB8EEE70ADFED48
:1050E000037A80EE270A70BDA00400200000C842A9
:1050F00010B50446FFF7C0FFD4ED0D7A30EE270A55
:1051000010BD00002DE9F74F044690F83C106348AD
:10511000F722FEF749FAA26BB4F92080B4F91EA079
:10512000D317B2F5FA3243F1FF33A2FB026702FB59
:1051300003F107EB410708FB07F14FEAE87906FBAB
:105140000911A8FB0689CDE90089019D2944019137
:105150004FEAEA7B0AFB03F102FB0B11AAFB02AB4D
:105160008B444FEA4B4949EADA394FEA4A48DDE9CC
:1051700000AB1AEB080AB4F918804BEB090B08FBDB
:1051800003F14FEAE87902FB0911A8FB02230B4463
:105190004FEA033949EA12594FEA0238B4F91A20A2
:1051A00002FB07F1D31706FB0313A2FB06671F449C
:1051B000320A42EA07623B1218EB0208E28A49EB24
:1051C0000309001118F10008A8FB0267C0F5801060
:1051D00049F5004902FB09774FEAE0794FEAC973C4
:1051E00043EA5003C207B4F91C004FF0000818EB63
:1051F0000A084FEAC00949EB0B0940F63545B2EB06
:10520000080263EB0903A2FB050105FB03117A10F9
:10521000FB1704F0F7FBB4F926204D13460B46EAC2
:10522000C14602FB05F7D31706FB0377A2FB062353
:105230003B44554306FB0355A2FB06232B44560E65
:1052400046EAC316B4F92420B4F9224036184FEACE
:1052500063674F41D317514300FB0313A2FB0001C7
:105260001944C20C42EA413292194FEAE1437B41B0
:10527000100AE517220140EA036019122B0143EAE4
:1052800014738018594104F07FFB9FED050A07EE67
:10529000900A27EE800A03B0BDE8F08FA00400203A
:1052A0000000803BFFF72EBF10B5044690F83C107D
:1052B0001E48FD22FEF748F9B4F92E30A26BB4F96E
:1052C00030101B05A2F59632C3EB803002FB1100B3
:1052D00000F58043D81394F82C3094F932105343DE
:1052E000DB124A43921203F5004353439B12B4F975
:1052F0002A2094F8281003F50013534303F50053B4
:105300009B134343DA135243D2114A43A3EB2213B4
:1053100023EAE373B3F1C85FA8BF4FF0C8531B1370
:1053200000EE103ABAEECB0A10BD00BFA004002078
:10533000FFF7BABF70B54C4D90F83C100446882278
:105340002846FEF725F98A22208294F83C10284648
:10535000FEF724F98C22608294F83C102846FEF770
:105360001DF98E22A08294F83C102846FEF710F911
:105370009022E08294F83C102846FEF70FF9922222
:10538000208394F83C102846FEF708F994226083A5
:1053900094F83C102846FEF701F99622A08394F871
:1053A0003C102846FEF7FAF89822E08394F83C1067
:1053B0002846FEF7F3F89A22208494F83C102846F9
:1053C000FEF7ECF89C22608494F83C102846FEF727
:1053D000E5F89E22A08494F83C102846FEF7DEF8FB
:1053E000A122E08494F83C102846FEF78FF8E122D1
:1053F00084F8280094F83C102846FEF7CFF8E32202
:10540000608594F83C102846FEF780F8E42284F882
:105410002C0094F83C102846FEF778F8E522064662
:1054200094F83C102846FEF771F800F00F0040EAAF
:105430000610E085E62294F83C102846FEF766F850
:10544000E522064694F83C102846FEF75FF8001166
:1054500040EA06102086E72294F83C102846FEF722
:1054600055F884F8320070BDA004002038B5054618
:10547000094CFFF75FFF95F83C1020460123F2220C
:10548000FEF71CF820463F23F42295F83C10FEF767
:1054900015F8012038BD00BFA00400200022022121
:1054A000027442748282826102770284426280F8CE
:1054B00028208285026380F834200287C26380F846
:1054C000402080F8482080F84920C26480F85820A5
:1054D00080F85920C26580F8682080F8692002674A
:1054E00080F8782080F87920C0F8802080F8882023
:1054F00080F88920C0F8902080F8982080F89920C2
:10550000C0F8A02080F8A82080F8A920C0F8B0201A
:1055100080F8C02080F8C12080F8D11080F8D22017
:1055200080F8D32080F8D420C0F8D820C0F8DC2040
:10553000C0F8E020C0F8E420C0F8E820C0F8EC2073
:1055400080F8C2207047000042210148FDF79CBF4F
:10555000A0040020A1F14103052B02D8A1F13700DE
:105560007047A1F16103052B94BFA1F15700A1F190
:105570003000704738B5057804462D2D08BF01343A
:10558000204604F02EFC64235843224614F8013BC5
:10559000A3F130010929F8D92E2B0BD15378303BD8
:1055A000092B07D80A2101FB03009378303B092B14
:1055B00098BFC0182D2D08BF404238BD38B50446ED
:1055C0000D4604F00EFC6423B0FBF3F203FB120063
:1055D000114B2A80434320460278A2F13001092969
:1055E000044600F10100F7D92E2A0BD10A490A20FE
:1055F00014F8012F303A092A04D8B1FBF0F101FB6D
:105600000233F5E703EB830301330322B3FBF2F329
:105610006B6000232B7238BD80969800034610B54E
:1056200053F81C2F42605A6882601B7A037303464A
:10563000044653F8282F02615A6842611B7A0376A8
:1056400002F05AFF012360636370237010BD0000F5
:105650000023D0B504464370806803F01DFD0EA3FF
:10566000D3E9002303F0B8FE0646A0880F4603F0F6
:1056700023FD0B4602463946304603F0D1FB237B1F
:105680001BB1024601F1004301E002460B4643EC28
:10569000102BD0BDAFF300800000000065CDCD41E0
:1056A0000023D0B504464370406903F0F5FC0EA317
:1056B000D3E9002303F090FE0646208A0F4603F04C
:1056C000FBFC0B4602463946304603F0A9FB237E1D
:1056D0001BB1024601F1004301E002460B4643ECD8
:1056E000102BD0BDAFF300800000000065CDCD4190
:1056F00010B583684360044602F0FEFE0123E060BB
:105700006370237010BD10B583684360044602F0D7
:10571000F3FE0123E0606370237010BD10B50446F2
:105720000846FFF727FFA06010BD10B504460846E5
:1057300004F057FBA06010BD10B5C3688360044639
:1057400002F0DAFE012360606370237010BD10B5B3
:1057500004460846FFF70EFFE06010BD10B5C368B1
:105760008360044602F0C8FE01236060637023700A
:1057700010BD10B50446084604F033FBE06010BDD0
:1057800010B501460446103005F086FA02F0B4FE6A
:105790000123206284F8253084F8243010BD1022C3
:1057A00005F09FBAF8B590F8C1500446002D69D0B5
:1057B00090F8C210FFF7CEFE94F8C31002462046C0
:1057C000FFF7C8FE94F8C03000EB0210C0B283426D
:1057D00051D1D4F8EC300133C4F8EC3094F8D43023
:1057E00023B1D4F8E4300133C4F8E43094F8D13074
:1057F000BBB1012B2CD104F14800FFF779FF04F174
:105800005800FFF780FF94F8D4300BB304F1100078
:10581000FFF704FF04F16800FFF78EFF04F1780042
:1058200014E004F15800FFF76EFF94F8D4303BB158
:1058300004F11000FFF7F2FE04F18800FFF77CFF8F
:1058400004F19800FFF78AFF04F1A800FFF774FF46
:10585000D4F8DC60002E00F0CE80D4F8DC30B06AE2
:10586000996A05F00FFA002840F0C5803046FFF72E
:1058700087FF366BEEE7D4F8E8300133C4F8E83040
:105880000025B8E090F8D22072BB00F1C2065B4957
:10589000304605F0F7F920B15949304605F0F2F9E4
:1058A00008B901230CE05749304605F0EBF920B167
:1058B0005549304605F0E6F908B9002300E0022317
:1058C00084F8D130D4F8D830C4F8DC30D4F8DC70A7
:1058D000002F00F090803146B86A05F0D3F9002817
:1058E00080F285803B6BEFE790F8D110022966D0FB
:1058F00090F8C230002B62D042EA4112013A282AC5
:105900005DD8DFE802F01520232A31464D53575C5D
:105910005C5C5C5C5C5C5C5C5C5C5C5C5C5C5C5CC7
:105920005C5C5C5C5C5C151B20232A31383C4000CD
:1059300000F1C2015830FFF7F1FE40E0A3F1410051
:105940004342434129E000F12C0108E0A3F1530157
:105950004B424B4180F8343031E000F1380104F122
:10596000C200FFF72BFE2AE0A3F157025342534136
:1059700080F8403023E000F1C20168301DE000F102
:10598000C201783019E000F1C2014830FFF7CDFEC6
:1059900015E0302B94BF0023012384F8D4300EE0AF
:1059A00000F1C2019830FFF7E4FE08E000F1C20107
:1059B000A83002E000F1C2018830FFF7C8FED4F839
:1059C000DC6004F1C207B6B1D4F8DC30B06A996A81
:1059D00005F058F978B9F26A94F8D2309A420ADCA4
:1059E00003D139463046FFF7DAFE366BEBE702D0DB
:1059F0000023C4F8DC302846F8BD00BFD401010004
:105A0000DA010100E0010100E601010038B5D0F83B
:105A1000E030242903F1010304460D46C0F8E030CC
:105A20002AD090F8D33004D80A290CD00D2932D1CD
:105A300009E02A2907D02C292DD190F8C02082F026
:105A40002C0280F8C0200E2B4FF0000005D8234414
:105A500083F8C2002046FFF7A5FE94F8D230013348
:105A600084F8D230002384F8D330A5F12A035D42B4
:105A70005D4184F8C15038BD0020022384F8D30072
:105A800084F8D20084F8C00084F8D13084F8C100D2
:105A900084F8D40038BD0D2B9FBF5A1C1B1984F805
:105AA000D32083F8C25094F8C10028B994F8C010EC
:105AB0004D4084F8C05038BD002038BD70B5154643
:105AC00092B0164B029304461C22002103A804F056
:105AD0004CFA2B780BB902A919E0696864200023FD
:105AE0006B70B1FBF0F300FB131202F5FA6242F2A5
:105AF0001076B1FBF6F1C9B2B3FBF0F5009100FBF3
:105B00001533074992B20AA805F08AF80AA9204677
:105B100002F0D9FF204612B070BD00BF45525200BE
:105B2000EC0101001FB5044600F14802014601A83E
:105B3000FFF7C4FF94F8483063B1002384F849307C
:105B4000E46C6422B4FBF2F302FB134404F5FA6440
:105B5000A4B201E04FF0FF3401A802F072FF20462A
:105B600004B010BD1FB5044600F14802014601A86B
:105B7000FFF7A4FF94F848305BB1002384F8493064
:105B8000E26C6424B2FBF4F2B2FBF4F304FB1324E2
:105B900001E04FF0FF3401A802F053FF204604B0AB
:105BA00010BD1FB5044600F14802014601A8FFF7E9
:105BB00085FF94F848304BB1002384F84930E36CFA
:105BC00042F21074B3FBF4F4E4B201E04FF0FF349E
:105BD00001A802F036FF204604B010BD70B515468E
:105BE00092B0174B029304461C22002103A804F034
:105BF000BCF92B780BB902A91BE06420002369686B
:105C00006B70104AB1FBF2F242F21073B1FBF3F386
:105C1000B1FBF0F1B1FBF0F500FB1511B3FBF0F6B1
:105C2000009100FB16330849D2B20AA804F0F8FF2D
:105C30000AA9204602F047FF204612B070BD00BFFF
:105C40004552520040420F00FB0101001FB50446BF
:105C500000F15802014601A8FFF7C0FF94F8583040
:105C600043B1002384F85930E36D064CB3FBF4F4E0
:105C7000E4B201E04FF0FF3401A802F0E2FE20465A
:105C800004B010BD40420F001FB5044600F1580299
:105C9000014601A8FFF7A2FF94F858306BB100232A
:105CA00084F85930E36D42F21074B3FBF4F26424CB
:105CB000B2FBF4F304FB132401E04FF0FF3401A81E
:105CC00002F0BFFE204604B010BD1FB5044600F12F
:105CD0005802014601A8FFF781FF94F858305BB1E4
:105CE000002384F85930E26D6424B2FBF4F2B2FB75
:105CF000F4F304FB132401E04FF0FF3401A802F099
:105D0000A0FE204604B010BD30B58BB00F4B8DED1A
:105D1000010A0446154600211C2203A8029304F040
:105D200024F99DED010A4DB110EE100A03F0D6F9E9
:105D300002460B4602A8064904F072FF02A920465B
:105D400002F0C1FE20460BB030BD00BF45525200EC
:105D50000A02010030B5002389B090F8885080F81D
:105D600089300446D0F8900003F0A6F90022104BC9
:105D700003F032FB03F0E8FC02232A46214600939D
:105D800000EE100A072305A8FFF7BEFF059804F0F0
:105D900021F805A88DED020B02F053FE9DED020BDC
:105DA00051EC100B03F0D0FC00EE100A09B030BD2E
:105DB0000000594030B5044689B01030FFF748FC68
